{
  "_format": "hh-sol-artifact-1",
  "contractName": "SnackShieldAccess",
  "sourceName": "contracts/SnackShieldAccess.sol",
  "abi": [
    {
      "inputs": [],
      "stateMutability": "nonpayable",
      "type": "constructor"
    },
    {
      "anonymous": false,
      "inputs": [
        {
          "indexed": true,
          "internalType": "address",
          "name": "wallet",
          "type": "address"
        },
        {
          "indexed": false,
          "internalType": "uint256",
          "name": "timestamp",
          "type": "uint256"
        }
      ],
      "name": "PartnerDeactivated",
      "type": "event"
    },
    {
      "anonymous": false,
      "inputs": [
        {
          "indexed": true,
          "internalType": "address",
          "name": "wallet",
          "type": "address"
        },
        {
          "indexed": false,
          "internalType": "uint256",
          "name": "timestamp",
          "type": "uint256"
        }
      ],
      "name": "PartnerReactivated",
      "type": "event"
    },
    {
      "anonymous": false,
      "inputs": [
        {
          "indexed": true,
          "internalType": "address",
          "name": "wallet",
          "type": "address"
        },
        {
          "indexed": false,
          "internalType": "string",
          "name": "name",
          "type": "string"
        },
        {
          "indexed": false,
          "internalType": "string",
          "name": "company",
          "type": "string"
        },
        {
          "indexed": false,
          "internalType": "enum SnackShieldAccess.Role",
          "name": "role",
          "type": "uint8"
        },
        {
          "indexed": false,
          "internalType": "uint256",
          "name": "timestamp",
          "type": "uint256"
        }
      ],
      "name": "PartnerRegistered",
      "type": "event"
    },
    {
      "anonymous": false,
      "inputs": [
        {
          "indexed": true,
          "internalType": "address",
          "name": "wallet",
          "type": "address"
        },
        {
          "indexed": false,
          "internalType": "enum SnackShieldAccess.Role",
          "name": "oldRole",
          "type": "uint8"
        },
        {
          "indexed": false,
          "internalType": "enum SnackShieldAccess.Role",
          "name": "newRole",
          "type": "uint8"
        },
        {
          "indexed": false,
          "internalType": "uint256",
          "name": "timestamp",
          "type": "uint256"
        }
      ],
      "name": "RoleUpdated",
      "type": "event"
    },
    {
      "inputs": [
        {
          "internalType": "address",
          "name": "_wallet",
          "type": "address"
        }
      ],
      "name": "deactivatePartner",
      "outputs": [],
      "stateMutability": "nonpayable",
      "type": "function"
    },
    {
      "inputs": [],
      "name": "getAllPartners",
      "outputs": [
        {
          "internalType": "address[]",
          "name": "",
          "type": "address[]"
        }
      ],
      "stateMutability": "view",
      "type": "function"
    },
    {
      "inputs": [
        {
          "internalType": "address",
          "name": "_wallet",
          "type": "address"
        }
      ],
      "name": "getPartner",
      "outputs": [
        {
          "internalType": "string",
          "name": "name",
          "type": "string"
        },
        {
          "internalType": "string",
          "name": "company",
          "type": "string"
        },
        {
          "internalType": "enum SnackShieldAccess.Role",
          "name": "role",
          "type": "uint8"
        },
        {
          "internalType": "bool",
          "name": "isActive",
          "type": "bool"
        },
        {
          "internalType": "uint256",
          "name": "registeredAt",
          "type": "uint256"
        }
      ],
      "stateMutability": "view",
      "type": "function"
    },
    {
      "inputs": [
        {
          "internalType": "address",
          "name": "_wallet",
          "type": "address"
        },
        {
          "internalType": "enum SnackShieldAccess.Role",
          "name": "_role",
          "type": "uint8"
        }
      ],
      "name": "hasRole",
      "outputs": [
        {
          "internalType": "bool",
          "name": "",
          "type": "bool"
        }
      ],
      "stateMutability": "view",
      "type": "function"
    },
    {
      "inputs": [
        {
          "internalType": "address",
          "name": "_wallet",
          "type": "address"
        }
      ],
      "name": "isActivePartner",
      "outputs": [
        {
          "internalType": "bool",
          "name": "",
          "type": "bool"
        }
      ],
      "stateMutability": "view",
      "type": "function"
    },
    {
      "inputs": [],
      "name": "owner",
      "outputs": [
        {
          "internalType": "address",
          "name": "",
          "type": "address"
        }
      ],
      "stateMutability": "view",
      "type": "function"
    },
    {
      "inputs": [
        {
          "internalType": "uint256",
          "name": "",
          "type": "uint256"
        }
      ],
      "name": "partnerAddresses",
      "outputs": [
        {
          "internalType": "address",
          "name": "",
          "type": "address"
        }
      ],
      "stateMutability": "view",
      "type": "function"
    },
    {
      "inputs": [],
      "name": "partnerCount",
      "outputs": [
        {
          "internalType": "uint256",
          "name": "",
          "type": "uint256"
        }
      ],
      "stateMutability": "view",
      "type": "function"
    },
    {
      "inputs": [
        {
          "internalType": "address",
          "name": "",
          "type": "address"
        }
      ],
      "name": "partners",
      "outputs": [
        {
          "internalType": "address",
          "name": "wallet",
          "type": "address"
        },
        {
          "internalType": "string",
          "name": "name",
          "type": "string"
        },
        {
          "internalType": "string",
          "name": "company",
          "type": "string"
        },
        {
          "internalType": "enum SnackShieldAccess.Role",
          "name": "role",
          "type": "uint8"
        },
        {
          "internalType": "bool",
          "name": "isActive",
          "type": "bool"
        },
        {
          "internalType": "uint256",
          "name": "registeredAt",
          "type": "uint256"
        }
      ],
      "stateMutability": "view",
      "type": "function"
    },
    {
      "inputs": [
        {
          "internalType": "address",
          "name": "_wallet",
          "type": "address"
        }
      ],
      "name": "reactivatePartner",
      "outputs": [],
      "stateMutability": "nonpayable",
      "type": "function"
    },
    {
      "inputs": [
        {
          "internalType": "address",
          "name": "_wallet",
          "type": "address"
        },
        {
          "internalType": "string",
          "name": "_name",
          "type": "string"
        },
        {
          "internalType": "string",
          "name": "_company",
          "type": "string"
        },
        {
          "internalType": "enum SnackShieldAccess.Role",
          "name": "_role",
          "type": "uint8"
        }
      ],
      "name": "registerPartner",
      "outputs": [],
      "stateMutability": "nonpayable",
      "type": "function"
    },
    {
      "inputs": [
        {
          "internalType": "address",
          "name": "_newOwner",
          "type": "address"
        }
      ],
      "name": "transferOwnership",
      "outputs": [],
      "stateMutability": "nonpayable",
      "type": "function"
    },
    {
      "inputs": [
        {
          "internalType": "address",
          "name": "_wallet",
          "type": "address"
        },
        {
          "internalType": "enum SnackShieldAccess.Role",
          "name": "_newRole",
          "type": "uint8"
        }
      ],
      "name": "updateRole",
      "outputs": [],
      "stateMutability": "nonpayable",
      "type": "function"
    }
  ],
  "bytecode": "0x6080346200054c57600080546001600160a01b0319163317905560c08101906001600160401b03821181831017620005365760409182523381526200004362000551565b90600c82526b29bcb9ba32b69020b236b4b760a11b91826020820152602082019081526200007062000551565b90601682527f536e61636b536869656c6420456e7465727072697365000000000000000000009182602082015285840152600492836060820152600160808201524260a0820152336000526002602052856000209160018060a01b0382511660018060a01b03198454161783555180519060018060401b03821162000521576001840154600181811c9116801562000516575b602082101462000501579081601f849311620004a6575b50602090601f83116001146200042f5760009262000423575b50508160011b916000199060031b1c19161760018301555b80860151805160028401916001600160401b0382116200040e578254600181811c9116801562000403575b6020821014620003ee579081601f84931162000396575b50602090601f83116001146200032b576000926200031f575b50508160011b916000199060031b1c19161790555b60038201606082015160058110156200030a579181869360a0935460ff61ff006080860151151560081b1692169061ffff191617179055015191015560035468010000000000000000811015620002f5576001810180600355811015620002e05760036000527fc2575a0e9e593c00f959f8c92f12db2869c3395a3b0502d05e2516446f71f85b0180546001600160a01b031916331790556001546000198114620002cb5760010160015583519260808452600c608085015260a084015260c06020840152601660c084015260e0830152828201524260608201527f5be57917b18770220c2e6b1fd41805485de57550982c5fcc3fd89d580b3320e96101003392a2516111749081620005728239f35b601183634e487b7160e01b6000525260246000fd5b603283634e487b7160e01b6000525260246000fd5b604183634e487b7160e01b6000525260246000fd5b602186634e487b7160e01b6000525260246000fd5b015190503880620001a6565b6000858152602081209350601f198516905b8181106200037d575090846001959493921062000363575b505050811b019055620001bb565b015160001960f88460031b161c1916905538808062000355565b929360206001819287860151815501950193016200033d565b909150836000526020600020601f840160051c81019160208510620003e3575b90601f859493920160051c01905b818110620003d357506200018d565b60008155849350600101620003c4565b9091508190620003b6565b602288634e487b7160e01b6000525260246000fd5b90607f169062000176565b604187634e487b7160e01b6000525260246000fd5b01519050388062000133565b9250600185016000526020600020906000935b601f19841685106200048a576001945083601f1981161062000470575b505050811b0160018301556200014b565b015160001960f88460031b161c191690553880806200045f565b8181015183556020948501946001909301929091019062000442565b909150600185016000526020600020601f840160051c81019160208510620004f6575b90601f859493920160051c01905b818110620004e657506200011a565b60008155849350600101620004d7565b9091508190620004c9565b602287634e487b7160e01b6000525260246000fd5b90607f169062000103565b604186634e487b7160e01b6000525260246000fd5b634e487b7160e01b600052604160045260246000fd5b600080fd5b60408051919082016001600160401b03811183821017620005365760405256fe6080604052600436101561001257600080fd5b60003560e01c806304f3cd1e146108165780631ca6d933146106f55780632996d265146106b057806362793c171461054c5780638da5cb5b146105235780638e96d94e1461042e578063942f0de6146103ec57806395a8c58d1461037157806395c33652146102c6578063d3e83a08146101fe578063d50f6d3a1461015f578063e79d0860146101415763f2fde38b146100ab57600080fd5b3461013c57602036600319011261013c576100c4610d7f565b600054906001600160a01b039081831633036100f75716906100e7821515610fda565b6001600160a01b03191617600055005b60405162461bcd60e51b815260206004820152601860248201527f416363657373436f6e74726f6c3a206e6f74206f776e657200000000000000006044820152606490fd5b600080fd5b3461013c57600036600319011261013c576020600154604051908152f35b3461013c57602036600319011261013c576001600160a01b03610180610d7f565b1660005260026020526101cc60406000206003810154600482015460ff6101da6101b860026101b160018801610e9b565b9601610e9b565b60405196879660a0885260a0880190610f41565b908682036020880152610f41565b926101ea60408601838316610f81565b60081c161515606084015260808301520390f35b3461013c57600036600319011261013c57604051806003548083526020809301809160036000527fc2575a0e9e593c00f959f8c92f12db2869c3395a3b0502d05e2516446f71f85b9060005b868282106102a957868661026082880383610e79565b604051928392818401908285525180915260408401929160005b82811061028957505050500390f35b83516001600160a01b03168552869550938101939281019260010161027a565b83546001600160a01b03168552909301926001928301920161024a565b3461013c57602036600319011261013c576001600160a01b03806102e8610d7f565b16600052600260205260406000209081541661030660018301610e9b565b9161031360028201610e9b565b60ff61034d600460038501549401549261033f604051978897885260c0602089015260c0880190610f41565b908682036040880152610f41565b9261035d60608601838316610f81565b60081c161515608084015260a08301520390f35b3461013c5761037f36610dc3565b9060018060a01b0316600052600260205260036040600020015460ff8160081c1690816103b4575b6020826040519015158152f35b60ff9150169060058110156103d65760058210156103d65760209114826103a7565b634e487b7160e01b600052602160045260246000fd5b3461013c57602036600319011261013c5760043560035481101561013c57610415602091610df2565b905460405160039290921b1c6001600160a01b03168152f35b3461013c5761043c36610dc3565b60005490916001600160a01b03918216331480156104fc575b61045e90610f8e565b169081600052600260205261048060ff60036040600020015460081c166110f2565b60058110156103d6576060816104b87fbb3864d65ad50221bf63f66d2c877516c2a835e23ebcdaee64d6743d2e7731fc931515611026565b8360005260026020526104f36003604060002001916104dc8160ff855416946110b9565b6104e96040518094610f81565b6020830190610f81565b426040820152a2005b5033600052600260205260ff6003604060002001541660058110156103d657600414610455565b3461013c57600036600319011261013c576000546040516001600160a01b039091168152602090f35b3461013c5760208060031936011261013c57610566610d7f565b6000546001600160a01b03919082163314801561068a575b61058790610f8e565b1690816000526002815260ff60036040600020015460081c1661064657816000526002815260046040600020015415610602577f8bedfcaf07943f5e64ad4f1ab6722dc18560055d0a45ad0599329dbc9c4bd08e908260005260028152600360406000200161010061ff0019825416179055604051428152a2005b6064906040519062461bcd60e51b82526004820152601d60248201527f416363657373436f6e74726f6c3a206e6f7420726567697374657265640000006044820152fd5b6064906040519062461bcd60e51b82526004820152601d60248201527f416363657373436f6e74726f6c3a20616c7265616479206163746976650000006044820152fd5b50336000526002835260ff6003604060002001541660058110156103d65760041461057e565b3461013c57602036600319011261013c576001600160a01b036106d1610d7f565b166000526002602052602060ff60036040600020015460081c166040519015158152f35b3461013c5760208060031936011261013c5761070f610d7f565b6000546001600160a01b03908116929133841480156107f0575b61073290610f8e565b1691826000526002825261075360ff60036040600020015460081c166110f2565b821461079d577fb338ca22c5ba1f33b3ab132791def695963ed794f28e40191ee1bfa4b355f0b5908260005260028152600360406000200161ff00198154169055604051428152a2005b6084906040519062461bcd60e51b82526004820152602660248201527f416363657373436f6e74726f6c3a2063616e6e6f7420646561637469766174656044820152651037bbb732b960d11b6064820152fd5b50336000526002835260ff6003604060002001541660058110156103d657600414610729565b3461013c57608036600319011261013c5761082f610d7f565b60243567ffffffffffffffff811161013c5761084f903690600401610d95565b9060443567ffffffffffffffff811161013c57610870903690600401610d95565b92906005606435101561013c576000546001600160a01b031633148015610d58575b61089b90610f8e565b6108af6001600160a01b0386161515610fda565b6001600160a01b03851660009081526002602052604090206003015460081c60ff16610d09576108e26064351515611026565b6040518060c081011067ffffffffffffffff60c083011117610b535760c081016040526001600160a01b038616815261091c368486611072565b602082015261092c368684611072565b60408201526064356060820152600160808201524260a082015260018060a01b038616600052600260205260406000209060018060a01b038151166bffffffffffffffffffffffff60a01b835416178255602081015180519067ffffffffffffffff8211610b535781906109a36001860154610e3f565b601f8111610cb6575b50602090601f8311600114610c4457600092610c39575b50508160011b916000199060031b1c19161760018301555b604081015180519067ffffffffffffffff8211610b53578190610a016002860154610e3f565b601f8111610be6575b50602090601f8311600114610b7457600092610b69575b50508160011b916000199060031b1c19161760028301555b6060810151600383019160058210156103d65782610a5b60a0936004956110b9565b6080820151815461ff00191690151560081b61ff0016179055015191015560035468010000000000000000811015610b5357806001610a9d9201600355610df2565b81546001600160a01b0388811660039390931b92831b921b1916179055600154906000198214610b3d577f5be57917b18770220c2e6b1fd41805485de57550982c5fcc3fd89d580b3320e9946001610b189301600155610b0a6040519586956080875260808701916110d1565b9184830360208601526110d1565b93610b2860408301606435610f81565b4260608301526001600160a01b0316930390a2005b634e487b7160e01b600052601160045260246000fd5b634e487b7160e01b600052604160045260246000fd5b015190508980610a21565b9250600285016000526020600020906000935b601f1984168510610bcb576001945083601f19811610610bb2575b505050811b016002830155610a39565b015160001960f88460031b161c19169055898080610ba2565b81810151835560209485019460019093019290910190610b87565b909150600285016000526020600020601f840160051c810160208510610c32575b90849392915b601f830160051c82018110610c23575050610a0a565b60008155859450600101610c0d565b5080610c07565b0151905089806109c3565b9250600185016000526020600020906000935b601f1984168510610c9b576001945083601f19811610610c82575b505050811b0160018301556109db565b015160001960f88460031b161c19169055898080610c72565b81810151835560209485019460019093019290910190610c57565b909150600185016000526020600020601f840160051c810160208510610d02575b90849392915b601f830160051c82018110610cf35750506109ac565b60008155859450600101610cdd565b5080610cd7565b60405162461bcd60e51b815260206004820152602160248201527f416363657373436f6e74726f6c3a20616c7265616479207265676973746572656044820152601960fa1b6064820152608490fd5b5033600052600260205260ff6003604060002001541660058110156103d657600414610892565b600435906001600160a01b038216820361013c57565b9181601f8401121561013c5782359167ffffffffffffffff831161013c576020838186019501011161013c57565b604090600319011261013c576004356001600160a01b038116810361013c5790602435600581101561013c5790565b600354811015610e295760036000527fc2575a0e9e593c00f959f8c92f12db2869c3395a3b0502d05e2516446f71f85b0190600090565b634e487b7160e01b600052603260045260246000fd5b90600182811c92168015610e6f575b6020831014610e5957565b634e487b7160e01b600052602260045260246000fd5b91607f1691610e4e565b90601f8019910116810190811067ffffffffffffffff821117610b5357604052565b9060405191826000825492610eaf84610e3f565b908184526001948581169081600014610f1e5750600114610edb575b5050610ed992500383610e79565b565b9093915060005260209081600020936000915b818310610f06575050610ed993508201013880610ecb565b85548884018501529485019487945091830191610eee565b915050610ed994506020925060ff191682840152151560051b8201013880610ecb565b919082519283825260005b848110610f6d575050826000602080949584010152601f8019910116010190565b602081830181015184830182015201610f4c565b9060058210156103d65752565b15610f9557565b60405162461bcd60e51b815260206004820152601860248201527f416363657373436f6e74726f6c3a206e6f742061646d696e00000000000000006044820152606490fd5b15610fe157565b60405162461bcd60e51b815260206004820152601b60248201527f416363657373436f6e74726f6c3a207a65726f206164647265737300000000006044820152606490fd5b1561102d57565b60405162461bcd60e51b815260206004820152601b60248201527f416363657373436f6e74726f6c3a20696e76616c696420726f6c6500000000006044820152606490fd5b92919267ffffffffffffffff8211610b53576040519161109c601f8201601f191660200184610e79565b82948184528183011161013c578281602093846000960137010152565b9060058110156103d65760ff80198354169116179055565b908060209392818452848401376000828201840152601f01601f1916010190565b156110f957565b60405162461bcd60e51b815260206004820152601960248201527f416363657373436f6e74726f6c3a206e6f7420616374697665000000000000006044820152606490fdfea264697066735822122011afe3e4284b2efe84c1c44b065151058c0ebf50f6d9815f5364555e40df9e4864736f6c63430008140033",
  "linkReferences": {},
  "deployedLinkReferences": {}
}