{
  "_format": "hh-sol-artifact-1",
  "contractName": "SnackShieldToken",
  "sourceName": "contracts/SnackShieldToken.sol",
  "abi": [
    {
      "inputs": [],
      "stateMutability": "nonpayable",
      "type": "constructor"
    },
    {
      "anonymous": false,
      "inputs": [
        {
          "indexed": true,
          "internalType": "address",
          "name": "owner",
          "type": "address"
        },
        {
          "indexed": true,
          "internalType": "address",
          "name": "spender",
          "type": "address"
        },
        {
          "indexed": false,
          "internalType": "uint256",
          "name": "value",
          "type": "uint256"
        }
      ],
      "name": "Approval",
      "type": "event"
    },
    {
      "anonymous": false,
      "inputs": [
        {
          "indexed": true,
          "internalType": "address",
          "name": "minter",
          "type": "address"
        },
        {
          "indexed": false,
          "internalType": "bool",
          "name": "status",
          "type": "bool"
        }
      ],
      "name": "MinterUpdated",
      "type": "event"
    },
    {
      "anonymous": false,
      "inputs": [
        {
          "indexed": true,
          "internalType": "address",
          "name": "to",
          "type": "address"
        },
        {
          "indexed": false,
          "internalType": "uint256",
          "name": "amount",
          "type": "uint256"
        },
        {
          "indexed": false,
          "internalType": "string",
          "name": "reason",
          "type": "string"
        }
      ],
      "name": "RewardMinted",
      "type": "event"
    },
    {
      "anonymous": false,
      "inputs": [
        {
          "indexed": true,
          "internalType": "address",
          "name": "from",
          "type": "address"
        },
        {
          "indexed": true,
          "internalType": "address",
          "name": "to",
          "type": "address"
        },
        {
          "indexed": false,
          "internalType": "uint256",
          "name": "value",
          "type": "uint256"
        }
      ],
      "name": "Transfer",
      "type": "event"
    },
    {
      "inputs": [
        {
          "internalType": "address",
          "name": "",
          "type": "address"
        },
        {
          "internalType": "address",
          "name": "",
          "type": "address"
        }
      ],
      "name": "allowance",
      "outputs": [
        {
          "internalType": "uint256",
          "name": "",
          "type": "uint256"
        }
      ],
      "stateMutability": "view",
      "type": "function"
    },
    {
      "inputs": [
        {
          "internalType": "address",
          "name": "_spender",
          "type": "address"
        },
        {
          "internalType": "uint256",
          "name": "_value",
          "type": "uint256"
        }
      ],
      "name": "approve",
      "outputs": [
        {
          "internalType": "bool",
          "name": "",
          "type": "bool"
        }
      ],
      "stateMutability": "nonpayable",
      "type": "function"
    },
    {
      "inputs": [
        {
          "internalType": "address",
          "name": "",
          "type": "address"
        }
      ],
      "name": "balanceOf",
      "outputs": [
        {
          "internalType": "uint256",
          "name": "",
          "type": "uint256"
        }
      ],
      "stateMutability": "view",
      "type": "function"
    },
    {
      "inputs": [],
      "name": "decimals",
      "outputs": [
        {
          "internalType": "uint8",
          "name": "",
          "type": "uint8"
        }
      ],
      "stateMutability": "view",
      "type": "function"
    },
    {
      "inputs": [],
      "name": "journeyReward",
      "outputs": [
        {
          "internalType": "uint256",
          "name": "",
          "type": "uint256"
        }
      ],
      "stateMutability": "view",
      "type": "function"
    },
    {
      "inputs": [
        {
          "internalType": "address",
          "name": "_to",
          "type": "address"
        },
        {
          "internalType": "uint256",
          "name": "_amount",
          "type": "uint256"
        }
      ],
      "name": "mint",
      "outputs": [],
      "stateMutability": "nonpayable",
      "type": "function"
    },
    {
      "inputs": [
        {
          "internalType": "address",
          "name": "_to",
          "type": "address"
        }
      ],
      "name": "mintJourneyReward",
      "outputs": [],
      "stateMutability": "nonpayable",
      "type": "function"
    },
    {
      "inputs": [
        {
          "internalType": "address",
          "name": "_to",
          "type": "address"
        }
      ],
      "name": "mintRegistrationReward",
      "outputs": [],
      "stateMutability": "nonpayable",
      "type": "function"
    },
    {
      "inputs": [
        {
          "internalType": "address",
          "name": "_to",
          "type": "address"
        }
      ],
      "name": "mintScanReward",
      "outputs": [],
      "stateMutability": "nonpayable",
      "type": "function"
    },
    {
      "inputs": [
        {
          "internalType": "address",
          "name": "",
          "type": "address"
        }
      ],
      "name": "minters",
      "outputs": [
        {
          "internalType": "bool",
          "name": "",
          "type": "bool"
        }
      ],
      "stateMutability": "view",
      "type": "function"
    },
    {
      "inputs": [],
      "name": "name",
      "outputs": [
        {
          "internalType": "string",
          "name": "",
          "type": "string"
        }
      ],
      "stateMutability": "view",
      "type": "function"
    },
    {
      "inputs": [],
      "name": "owner",
      "outputs": [
        {
          "internalType": "address",
          "name": "",
          "type": "address"
        }
      ],
      "stateMutability": "view",
      "type": "function"
    },
    {
      "inputs": [],
      "name": "registrationReward",
      "outputs": [
        {
          "internalType": "uint256",
          "name": "",
          "type": "uint256"
        }
      ],
      "stateMutability": "view",
      "type": "function"
    },
    {
      "inputs": [],
      "name": "scanReward",
      "outputs": [
        {
          "internalType": "uint256",
          "name": "",
          "type": "uint256"
        }
      ],
      "stateMutability": "view",
      "type": "function"
    },
    {
      "inputs": [
        {
          "internalType": "address",
          "name": "_minter",
          "type": "address"
        },
        {
          "internalType": "bool",
          "name": "_status",
          "type": "bool"
        }
      ],
      "name": "setMinter",
      "outputs": [],
      "stateMutability": "nonpayable",
      "type": "function"
    },
    {
      "inputs": [],
      "name": "symbol",
      "outputs": [
        {
          "internalType": "string",
          "name": "",
          "type": "string"
        }
      ],
      "stateMutability": "view",
      "type": "function"
    },
    {
      "inputs": [],
      "name": "totalSupply",
      "outputs": [
        {
          "internalType": "uint256",
          "name": "",
          "type": "uint256"
        }
      ],
      "stateMutability": "view",
      "type": "function"
    },
    {
      "inputs": [
        {
          "internalType": "address",
          "name": "_to",
          "type": "address"
        },
        {
          "internalType": "uint256",
          "name": "_value",
          "type": "uint256"
        }
      ],
      "name": "transfer",
      "outputs": [
        {
          "internalType": "bool",
          "name": "",
          "type": "bool"
        }
      ],
      "stateMutability": "nonpayable",
      "type": "function"
    },
    {
      "inputs": [
        {
          "internalType": "address",
          "name": "_from",
          "type": "address"
        },
        {
          "internalType": "address",
          "name": "_to",
          "type": "address"
        },
        {
          "internalType": "uint256",
          "name": "_value",
          "type": "uint256"
        }
      ],
      "name": "transferFrom",
      "outputs": [
        {
          "internalType": "bool",
          "name": "",
          "type": "bool"
        }
      ],
      "stateMutability": "nonpayable",
      "type": "function"
    },
    {
      "inputs": [
        {
          "internalType": "address",
          "name": "_newOwner",
          "type": "address"
        }
      ],
      "name": "transferOwnership",
      "outputs": [],
      "stateMutability": "nonpayable",
      "type": "function"
    },
    {
      "inputs": [
        {
          "internalType": "uint256",
          "name": "_scanReward",
          "type": "uint256"
        },
        {
          "internalType": "uint256",
          "name": "_journeyReward",
          "type": "uint256"
        },
        {
          "internalType": "uint256",
          "name": "_registrationReward",
          "type": "uint256"
        }
      ],
      "name": "updateRewards",
      "outputs": [],
      "stateMutability": "nonpayable",
      "type": "function"
    }
  ],
  "bytecode": "0x6080806040523461009957678ac7230489e8000060045568015af1d78b58c400006005556802b5e3af16b18800006006553360018060a01b0319600154161760015533600052600260205269d3c21bcecceda10000008060406000205580600055815260007fddf252ad1be2c89b69c2b068fc378daa952ba7f163c4a11628f55a4df523b3ef60203393a3604051610c00908161009f8239f35b600080fdfe608060408181526004918236101561001657600080fd5b600092833560e01c91826306fdde031461090f57508163095ea7b31461089e57816318160ddd1461088157816323b872dd1461074c578163270562361461068c578163313ce56714610670578163375033811461065157816340c10f191461061157816370a08231146105d957816378d7bcc214610519578163865909f6146104fa5781638da5cb5b146104d157816395d89b411461046c578163a9059cbb146103c1578163b2168085146103a3578163b37f259014610368578163cf456ae7146102df578163dd62ed3e14610296578163eea86459146101d8578163f2fde38b1461014c575063f46eccc41461010c57600080fd5b346101485760203660031901126101485760209160ff9082906001600160a01b036101356109ad565b1681526007855220541690519015158152f35b5080fd5b9050346101d45760203660031901126101d4576101676109ad565b60015491906001600160a01b03906101823383861614610ae4565b1692831561019d5750506001600160a01b0319161760015580f35b906020606492519162461bcd60e51b835282015260116024820152705353543a207a65726f206164647265737360781b6044820152fd5b8280fd5b9050346101d45760203660031901126101d45760807f765f02a4009bbabeb5bcacb42308293ab54fa68b299d9cf67bc945e839be9660916102176109ad565b6001546001600160a01b0392601991841633148015610281575b61023a90610aa6565b610245815484610b21565b549580519687528060208801528601527f50726f64756374207363616e20766572696669636174696f6e0000000000000060608601521692a280f35b5033885260076020528688205460ff16610231565b505034610148578060031936011261014857806020926102b46109ad565b6102bc6109c8565b6001600160a01b0391821683526003865283832091168252845220549051908152f35b5050346101485780600319360112610148576102f96109ad565b60243590811515809203610364577fb21afb9ce9be0a676f8f317ff0ca072fb89a4f8ce2d1b6fe80f8755c14f1cb199160209160018060a01b039061034382600154163314610ae4565b16938486526007835280862060ff1981541660ff841617905551908152a280f35b8380fd5b8390346101485760603660031901126101485761039060018060a01b03600154163314610ae4565b8035905560243560055560443560065580f35b9050346101d457826003193601126101d45760209250549051908152f35b5050346101485780600319360112610148576020916103de6109ad565b6001600160a01b0316906024359083906103f98415156109de565b3381526002865261040f83838320541015610a2a565b33815260028652818120610424848254610a76565b90558381526002865220610439828254610a99565b905582519081527fddf252ad1be2c89b69c2b068fc378daa952ba7f163c4a11628f55a4df523b3ef843392a35160018152f35b8383346101485781600319360112610148578051918183019083821067ffffffffffffffff8311176104be57506104ba93508152600382526214d4d560ea1b60208301525191829182610964565b0390f35b634e487b7160e01b815260418552602490fd5b50503461014857816003193601126101485760015490516001600160a01b039091168152602090f35b5050346101485781600319360112610148576020906006549051908152f35b505034610148576020366003190112610148577f765f02a4009bbabeb5bcacb42308293ab54fa68b299d9cf67bc945e839be966060806105576109ad565b6001546001600160a01b0391908216331480156105c4575b61057890610aa6565b61058460065482610b21565b601b6006549580519687528060208801528601527f50726f647563742072656769737465726564206f6e2d636861696e000000000060608601521692a280f35b5033865260076020528486205460ff1661056f565b5050346101485760203660031901126101485760209181906001600160a01b036106016109ad565b1681526002845220549051908152f35b5050346101485736600319011261064e5761064b61062d6109ad565b61064260018060a01b03600154163314610ae4565b60243590610b21565b80f35b80fd5b5050346101485781600319360112610148576020906005549051908152f35b5050346101485781600319360112610148576020905160128152f35b505034610148576020366003190112610148577f765f02a4009bbabeb5bcacb42308293ab54fa68b299d9cf67bc945e839be966060806106ca6109ad565b6001546001600160a01b039190821633148015610737575b6106eb90610aa6565b6106f760055482610b21565b60196005549580519687528060208801528601527f4a6f75726e657920636865636b706f696e74206c6f676765640000000000000060608601521692a280f35b5033865260076020528486205460ff166106e2565b82843461064e57606036600319011261064e576107676109ad565b906107706109c8565b6001600160a01b0390811692604435919061078c8515156109de565b1691828152602095600287526107a783878420541015610a2a565b83825260038752858220338352875282868320541061083e57507fddf252ad1be2c89b69c2b068fc378daa952ba7f163c4a11628f55a4df523b3ef91858285899452600284528181206107fb848254610a76565b905586815260028452818120610812848254610a99565b90558581526003845281812033825284522061082f828254610a76565b90558551908152a35160018152f35b855162461bcd60e51b8152908101879052601b60248201527f5353543a20696e73756666696369656e7420616c6c6f77616e636500000000006044820152606490fd5b505034610148578160031936011261014857602091549051908152f35b505034610148578060031936011261014857602091816108bc6109ad565b91602435918291338152600387528181209460018060a01b0316948582528752205582519081527f8c5be1e5ebec7d5bd14f71427d1e84f3dd0314c0f7b2291e5b200ac8c7c3b925843392a35160018152f35b83853461064e578060031936011261064e578183019083821067ffffffffffffffff8311176104be57506104ba93508152601182527029b730b1b5a9b434b2b632102a37b5b2b760791b602083015251918291825b6020808252825181830181905290939260005b82811061099957505060409293506000838284010152601f8019910116010190565b818101860151848201604001528501610977565b600435906001600160a01b03821682036109c357565b600080fd5b602435906001600160a01b03821682036109c357565b156109e557565b60405162461bcd60e51b815260206004820152601d60248201527f5353543a207472616e7366657220746f207a65726f20616464726573730000006044820152606490fd5b15610a3157565b60405162461bcd60e51b815260206004820152601960248201527f5353543a20696e73756666696369656e742062616c616e6365000000000000006044820152606490fd5b91908203918211610a8357565b634e487b7160e01b600052601160045260246000fd5b91908201809211610a8357565b15610aad57565b60405162461bcd60e51b815260206004820152600f60248201526e29a9aa1d103737ba1036b4b73a32b960891b6044820152606490fd5b15610aeb57565b60405162461bcd60e51b815260206004820152600e60248201526d29a9aa1d103737ba1037bbb732b960911b6044820152606490fd5b6001600160a01b0316908115610b85577fddf252ad1be2c89b69c2b068fc378daa952ba7f163c4a11628f55a4df523b3ef602082610b626000948554610a99565b84558484526002825260408420610b7a828254610a99565b9055604051908152a3565b60405162461bcd60e51b815260206004820152601960248201527f5353543a206d696e7420746f207a65726f2061646472657373000000000000006044820152606490fdfea26469706673582212203385f95b237eb5ea6885d83de768536e41ed25f0aa2ee768356016396377fff364736f6c63430008140033",
  "linkReferences": {},
  "deployedLinkReferences": {}
}