{"contracts/SnackShieldToken.sol":{"SnackShieldToken":{"abi":[{"inputs":[],"stateMutability":"nonpayable","type":"constructor"},{"anonymous":false,"inputs":[{"indexed":true,"internalType":"address","name":"owner","type":"address"},{"indexed":true,"internalType":"address","name":"spender","type":"address"},{"indexed":false,"internalType":"uint256","name":"value","type":"uint256"}],"name":"Approval","type":"event"},{"anonymous":false,"inputs":[{"indexed":true,"internalType":"address","name":"minter","type":"address"},{"indexed":false,"internalType":"bool","name":"status","type":"bool"}],"name":"MinterUpdated","type":"event"},{"anonymous":false,"inputs":[{"indexed":true,"internalType":"address","name":"to","type":"address"},{"indexed":false,"internalType":"uint256","name":"amount","type":"uint256"},{"indexed":false,"internalType":"string","name":"reason","type":"string"}],"name":"RewardMinted","type":"event"},{"anonymous":false,"inputs":[{"indexed":true,"internalType":"address","name":"from","type":"address"},{"indexed":true,"internalType":"address","name":"to","type":"address"},{"indexed":false,"internalType":"uint256","name":"value","type":"uint256"}],"name":"Transfer","type":"event"},{"inputs":[{"internalType":"address","name":"","type":"address"},{"internalType":"address","name":"","type":"address"}],"name":"allowance","outputs":[{"internalType":"uint256","name":"","type":"uint256"}],"stateMutability":"view","type":"function"},{"inputs":[{"internalType":"address","name":"_spender","type":"address"},{"internalType":"uint256","name":"_value","type":"uint256"}],"name":"approve","outputs":[{"internalType":"bool","name":"","type":"bool"}],"stateMutability":"nonpayable","type":"function"},{"inputs":[{"internalType":"address","name":"","type":"address"}],"name":"balanceOf","outputs":[{"internalType":"uint256","name":"","type":"uint256"}],"stateMutability":"view","type":"function"},{"inputs":[],"name":"decimals","outputs":[{"internalType":"uint8","name":"","type":"uint8"}],"stateMutability":"view","type":"function"},{"inputs":[],"name":"journeyReward","outputs":[{"internalType":"uint256","name":"","type":"uint256"}],"stateMutability":"view","type":"function"},{"inputs":[{"internalType":"address","name":"_to","type":"address"},{"internalType":"uint256","name":"_amount","type":"uint256"}],"name":"mint","outputs":[],"stateMutability":"nonpayable","type":"function"},{"inputs":[{"internalType":"address","name":"_to","type":"address"}],"name":"mintJourneyReward","outputs":[],"stateMutability":"nonpayable","type":"function"},{"inputs":[{"internalType":"address","name":"_to","type":"address"}],"name":"mintRegistrationReward","outputs":[],"stateMutability":"nonpayable","type":"function"},{"inputs":[{"internalType":"address","name":"_to","type":"address"}],"name":"mintScanReward","outputs":[],"stateMutability":"nonpayable","type":"function"},{"inputs":[{"internalType":"address","name":"","type":"address"}],"name":"minters","outputs":[{"internalType":"bool","name":"","type":"bool"}],"stateMutability":"view","type":"function"},{"inputs":[],"name":"name","outputs":[{"internalType":"string","name":"","type":"string"}],"stateMutability":"view","type":"function"},{"inputs":[],"name":"owner","outputs":[{"internalType":"address","name":"","type":"address"}],"stateMutability":"view","type":"function"},{"inputs":[],"name":"registrationReward","outputs":[{"internalType":"uint256","name":"","type":"uint256"}],"stateMutability":"view","type":"function"},{"inputs":[],"name":"scanReward","outputs":[{"internalType":"uint256","name":"","type":"uint256"}],"stateMutability":"view","type":"function"},{"inputs":[{"internalType":"address","name":"_minter","type":"address"},{"internalType":"bool","name":"_status","type":"bool"}],"name":"setMinter","outputs":[],"stateMutability":"nonpayable","type":"function"},{"inputs":[],"name":"symbol","outputs":[{"internalType":"string","name":"","type":"string"}],"stateMutability":"view","type":"function"},{"inputs":[],"name":"totalSupply","outputs":[{"internalType":"uint256","name":"","type":"uint256"}],"stateMutability":"view","type":"function"},{"inputs":[{"internalType":"address","name":"_to","type":"address"},{"internalType":"uint256","name":"_value","type":"uint256"}],"name":"transfer","outputs":[{"internalType":"bool","name":"","type":"bool"}],"stateMutability":"nonpayable","type":"function"},{"inputs":[{"internalType":"address","name":"_from","type":"address"},{"internalType":"address","name":"_to","type":"address"},{"internalType":"uint256","name":"_value","type":"uint256"}],"name":"transferFrom","outputs":[{"internalType":"bool","name":"","type":"bool"}],"stateMutability":"nonpayable","type":"function"},{"inputs":[{"internalType":"address","name":"_newOwner","type":"address"}],"name":"transferOwnership","outputs":[],"stateMutability":"nonpayable","type":"function"},{"inputs":[{"internalType":"uint256","name":"_scanReward","type":"uint256"},{"internalType":"uint256","name":"_journeyReward","type":"uint256"},{"internalType":"uint256","name":"_registrationReward","type":"uint256"}],"name":"updateRewards","outputs":[],"stateMutability":"nonpayable","type":"function"}],"evm":{"bytecode":{"linkReferences":{},"object":"6080806040523461009957678ac7230489e8000060045568015af1d78b58c400006005556802b5e3af16b18800006006553360018060a01b0319600154161760015533600052600260205269d3c21bcecceda10000008060406000205580600055815260007fddf252ad1be2c89b69c2b068fc378daa952ba7f163c4a11628f55a4df523b3ef60203393a3604051610c00908161009f8239f35b600080fdfe608060408181526004918236101561001657600080fd5b600092833560e01c91826306fdde031461090f57508163095ea7b31461089e57816318160ddd1461088157816323b872dd1461074c578163270562361461068c578163313ce56714610670578163375033811461065157816340c10f191461061157816370a08231146105d957816378d7bcc214610519578163865909f6146104fa5781638da5cb5b146104d157816395d89b411461046c578163a9059cbb146103c1578163b2168085146103a3578163b37f259014610368578163cf456ae7146102df578163dd62ed3e14610296578163eea86459146101d8578163f2fde38b1461014c575063f46eccc41461010c57600080fd5b346101485760203660031901126101485760209160ff9082906001600160a01b036101356109ad565b1681526007855220541690519015158152f35b5080fd5b9050346101d45760203660031901126101d4576101676109ad565b60015491906001600160a01b03906101823383861614610ae4565b1692831561019d5750506001600160a01b0319161760015580f35b906020606492519162461bcd60e51b835282015260116024820152705353543a207a65726f206164647265737360781b6044820152fd5b8280fd5b9050346101d45760203660031901126101d45760807f765f02a4009bbabeb5bcacb42308293ab54fa68b299d9cf67bc945e839be9660916102176109ad565b6001546001600160a01b0392601991841633148015610281575b61023a90610aa6565b610245815484610b21565b549580519687528060208801528601527f50726f64756374207363616e20766572696669636174696f6e0000000000000060608601521692a280f35b5033885260076020528688205460ff16610231565b505034610148578060031936011261014857806020926102b46109ad565b6102bc6109c8565b6001600160a01b0391821683526003865283832091168252845220549051908152f35b5050346101485780600319360112610148576102f96109ad565b60243590811515809203610364577fb21afb9ce9be0a676f8f317ff0ca072fb89a4f8ce2d1b6fe80f8755c14f1cb199160209160018060a01b039061034382600154163314610ae4565b16938486526007835280862060ff1981541660ff841617905551908152a280f35b8380fd5b8390346101485760603660031901126101485761039060018060a01b03600154163314610ae4565b8035905560243560055560443560065580f35b9050346101d457826003193601126101d45760209250549051908152f35b5050346101485780600319360112610148576020916103de6109ad565b6001600160a01b0316906024359083906103f98415156109de565b3381526002865261040f83838320541015610a2a565b33815260028652818120610424848254610a76565b90558381526002865220610439828254610a99565b905582519081527fddf252ad1be2c89b69c2b068fc378daa952ba7f163c4a11628f55a4df523b3ef843392a35160018152f35b8383346101485781600319360112610148578051918183019083821067ffffffffffffffff8311176104be57506104ba93508152600382526214d4d560ea1b60208301525191829182610964565b0390f35b634e487b7160e01b815260418552602490fd5b50503461014857816003193601126101485760015490516001600160a01b039091168152602090f35b5050346101485781600319360112610148576020906006549051908152f35b505034610148576020366003190112610148577f765f02a4009bbabeb5bcacb42308293ab54fa68b299d9cf67bc945e839be966060806105576109ad565b6001546001600160a01b0391908216331480156105c4575b61057890610aa6565b61058460065482610b21565b601b6006549580519687528060208801528601527f50726f647563742072656769737465726564206f6e2d636861696e000000000060608601521692a280f35b5033865260076020528486205460ff1661056f565b5050346101485760203660031901126101485760209181906001600160a01b036106016109ad565b1681526002845220549051908152f35b5050346101485736600319011261064e5761064b61062d6109ad565b61064260018060a01b03600154163314610ae4565b60243590610b21565b80f35b80fd5b5050346101485781600319360112610148576020906005549051908152f35b5050346101485781600319360112610148576020905160128152f35b505034610148576020366003190112610148577f765f02a4009bbabeb5bcacb42308293ab54fa68b299d9cf67bc945e839be966060806106ca6109ad565b6001546001600160a01b039190821633148015610737575b6106eb90610aa6565b6106f760055482610b21565b60196005549580519687528060208801528601527f4a6f75726e657920636865636b706f696e74206c6f676765640000000000000060608601521692a280f35b5033865260076020528486205460ff166106e2565b82843461064e57606036600319011261064e576107676109ad565b906107706109c8565b6001600160a01b0390811692604435919061078c8515156109de565b1691828152602095600287526107a783878420541015610a2a565b83825260038752858220338352875282868320541061083e57507fddf252ad1be2c89b69c2b068fc378daa952ba7f163c4a11628f55a4df523b3ef91858285899452600284528181206107fb848254610a76565b905586815260028452818120610812848254610a99565b90558581526003845281812033825284522061082f828254610a76565b90558551908152a35160018152f35b855162461bcd60e51b8152908101879052601b60248201527f5353543a20696e73756666696369656e7420616c6c6f77616e636500000000006044820152606490fd5b505034610148578160031936011261014857602091549051908152f35b505034610148578060031936011261014857602091816108bc6109ad565b91602435918291338152600387528181209460018060a01b0316948582528752205582519081527f8c5be1e5ebec7d5bd14f71427d1e84f3dd0314c0f7b2291e5b200ac8c7c3b925843392a35160018152f35b83853461064e578060031936011261064e578183019083821067ffffffffffffffff8311176104be57506104ba93508152601182527029b730b1b5a9b434b2b632102a37b5b2b760791b602083015251918291825b6020808252825181830181905290939260005b82811061099957505060409293506000838284010152601f8019910116010190565b818101860151848201604001528501610977565b600435906001600160a01b03821682036109c357565b600080fd5b602435906001600160a01b03821682036109c357565b156109e557565b60405162461bcd60e51b815260206004820152601d60248201527f5353543a207472616e7366657220746f207a65726f20616464726573730000006044820152606490fd5b15610a3157565b60405162461bcd60e51b815260206004820152601960248201527f5353543a20696e73756666696369656e742062616c616e6365000000000000006044820152606490fd5b91908203918211610a8357565b634e487b7160e01b600052601160045260246000fd5b91908201809211610a8357565b15610aad57565b60405162461bcd60e51b815260206004820152600f60248201526e29a9aa1d103737ba1036b4b73a32b960891b6044820152606490fd5b15610aeb57565b60405162461bcd60e51b815260206004820152600e60248201526d29a9aa1d103737ba1037bbb732b960911b6044820152606490fd5b6001600160a01b0316908115610b85577fddf252ad1be2c89b69c2b068fc378daa952ba7f163c4a11628f55a4df523b3ef602082610b626000948554610a99565b84558484526002825260408420610b7a828254610a99565b9055604051908152a3565b60405162461bcd60e51b815260206004820152601960248201527f5353543a206d696e7420746f207a65726f2061646472657373000000000000006044820152606490fdfea26469706673582212203385f95b237eb5ea6885d83de768536e41ed25f0aa2ee768356016396377fff364736f6c63430008140033","opcodes":"PUSH1 0x80 DUP1 PUSH1 0x40 MSTORE CALLVALUE PUSH2 0x99 JUMPI PUSH8 0x8AC7230489E80000 PUSH1 0x4 SSTORE PUSH9 0x15AF1D78B58C40000 PUSH1 0x5 SSTORE PUSH9 0x2B5E3AF16B1880000 PUSH1 0x6 SSTORE CALLER PUSH1 0x1 DUP1 PUSH1 0xA0 SHL SUB NOT PUSH1 0x1 SLOAD AND OR PUSH1 0x1 SSTORE CALLER PUSH1 0x0 MSTORE PUSH1 0x2 PUSH1 0x20 MSTORE PUSH10 0xD3C21BCECCEDA1000000 DUP1 PUSH1 0x40 PUSH1 0x0 KECCAK256 SSTORE DUP1 PUSH1 0x0 SSTORE DUP2 MSTORE PUSH1 0x0 PUSH32 0xDDF252AD1BE2C89B69C2B068FC378DAA952BA7F163C4A11628F55A4DF523B3EF PUSH1 0x20 CALLER SWAP4 LOG3 PUSH1 0x40 MLOAD PUSH2 0xC00 SWAP1 DUP2 PUSH2 0x9F DUP3 CODECOPY RETURN JUMPDEST PUSH1 0x0 DUP1 REVERT INVALID PUSH1 0x80 PUSH1 0x40 DUP2 DUP2 MSTORE PUSH1 0x4 SWAP2 DUP3 CALLDATASIZE LT ISZERO PUSH2 0x16 JUMPI PUSH1 0x0 DUP1 REVERT JUMPDEST PUSH1 0x0 SWAP3 DUP4 CALLDATALOAD PUSH1 0xE0 SHR SWAP2 DUP3 PUSH4 0x6FDDE03 EQ PUSH2 0x90F JUMPI POP DUP2 PUSH4 0x95EA7B3 EQ PUSH2 0x89E JUMPI DUP2 PUSH4 0x18160DDD EQ PUSH2 0x881 JUMPI DUP2 PUSH4 0x23B872DD EQ PUSH2 0x74C JUMPI DUP2 PUSH4 0x27056236 EQ PUSH2 0x68C JUMPI DUP2 PUSH4 0x313CE567 EQ PUSH2 0x670 JUMPI DUP2 PUSH4 0x37503381 EQ PUSH2 0x651 JUMPI DUP2 PUSH4 0x40C10F19 EQ PUSH2 0x611 JUMPI DUP2 PUSH4 0x70A08231 EQ PUSH2 0x5D9 JUMPI DUP2 PUSH4 0x78D7BCC2 EQ PUSH2 0x519 JUMPI DUP2 PUSH4 0x865909F6 EQ PUSH2 0x4FA JUMPI DUP2 PUSH4 0x8DA5CB5B EQ PUSH2 0x4D1 JUMPI DUP2 PUSH4 0x95D89B41 EQ PUSH2 0x46C JUMPI DUP2 PUSH4 0xA9059CBB EQ PUSH2 0x3C1 JUMPI DUP2 PUSH4 0xB2168085 EQ PUSH2 0x3A3 JUMPI DUP2 PUSH4 0xB37F2590 EQ PUSH2 0x368 JUMPI DUP2 PUSH4 0xCF456AE7 EQ PUSH2 0x2DF JUMPI DUP2 PUSH4 0xDD62ED3E EQ PUSH2 0x296 JUMPI DUP2 PUSH4 0xEEA86459 EQ PUSH2 0x1D8 JUMPI DUP2 PUSH4 0xF2FDE38B EQ PUSH2 0x14C JUMPI POP PUSH4 0xF46ECCC4 EQ PUSH2 0x10C JUMPI PUSH1 0x0 DUP1 REVERT JUMPDEST CALLVALUE PUSH2 0x148 JUMPI PUSH1 0x20 CALLDATASIZE PUSH1 0x3 NOT ADD SLT PUSH2 0x148 JUMPI PUSH1 0x20 SWAP2 PUSH1 0xFF SWAP1 DUP3 SWAP1 PUSH1 0x1 PUSH1 0x1 PUSH1 0xA0 SHL SUB PUSH2 0x135 PUSH2 0x9AD JUMP JUMPDEST AND DUP2 MSTORE PUSH1 0x7 DUP6 MSTORE KECCAK256 SLOAD AND SWAP1 MLOAD SWAP1 ISZERO ISZERO DUP2 MSTORE RETURN JUMPDEST POP DUP1 REVERT JUMPDEST SWAP1 POP CALLVALUE PUSH2 0x1D4 JUMPI PUSH1 0x20 CALLDATASIZE PUSH1 0x3 NOT ADD SLT PUSH2 0x1D4 JUMPI PUSH2 0x167 PUSH2 0x9AD JUMP JUMPDEST PUSH1 0x1 SLOAD SWAP2 SWAP1 PUSH1 0x1 PUSH1 0x1 PUSH1 0xA0 SHL SUB SWAP1 PUSH2 0x182 CALLER DUP4 DUP7 AND EQ PUSH2 0xAE4 JUMP JUMPDEST AND SWAP3 DUP4 ISZERO PUSH2 0x19D JUMPI POP POP PUSH1 0x1 PUSH1 0x1 PUSH1 0xA0 SHL SUB NOT AND OR PUSH1 0x1 SSTORE DUP1 RETURN JUMPDEST SWAP1 PUSH1 0x20 PUSH1 0x64 SWAP3 MLOAD SWAP2 PUSH3 0x461BCD PUSH1 0xE5 SHL DUP4 MSTORE DUP3 ADD MSTORE PUSH1 0x11 PUSH1 0x24 DUP3 ADD MSTORE PUSH17 0x5353543A207A65726F2061646472657373 PUSH1 0x78 SHL PUSH1 0x44 DUP3 ADD MSTORE REVERT JUMPDEST DUP3 DUP1 REVERT JUMPDEST SWAP1 POP CALLVALUE PUSH2 0x1D4 JUMPI PUSH1 0x20 CALLDATASIZE PUSH1 0x3 NOT ADD SLT PUSH2 0x1D4 JUMPI PUSH1 0x80 PUSH32 0x765F02A4009BBABEB5BCACB42308293AB54FA68B299D9CF67BC945E839BE9660 SWAP2 PUSH2 0x217 PUSH2 0x9AD JUMP JUMPDEST PUSH1 0x1 SLOAD PUSH1 0x1 PUSH1 0x1 PUSH1 0xA0 SHL SUB SWAP3 PUSH1 0x19 SWAP2 DUP5 AND CALLER EQ DUP1 ISZERO PUSH2 0x281 JUMPI JUMPDEST PUSH2 0x23A SWAP1 PUSH2 0xAA6 JUMP JUMPDEST PUSH2 0x245 DUP2 SLOAD DUP5 PUSH2 0xB21 JUMP JUMPDEST SLOAD SWAP6 DUP1 MLOAD SWAP7 DUP8 MSTORE DUP1 PUSH1 0x20 DUP9 ADD MSTORE DUP7 ADD MSTORE PUSH32 0x50726F64756374207363616E20766572696669636174696F6E00000000000000 PUSH1 0x60 DUP7 ADD MSTORE AND SWAP3 LOG2 DUP1 RETURN JUMPDEST POP CALLER DUP9 MSTORE PUSH1 0x7 PUSH1 0x20 MSTORE DUP7 DUP9 KECCAK256 SLOAD PUSH1 0xFF AND PUSH2 0x231 JUMP JUMPDEST POP POP CALLVALUE PUSH2 0x148 JUMPI DUP1 PUSH1 0x3 NOT CALLDATASIZE ADD SLT PUSH2 0x148 JUMPI DUP1 PUSH1 0x20 SWAP3 PUSH2 0x2B4 PUSH2 0x9AD JUMP JUMPDEST PUSH2 0x2BC PUSH2 0x9C8 JUMP JUMPDEST PUSH1 0x1 PUSH1 0x1 PUSH1 0xA0 SHL SUB SWAP2 DUP3 AND DUP4 MSTORE PUSH1 0x3 DUP7 MSTORE DUP4 DUP4 KECCAK256 SWAP2 AND DUP3 MSTORE DUP5 MSTORE KECCAK256 SLOAD SWAP1 MLOAD SWAP1 DUP2 MSTORE RETURN JUMPDEST POP POP CALLVALUE PUSH2 0x148 JUMPI DUP1 PUSH1 0x3 NOT CALLDATASIZE ADD SLT PUSH2 0x148 JUMPI PUSH2 0x2F9 PUSH2 0x9AD JUMP JUMPDEST PUSH1 0x24 CALLDATALOAD SWAP1 DUP2 ISZERO ISZERO DUP1 SWAP3 SUB PUSH2 0x364 JUMPI PUSH32 0xB21AFB9CE9BE0A676F8F317FF0CA072FB89A4F8CE2D1B6FE80F8755C14F1CB19 SWAP2 PUSH1 0x20 SWAP2 PUSH1 0x1 DUP1 PUSH1 0xA0 SHL SUB SWAP1 PUSH2 0x343 DUP3 PUSH1 0x1 SLOAD AND CALLER EQ PUSH2 0xAE4 JUMP JUMPDEST AND SWAP4 DUP5 DUP7 MSTORE PUSH1 0x7 DUP4 MSTORE DUP1 DUP7 KECCAK256 PUSH1 0xFF NOT DUP2 SLOAD AND PUSH1 0xFF DUP5 AND OR SWAP1 SSTORE MLOAD SWAP1 DUP2 MSTORE LOG2 DUP1 RETURN JUMPDEST DUP4 DUP1 REVERT JUMPDEST DUP4 SWAP1 CALLVALUE PUSH2 0x148 JUMPI PUSH1 0x60 CALLDATASIZE PUSH1 0x3 NOT ADD SLT PUSH2 0x148 JUMPI PUSH2 0x390 PUSH1 0x1 DUP1 PUSH1 0xA0 SHL SUB PUSH1 0x1 SLOAD AND CALLER EQ PUSH2 0xAE4 JUMP JUMPDEST DUP1 CALLDATALOAD SWAP1 SSTORE PUSH1 0x24 CALLDATALOAD PUSH1 0x5 SSTORE PUSH1 0x44 CALLDATALOAD PUSH1 0x6 SSTORE DUP1 RETURN JUMPDEST SWAP1 POP CALLVALUE PUSH2 0x1D4 JUMPI DUP3 PUSH1 0x3 NOT CALLDATASIZE ADD SLT PUSH2 0x1D4 JUMPI PUSH1 0x20 SWAP3 POP SLOAD SWAP1 MLOAD SWAP1 DUP2 MSTORE RETURN JUMPDEST POP POP CALLVALUE PUSH2 0x148 JUMPI DUP1 PUSH1 0x3 NOT CALLDATASIZE ADD SLT PUSH2 0x148 JUMPI PUSH1 0x20 SWAP2 PUSH2 0x3DE PUSH2 0x9AD JUMP JUMPDEST PUSH1 0x1 PUSH1 0x1 PUSH1 0xA0 SHL SUB AND SWAP1 PUSH1 0x24 CALLDATALOAD SWAP1 DUP4 SWAP1 PUSH2 0x3F9 DUP5 ISZERO ISZERO PUSH2 0x9DE JUMP JUMPDEST CALLER DUP2 MSTORE PUSH1 0x2 DUP7 MSTORE PUSH2 0x40F DUP4 DUP4 DUP4 KECCAK256 SLOAD LT ISZERO PUSH2 0xA2A JUMP JUMPDEST CALLER DUP2 MSTORE PUSH1 0x2 DUP7 MSTORE DUP2 DUP2 KECCAK256 PUSH2 0x424 DUP5 DUP3 SLOAD PUSH2 0xA76 JUMP JUMPDEST SWAP1 SSTORE DUP4 DUP2 MSTORE PUSH1 0x2 DUP7 MSTORE KECCAK256 PUSH2 0x439 DUP3 DUP3 SLOAD PUSH2 0xA99 JUMP JUMPDEST SWAP1 SSTORE DUP3 MLOAD SWAP1 DUP2 MSTORE PUSH32 0xDDF252AD1BE2C89B69C2B068FC378DAA952BA7F163C4A11628F55A4DF523B3EF DUP5 CALLER SWAP3 LOG3 MLOAD PUSH1 0x1 DUP2 MSTORE RETURN JUMPDEST DUP4 DUP4 CALLVALUE PUSH2 0x148 JUMPI DUP2 PUSH1 0x3 NOT CALLDATASIZE ADD SLT PUSH2 0x148 JUMPI DUP1 MLOAD SWAP2 DUP2 DUP4 ADD SWAP1 DUP4 DUP3 LT PUSH8 0xFFFFFFFFFFFFFFFF DUP4 GT OR PUSH2 0x4BE JUMPI POP PUSH2 0x4BA SWAP4 POP DUP2 MSTORE PUSH1 0x3 DUP3 MSTORE PUSH3 0x14D4D5 PUSH1 0xEA SHL PUSH1 0x20 DUP4 ADD MSTORE MLOAD SWAP2 DUP3 SWAP2 DUP3 PUSH2 0x964 JUMP JUMPDEST SUB SWAP1 RETURN JUMPDEST PUSH4 0x4E487B71 PUSH1 0xE0 SHL DUP2 MSTORE PUSH1 0x41 DUP6 MSTORE PUSH1 0x24 SWAP1 REVERT JUMPDEST POP POP CALLVALUE PUSH2 0x148 JUMPI DUP2 PUSH1 0x3 NOT CALLDATASIZE ADD SLT PUSH2 0x148 JUMPI PUSH1 0x1 SLOAD SWAP1 MLOAD PUSH1 0x1 PUSH1 0x1 PUSH1 0xA0 SHL SUB SWAP1 SWAP2 AND DUP2 MSTORE PUSH1 0x20 SWAP1 RETURN JUMPDEST POP POP CALLVALUE PUSH2 0x148 JUMPI DUP2 PUSH1 0x3 NOT CALLDATASIZE ADD SLT PUSH2 0x148 JUMPI PUSH1 0x20 SWAP1 PUSH1 0x6 SLOAD SWAP1 MLOAD SWAP1 DUP2 MSTORE RETURN JUMPDEST POP POP CALLVALUE PUSH2 0x148 JUMPI PUSH1 0x20 CALLDATASIZE PUSH1 0x3 NOT ADD SLT PUSH2 0x148 JUMPI PUSH32 0x765F02A4009BBABEB5BCACB42308293AB54FA68B299D9CF67BC945E839BE9660 PUSH1 0x80 PUSH2 0x557 PUSH2 0x9AD JUMP JUMPDEST PUSH1 0x1 SLOAD PUSH1 0x1 PUSH1 0x1 PUSH1 0xA0 SHL SUB SWAP2 SWAP1 DUP3 AND CALLER EQ DUP1 ISZERO PUSH2 0x5C4 JUMPI JUMPDEST PUSH2 0x578 SWAP1 PUSH2 0xAA6 JUMP JUMPDEST PUSH2 0x584 PUSH1 0x6 SLOAD DUP3 PUSH2 0xB21 JUMP JUMPDEST PUSH1 0x1B PUSH1 0x6 SLOAD SWAP6 DUP1 MLOAD SWAP7 DUP8 MSTORE DUP1 PUSH1 0x20 DUP9 ADD MSTORE DUP7 ADD MSTORE PUSH32 0x50726F647563742072656769737465726564206F6E2D636861696E0000000000 PUSH1 0x60 DUP7 ADD MSTORE AND SWAP3 LOG2 DUP1 RETURN JUMPDEST POP CALLER DUP7 MSTORE PUSH1 0x7 PUSH1 0x20 MSTORE DUP5 DUP7 KECCAK256 SLOAD PUSH1 0xFF AND PUSH2 0x56F JUMP JUMPDEST POP POP CALLVALUE PUSH2 0x148 JUMPI PUSH1 0x20 CALLDATASIZE PUSH1 0x3 NOT ADD SLT PUSH2 0x148 JUMPI PUSH1 0x20 SWAP2 DUP2 SWAP1 PUSH1 0x1 PUSH1 0x1 PUSH1 0xA0 SHL SUB PUSH2 0x601 PUSH2 0x9AD JUMP JUMPDEST AND DUP2 MSTORE PUSH1 0x2 DUP5 MSTORE KECCAK256 SLOAD SWAP1 MLOAD SWAP1 DUP2 MSTORE RETURN JUMPDEST POP POP CALLVALUE PUSH2 0x148 JUMPI CALLDATASIZE PUSH1 0x3 NOT ADD SLT PUSH2 0x64E JUMPI PUSH2 0x64B PUSH2 0x62D PUSH2 0x9AD JUMP JUMPDEST PUSH2 0x642 PUSH1 0x1 DUP1 PUSH1 0xA0 SHL SUB PUSH1 0x1 SLOAD AND CALLER EQ PUSH2 0xAE4 JUMP JUMPDEST PUSH1 0x24 CALLDATALOAD SWAP1 PUSH2 0xB21 JUMP JUMPDEST DUP1 RETURN JUMPDEST DUP1 REVERT JUMPDEST POP POP CALLVALUE PUSH2 0x148 JUMPI DUP2 PUSH1 0x3 NOT CALLDATASIZE ADD SLT PUSH2 0x148 JUMPI PUSH1 0x20 SWAP1 PUSH1 0x5 SLOAD SWAP1 MLOAD SWAP1 DUP2 MSTORE RETURN JUMPDEST POP POP CALLVALUE PUSH2 0x148 JUMPI DUP2 PUSH1 0x3 NOT CALLDATASIZE ADD SLT PUSH2 0x148 JUMPI PUSH1 0x20 SWAP1 MLOAD PUSH1 0x12 DUP2 MSTORE RETURN JUMPDEST POP POP CALLVALUE PUSH2 0x148 JUMPI PUSH1 0x20 CALLDATASIZE PUSH1 0x3 NOT ADD SLT PUSH2 0x148 JUMPI PUSH32 0x765F02A4009BBABEB5BCACB42308293AB54FA68B299D9CF67BC945E839BE9660 PUSH1 0x80 PUSH2 0x6CA PUSH2 0x9AD JUMP JUMPDEST PUSH1 0x1 SLOAD PUSH1 0x1 PUSH1 0x1 PUSH1 0xA0 SHL SUB SWAP2 SWAP1 DUP3 AND CALLER EQ DUP1 ISZERO PUSH2 0x737 JUMPI JUMPDEST PUSH2 0x6EB SWAP1 PUSH2 0xAA6 JUMP JUMPDEST PUSH2 0x6F7 PUSH1 0x5 SLOAD DUP3 PUSH2 0xB21 JUMP JUMPDEST PUSH1 0x19 PUSH1 0x5 SLOAD SWAP6 DUP1 MLOAD SWAP7 DUP8 MSTORE DUP1 PUSH1 0x20 DUP9 ADD MSTORE DUP7 ADD MSTORE PUSH32 0x4A6F75726E657920636865636B706F696E74206C6F6767656400000000000000 PUSH1 0x60 DUP7 ADD MSTORE AND SWAP3 LOG2 DUP1 RETURN JUMPDEST POP CALLER DUP7 MSTORE PUSH1 0x7 PUSH1 0x20 MSTORE DUP5 DUP7 KECCAK256 SLOAD PUSH1 0xFF AND PUSH2 0x6E2 JUMP JUMPDEST DUP3 DUP5 CALLVALUE PUSH2 0x64E JUMPI PUSH1 0x60 CALLDATASIZE PUSH1 0x3 NOT ADD SLT PUSH2 0x64E JUMPI PUSH2 0x767 PUSH2 0x9AD JUMP JUMPDEST SWAP1 PUSH2 0x770 PUSH2 0x9C8 JUMP JUMPDEST PUSH1 0x1 PUSH1 0x1 PUSH1 0xA0 SHL SUB SWAP1 DUP2 AND SWAP3 PUSH1 0x44 CALLDATALOAD SWAP2 SWAP1 PUSH2 0x78C DUP6 ISZERO ISZERO PUSH2 0x9DE JUMP JUMPDEST AND SWAP2 DUP3 DUP2 MSTORE PUSH1 0x20 SWAP6 PUSH1 0x2 DUP8 MSTORE PUSH2 0x7A7 DUP4 DUP8 DUP5 KECCAK256 SLOAD LT ISZERO PUSH2 0xA2A JUMP JUMPDEST DUP4 DUP3 MSTORE PUSH1 0x3 DUP8 MSTORE DUP6 DUP3 KECCAK256 CALLER DUP4 MSTORE DUP8 MSTORE DUP3 DUP7 DUP4 KECCAK256 SLOAD LT PUSH2 0x83E JUMPI POP PUSH32 0xDDF252AD1BE2C89B69C2B068FC378DAA952BA7F163C4A11628F55A4DF523B3EF SWAP2 DUP6 DUP3 DUP6 DUP10 SWAP5 MSTORE PUSH1 0x2 DUP5 MSTORE DUP2 DUP2 KECCAK256 PUSH2 0x7FB DUP5 DUP3 SLOAD PUSH2 0xA76 JUMP JUMPDEST SWAP1 SSTORE DUP7 DUP2 MSTORE PUSH1 0x2 DUP5 MSTORE DUP2 DUP2 KECCAK256 PUSH2 0x812 DUP5 DUP3 SLOAD PUSH2 0xA99 JUMP JUMPDEST SWAP1 SSTORE DUP6 DUP2 MSTORE PUSH1 0x3 DUP5 MSTORE DUP2 DUP2 KECCAK256 CALLER DUP3 MSTORE DUP5 MSTORE KECCAK256 PUSH2 0x82F DUP3 DUP3 SLOAD PUSH2 0xA76 JUMP JUMPDEST SWAP1 SSTORE DUP6 MLOAD SWAP1 DUP2 MSTORE LOG3 MLOAD PUSH1 0x1 DUP2 MSTORE RETURN JUMPDEST DUP6 MLOAD PUSH3 0x461BCD PUSH1 0xE5 SHL DUP2 MSTORE SWAP1 DUP2 ADD DUP8 SWAP1 MSTORE PUSH1 0x1B PUSH1 0x24 DUP3 ADD MSTORE PUSH32 0x5353543A20696E73756666696369656E7420616C6C6F77616E63650000000000 PUSH1 0x44 DUP3 ADD MSTORE PUSH1 0x64 SWAP1 REVERT JUMPDEST POP POP CALLVALUE PUSH2 0x148 JUMPI DUP2 PUSH1 0x3 NOT CALLDATASIZE ADD SLT PUSH2 0x148 JUMPI PUSH1 0x20 SWAP2 SLOAD SWAP1 MLOAD SWAP1 DUP2 MSTORE RETURN JUMPDEST POP POP CALLVALUE PUSH2 0x148 JUMPI DUP1 PUSH1 0x3 NOT CALLDATASIZE ADD SLT PUSH2 0x148 JUMPI PUSH1 0x20 SWAP2 DUP2 PUSH2 0x8BC PUSH2 0x9AD JUMP JUMPDEST SWAP2 PUSH1 0x24 CALLDATALOAD SWAP2 DUP3 SWAP2 CALLER DUP2 MSTORE PUSH1 0x3 DUP8 MSTORE DUP2 DUP2 KECCAK256 SWAP5 PUSH1 0x1 DUP1 PUSH1 0xA0 SHL SUB AND SWAP5 DUP6 DUP3 MSTORE DUP8 MSTORE KECCAK256 SSTORE DUP3 MLOAD SWAP1 DUP2 MSTORE PUSH32 0x8C5BE1E5EBEC7D5BD14F71427D1E84F3DD0314C0F7B2291E5B200AC8C7C3B925 DUP5 CALLER SWAP3 LOG3 MLOAD PUSH1 0x1 DUP2 MSTORE RETURN JUMPDEST DUP4 DUP6 CALLVALUE PUSH2 0x64E JUMPI DUP1 PUSH1 0x3 NOT CALLDATASIZE ADD SLT PUSH2 0x64E JUMPI DUP2 DUP4 ADD SWAP1 DUP4 DUP3 LT PUSH8 0xFFFFFFFFFFFFFFFF DUP4 GT OR PUSH2 0x4BE JUMPI POP PUSH2 0x4BA SWAP4 POP DUP2 MSTORE PUSH1 0x11 DUP3 MSTORE PUSH17 0x29B730B1B5A9B434B2B632102A37B5B2B7 PUSH1 0x79 SHL PUSH1 0x20 DUP4 ADD MSTORE MLOAD SWAP2 DUP3 SWAP2 DUP3 JUMPDEST PUSH1 0x20 DUP1 DUP3 MSTORE DUP3 MLOAD DUP2 DUP4 ADD DUP2 SWAP1 MSTORE SWAP1 SWAP4 SWAP3 PUSH1 0x0 JUMPDEST DUP3 DUP2 LT PUSH2 0x999 JUMPI POP POP PUSH1 0x40 SWAP3 SWAP4 POP PUSH1 0x0 DUP4 DUP3 DUP5 ADD ADD MSTORE PUSH1 0x1F DUP1 NOT SWAP2 ADD AND ADD ADD SWAP1 JUMP JUMPDEST DUP2 DUP2 ADD DUP7 ADD MLOAD DUP5 DUP3 ADD PUSH1 0x40 ADD MSTORE DUP6 ADD PUSH2 0x977 JUMP JUMPDEST PUSH1 0x4 CALLDATALOAD SWAP1 PUSH1 0x1 PUSH1 0x1 PUSH1 0xA0 SHL SUB DUP3 AND DUP3 SUB PUSH2 0x9C3 JUMPI JUMP JUMPDEST PUSH1 0x0 DUP1 REVERT JUMPDEST PUSH1 0x24 CALLDATALOAD SWAP1 PUSH1 0x1 PUSH1 0x1 PUSH1 0xA0 SHL SUB DUP3 AND DUP3 SUB PUSH2 0x9C3 JUMPI JUMP JUMPDEST ISZERO PUSH2 0x9E5 JUMPI JUMP JUMPDEST PUSH1 0x40 MLOAD PUSH3 0x461BCD PUSH1 0xE5 SHL DUP2 MSTORE PUSH1 0x20 PUSH1 0x4 DUP3 ADD MSTORE PUSH1 0x1D PUSH1 0x24 DUP3 ADD MSTORE PUSH32 0x5353543A207472616E7366657220746F207A65726F2061646472657373000000 PUSH1 0x44 DUP3 ADD MSTORE PUSH1 0x64 SWAP1 REVERT JUMPDEST ISZERO PUSH2 0xA31 JUMPI JUMP JUMPDEST PUSH1 0x40 MLOAD PUSH3 0x461BCD PUSH1 0xE5 SHL DUP2 MSTORE PUSH1 0x20 PUSH1 0x4 DUP3 ADD MSTORE PUSH1 0x19 PUSH1 0x24 DUP3 ADD MSTORE PUSH32 0x5353543A20696E73756666696369656E742062616C616E636500000000000000 PUSH1 0x44 DUP3 ADD MSTORE PUSH1 0x64 SWAP1 REVERT JUMPDEST SWAP2 SWAP1 DUP3 SUB SWAP2 DUP3 GT PUSH2 0xA83 JUMPI JUMP JUMPDEST PUSH4 0x4E487B71 PUSH1 0xE0 SHL PUSH1 0x0 MSTORE PUSH1 0x11 PUSH1 0x4 MSTORE PUSH1 0x24 PUSH1 0x0 REVERT JUMPDEST SWAP2 SWAP1 DUP3 ADD DUP1 SWAP3 GT PUSH2 0xA83 JUMPI JUMP JUMPDEST ISZERO PUSH2 0xAAD JUMPI JUMP JUMPDEST PUSH1 0x40 MLOAD PUSH3 0x461BCD PUSH1 0xE5 SHL DUP2 MSTORE PUSH1 0x20 PUSH1 0x4 DUP3 ADD MSTORE PUSH1 0xF PUSH1 0x24 DUP3 ADD MSTORE PUSH15 0x29A9AA1D103737BA1036B4B73A32B9 PUSH1 0x89 SHL PUSH1 0x44 DUP3 ADD MSTORE PUSH1 0x64 SWAP1 REVERT JUMPDEST ISZERO PUSH2 0xAEB JUMPI JUMP JUMPDEST PUSH1 0x40 MLOAD PUSH3 0x461BCD PUSH1 0xE5 SHL DUP2 MSTORE PUSH1 0x20 PUSH1 0x4 DUP3 ADD MSTORE PUSH1 0xE PUSH1 0x24 DUP3 ADD MSTORE PUSH14 0x29A9AA1D103737BA1037BBB732B9 PUSH1 0x91 SHL PUSH1 0x44 DUP3 ADD MSTORE PUSH1 0x64 SWAP1 REVERT JUMPDEST PUSH1 0x1 PUSH1 0x1 PUSH1 0xA0 SHL SUB AND SWAP1 DUP2 ISZERO PUSH2 0xB85 JUMPI PUSH32 0xDDF252AD1BE2C89B69C2B068FC378DAA952BA7F163C4A11628F55A4DF523B3EF PUSH1 0x20 DUP3 PUSH2 0xB62 PUSH1 0x0 SWAP5 DUP6 SLOAD PUSH2 0xA99 JUMP JUMPDEST DUP5 SSTORE DUP5 DUP5 MSTORE PUSH1 0x2 DUP3 MSTORE PUSH1 0x40 DUP5 KECCAK256 PUSH2 0xB7A DUP3 DUP3 SLOAD PUSH2 0xA99 JUMP JUMPDEST SWAP1 SSTORE PUSH1 0x40 MLOAD SWAP1 DUP2 MSTORE LOG3 JUMP JUMPDEST PUSH1 0x40 MLOAD PUSH3 0x461BCD PUSH1 0xE5 SHL DUP2 MSTORE PUSH1 0x20 PUSH1 0x4 DUP3 ADD MSTORE PUSH1 0x19 PUSH1 0x24 DUP3 ADD MSTORE PUSH32 0x5353543A206D696E7420746F207A65726F206164647265737300000000000000 PUSH1 0x44 DUP3 ADD MSTORE PUSH1 0x64 SWAP1 REVERT INVALID LOG2 PUSH5 0x6970667358 0x22 SLT KECCAK256 CALLER DUP6 0xF9 JUMPDEST 0x23 PUSH31 0xB5EA6885D83DE768536E41ED25F0AA2EE768356016396377FFF364736F6C63 NUMBER STOP ADDMOD EQ STOP CALLER "},"methodIdentifiers":{"allowance(address,address)":"dd62ed3e","approve(address,uint256)":"095ea7b3","balanceOf(address)":"70a08231","decimals()":"313ce567","journeyReward()":"37503381","mint(address,uint256)":"40c10f19","mintJourneyReward(address)":"27056236","mintRegistrationReward(address)":"78d7bcc2","mintScanReward(address)":"eea86459","minters(address)":"f46eccc4","name()":"06fdde03","owner()":"8da5cb5b","registrationReward()":"865909f6","scanReward()":"b2168085","setMinter(address,bool)":"cf456ae7","symbol()":"95d89b41","totalSupply()":"18160ddd","transfer(address,uint256)":"a9059cbb","transferFrom(address,address,uint256)":"23b872dd","transferOwnership(address)":"f2fde38b","updateRewards(uint256,uint256,uint256)":"b37f2590"}}}}}