{"contracts/SnackShieldAccess.sol":{"SnackShieldAccess":{"abi":[{"inputs":[],"stateMutability":"nonpayable","type":"constructor"},{"anonymous":false,"inputs":[{"indexed":true,"internalType":"address","name":"wallet","type":"address"},{"indexed":false,"internalType":"uint256","name":"timestamp","type":"uint256"}],"name":"PartnerDeactivated","type":"event"},{"anonymous":false,"inputs":[{"indexed":true,"internalType":"address","name":"wallet","type":"address"},{"indexed":false,"internalType":"uint256","name":"timestamp","type":"uint256"}],"name":"PartnerReactivated","type":"event"},{"anonymous":false,"inputs":[{"indexed":true,"internalType":"address","name":"wallet","type":"address"},{"indexed":false,"internalType":"string","name":"name","type":"string"},{"indexed":false,"internalType":"string","name":"company","type":"string"},{"indexed":false,"internalType":"enum SnackShieldAccess.Role","name":"role","type":"uint8"},{"indexed":false,"internalType":"uint256","name":"timestamp","type":"uint256"}],"name":"PartnerRegistered","type":"event"},{"anonymous":false,"inputs":[{"indexed":true,"internalType":"address","name":"wallet","type":"address"},{"indexed":false,"internalType":"enum SnackShieldAccess.Role","name":"oldRole","type":"uint8"},{"indexed":false,"internalType":"enum SnackShieldAccess.Role","name":"newRole","type":"uint8"},{"indexed":false,"internalType":"uint256","name":"timestamp","type":"uint256"}],"name":"RoleUpdated","type":"event"},{"inputs":[{"internalType":"address","name":"_wallet","type":"address"}],"name":"deactivatePartner","outputs":[],"stateMutability":"nonpayable","type":"function"},{"inputs":[],"name":"getAllPartners","outputs":[{"internalType":"address[]","name":"","type":"address[]"}],"stateMutability":"view","type":"function"},{"inputs":[{"internalType":"address","name":"_wallet","type":"address"}],"name":"getPartner","outputs":[{"internalType":"string","name":"name","type":"string"},{"internalType":"string","name":"company","type":"string"},{"internalType":"enum SnackShieldAccess.Role","name":"role","type":"uint8"},{"internalType":"bool","name":"isActive","type":"bool"},{"internalType":"uint256","name":"registeredAt","type":"uint256"}],"stateMutability":"view","type":"function"},{"inputs":[{"internalType":"address","name":"_wallet","type":"address"},{"internalType":"enum SnackShieldAccess.Role","name":"_role","type":"uint8"}],"name":"hasRole","outputs":[{"internalType":"bool","name":"","type":"bool"}],"stateMutability":"view","type":"function"},{"inputs":[{"internalType":"address","name":"_wallet","type":"address"}],"name":"isActivePartner","outputs":[{"internalType":"bool","name":"","type":"bool"}],"stateMutability":"view","type":"function"},{"inputs":[],"name":"owner","outputs":[{"internalType":"address","name":"","type":"address"}],"stateMutability":"view","type":"function"},{"inputs":[{"internalType":"uint256","name":"","type":"uint256"}],"name":"partnerAddresses","outputs":[{"internalType":"address","name":"","type":"address"}],"stateMutability":"view","type":"function"},{"inputs":[],"name":"partnerCount","outputs":[{"internalType":"uint256","name":"","type":"uint256"}],"stateMutability":"view","type":"function"},{"inputs":[{"internalType":"address","name":"","type":"address"}],"name":"partners","outputs":[{"internalType":"address","name":"wallet","type":"address"},{"internalType":"string","name":"name","type":"string"},{"internalType":"string","name":"company","type":"string"},{"internalType":"enum SnackShieldAccess.Role","name":"role","type":"uint8"},{"internalType":"bool","name":"isActive","type":"bool"},{"internalType":"uint256","name":"registeredAt","type":"uint256"}],"stateMutability":"view","type":"function"},{"inputs":[{"internalType":"address","name":"_wallet","type":"address"}],"name":"reactivatePartner","outputs":[],"stateMutability":"nonpayable","type":"function"},{"inputs":[{"internalType":"address","name":"_wallet","type":"address"},{"internalType":"string","name":"_name","type":"string"},{"internalType":"string","name":"_company","type":"string"},{"internalType":"enum SnackShieldAccess.Role","name":"_role","type":"uint8"}],"name":"registerPartner","outputs":[],"stateMutability":"nonpayable","type":"function"},{"inputs":[{"internalType":"address","name":"_newOwner","type":"address"}],"name":"transferOwnership","outputs":[],"stateMutability":"nonpayable","type":"function"},{"inputs":[{"internalType":"address","name":"_wallet","type":"address"},{"internalType":"enum SnackShieldAccess.Role","name":"_newRole","type":"uint8"}],"name":"updateRole","outputs":[],"stateMutability":"nonpayable","type":"function"}],"evm":{"bytecode":{"linkReferences":{},"object":"6080346200054c57600080546001600160a01b0319163317905560c08101906001600160401b03821181831017620005365760409182523381526200004362000551565b90600c82526b29bcb9ba32b69020b236b4b760a11b91826020820152602082019081526200007062000551565b90601682527f536e61636b536869656c6420456e7465727072697365000000000000000000009182602082015285840152600492836060820152600160808201524260a0820152336000526002602052856000209160018060a01b0382511660018060a01b03198454161783555180519060018060401b03821162000521576001840154600181811c9116801562000516575b602082101462000501579081601f849311620004a6575b50602090601f83116001146200042f5760009262000423575b50508160011b916000199060031b1c19161760018301555b80860151805160028401916001600160401b0382116200040e578254600181811c9116801562000403575b6020821014620003ee579081601f84931162000396575b50602090601f83116001146200032b576000926200031f575b50508160011b916000199060031b1c19161790555b60038201606082015160058110156200030a579181869360a0935460ff61ff006080860151151560081b1692169061ffff191617179055015191015560035468010000000000000000811015620002f5576001810180600355811015620002e05760036000527fc2575a0e9e593c00f959f8c92f12db2869c3395a3b0502d05e2516446f71f85b0180546001600160a01b031916331790556001546000198114620002cb5760010160015583519260808452600c608085015260a084015260c06020840152601660c084015260e0830152828201524260608201527f5be57917b18770220c2e6b1fd41805485de57550982c5fcc3fd89d580b3320e96101003392a2516111749081620005728239f35b601183634e487b7160e01b6000525260246000fd5b603283634e487b7160e01b6000525260246000fd5b604183634e487b7160e01b6000525260246000fd5b602186634e487b7160e01b6000525260246000fd5b015190503880620001a6565b6000858152602081209350601f198516905b8181106200037d575090846001959493921062000363575b505050811b019055620001bb565b015160001960f88460031b161c1916905538808062000355565b929360206001819287860151815501950193016200033d565b909150836000526020600020601f840160051c81019160208510620003e3575b90601f859493920160051c01905b818110620003d357506200018d565b60008155849350600101620003c4565b9091508190620003b6565b602288634e487b7160e01b6000525260246000fd5b90607f169062000176565b604187634e487b7160e01b6000525260246000fd5b01519050388062000133565b9250600185016000526020600020906000935b601f19841685106200048a576001945083601f1981161062000470575b505050811b0160018301556200014b565b015160001960f88460031b161c191690553880806200045f565b8181015183556020948501946001909301929091019062000442565b909150600185016000526020600020601f840160051c81019160208510620004f6575b90601f859493920160051c01905b818110620004e657506200011a565b60008155849350600101620004d7565b9091508190620004c9565b602287634e487b7160e01b6000525260246000fd5b90607f169062000103565b604186634e487b7160e01b6000525260246000fd5b634e487b7160e01b600052604160045260246000fd5b600080fd5b60408051919082016001600160401b03811183821017620005365760405256fe6080604052600436101561001257600080fd5b60003560e01c806304f3cd1e146108165780631ca6d933146106f55780632996d265146106b057806362793c171461054c5780638da5cb5b146105235780638e96d94e1461042e578063942f0de6146103ec57806395a8c58d1461037157806395c33652146102c6578063d3e83a08146101fe578063d50f6d3a1461015f578063e79d0860146101415763f2fde38b146100ab57600080fd5b3461013c57602036600319011261013c576100c4610d7f565b600054906001600160a01b039081831633036100f75716906100e7821515610fda565b6001600160a01b03191617600055005b60405162461bcd60e51b815260206004820152601860248201527f416363657373436f6e74726f6c3a206e6f74206f776e657200000000000000006044820152606490fd5b600080fd5b3461013c57600036600319011261013c576020600154604051908152f35b3461013c57602036600319011261013c576001600160a01b03610180610d7f565b1660005260026020526101cc60406000206003810154600482015460ff6101da6101b860026101b160018801610e9b565b9601610e9b565b60405196879660a0885260a0880190610f41565b908682036020880152610f41565b926101ea60408601838316610f81565b60081c161515606084015260808301520390f35b3461013c57600036600319011261013c57604051806003548083526020809301809160036000527fc2575a0e9e593c00f959f8c92f12db2869c3395a3b0502d05e2516446f71f85b9060005b868282106102a957868661026082880383610e79565b604051928392818401908285525180915260408401929160005b82811061028957505050500390f35b83516001600160a01b03168552869550938101939281019260010161027a565b83546001600160a01b03168552909301926001928301920161024a565b3461013c57602036600319011261013c576001600160a01b03806102e8610d7f565b16600052600260205260406000209081541661030660018301610e9b565b9161031360028201610e9b565b60ff61034d600460038501549401549261033f604051978897885260c0602089015260c0880190610f41565b908682036040880152610f41565b9261035d60608601838316610f81565b60081c161515608084015260a08301520390f35b3461013c5761037f36610dc3565b9060018060a01b0316600052600260205260036040600020015460ff8160081c1690816103b4575b6020826040519015158152f35b60ff9150169060058110156103d65760058210156103d65760209114826103a7565b634e487b7160e01b600052602160045260246000fd5b3461013c57602036600319011261013c5760043560035481101561013c57610415602091610df2565b905460405160039290921b1c6001600160a01b03168152f35b3461013c5761043c36610dc3565b60005490916001600160a01b03918216331480156104fc575b61045e90610f8e565b169081600052600260205261048060ff60036040600020015460081c166110f2565b60058110156103d6576060816104b87fbb3864d65ad50221bf63f66d2c877516c2a835e23ebcdaee64d6743d2e7731fc931515611026565b8360005260026020526104f36003604060002001916104dc8160ff855416946110b9565b6104e96040518094610f81565b6020830190610f81565b426040820152a2005b5033600052600260205260ff6003604060002001541660058110156103d657600414610455565b3461013c57600036600319011261013c576000546040516001600160a01b039091168152602090f35b3461013c5760208060031936011261013c57610566610d7f565b6000546001600160a01b03919082163314801561068a575b61058790610f8e565b1690816000526002815260ff60036040600020015460081c1661064657816000526002815260046040600020015415610602577f8bedfcaf07943f5e64ad4f1ab6722dc18560055d0a45ad0599329dbc9c4bd08e908260005260028152600360406000200161010061ff0019825416179055604051428152a2005b6064906040519062461bcd60e51b82526004820152601d60248201527f416363657373436f6e74726f6c3a206e6f7420726567697374657265640000006044820152fd5b6064906040519062461bcd60e51b82526004820152601d60248201527f416363657373436f6e74726f6c3a20616c7265616479206163746976650000006044820152fd5b50336000526002835260ff6003604060002001541660058110156103d65760041461057e565b3461013c57602036600319011261013c576001600160a01b036106d1610d7f565b166000526002602052602060ff60036040600020015460081c166040519015158152f35b3461013c5760208060031936011261013c5761070f610d7f565b6000546001600160a01b03908116929133841480156107f0575b61073290610f8e565b1691826000526002825261075360ff60036040600020015460081c166110f2565b821461079d577fb338ca22c5ba1f33b3ab132791def695963ed794f28e40191ee1bfa4b355f0b5908260005260028152600360406000200161ff00198154169055604051428152a2005b6084906040519062461bcd60e51b82526004820152602660248201527f416363657373436f6e74726f6c3a2063616e6e6f7420646561637469766174656044820152651037bbb732b960d11b6064820152fd5b50336000526002835260ff6003604060002001541660058110156103d657600414610729565b3461013c57608036600319011261013c5761082f610d7f565b60243567ffffffffffffffff811161013c5761084f903690600401610d95565b9060443567ffffffffffffffff811161013c57610870903690600401610d95565b92906005606435101561013c576000546001600160a01b031633148015610d58575b61089b90610f8e565b6108af6001600160a01b0386161515610fda565b6001600160a01b03851660009081526002602052604090206003015460081c60ff16610d09576108e26064351515611026565b6040518060c081011067ffffffffffffffff60c083011117610b535760c081016040526001600160a01b038616815261091c368486611072565b602082015261092c368684611072565b60408201526064356060820152600160808201524260a082015260018060a01b038616600052600260205260406000209060018060a01b038151166bffffffffffffffffffffffff60a01b835416178255602081015180519067ffffffffffffffff8211610b535781906109a36001860154610e3f565b601f8111610cb6575b50602090601f8311600114610c4457600092610c39575b50508160011b916000199060031b1c19161760018301555b604081015180519067ffffffffffffffff8211610b53578190610a016002860154610e3f565b601f8111610be6575b50602090601f8311600114610b7457600092610b69575b50508160011b916000199060031b1c19161760028301555b6060810151600383019160058210156103d65782610a5b60a0936004956110b9565b6080820151815461ff00191690151560081b61ff0016179055015191015560035468010000000000000000811015610b5357806001610a9d9201600355610df2565b81546001600160a01b0388811660039390931b92831b921b1916179055600154906000198214610b3d577f5be57917b18770220c2e6b1fd41805485de57550982c5fcc3fd89d580b3320e9946001610b189301600155610b0a6040519586956080875260808701916110d1565b9184830360208601526110d1565b93610b2860408301606435610f81565b4260608301526001600160a01b0316930390a2005b634e487b7160e01b600052601160045260246000fd5b634e487b7160e01b600052604160045260246000fd5b015190508980610a21565b9250600285016000526020600020906000935b601f1984168510610bcb576001945083601f19811610610bb2575b505050811b016002830155610a39565b015160001960f88460031b161c19169055898080610ba2565b81810151835560209485019460019093019290910190610b87565b909150600285016000526020600020601f840160051c810160208510610c32575b90849392915b601f830160051c82018110610c23575050610a0a565b60008155859450600101610c0d565b5080610c07565b0151905089806109c3565b9250600185016000526020600020906000935b601f1984168510610c9b576001945083601f19811610610c82575b505050811b0160018301556109db565b015160001960f88460031b161c19169055898080610c72565b81810151835560209485019460019093019290910190610c57565b909150600185016000526020600020601f840160051c810160208510610d02575b90849392915b601f830160051c82018110610cf35750506109ac565b60008155859450600101610cdd565b5080610cd7565b60405162461bcd60e51b815260206004820152602160248201527f416363657373436f6e74726f6c3a20616c7265616479207265676973746572656044820152601960fa1b6064820152608490fd5b5033600052600260205260ff6003604060002001541660058110156103d657600414610892565b600435906001600160a01b038216820361013c57565b9181601f8401121561013c5782359167ffffffffffffffff831161013c576020838186019501011161013c57565b604090600319011261013c576004356001600160a01b038116810361013c5790602435600581101561013c5790565b600354811015610e295760036000527fc2575a0e9e593c00f959f8c92f12db2869c3395a3b0502d05e2516446f71f85b0190600090565b634e487b7160e01b600052603260045260246000fd5b90600182811c92168015610e6f575b6020831014610e5957565b634e487b7160e01b600052602260045260246000fd5b91607f1691610e4e565b90601f8019910116810190811067ffffffffffffffff821117610b5357604052565b9060405191826000825492610eaf84610e3f565b908184526001948581169081600014610f1e5750600114610edb575b5050610ed992500383610e79565b565b9093915060005260209081600020936000915b818310610f06575050610ed993508201013880610ecb565b85548884018501529485019487945091830191610eee565b915050610ed994506020925060ff191682840152151560051b8201013880610ecb565b919082519283825260005b848110610f6d575050826000602080949584010152601f8019910116010190565b602081830181015184830182015201610f4c565b9060058210156103d65752565b15610f9557565b60405162461bcd60e51b815260206004820152601860248201527f416363657373436f6e74726f6c3a206e6f742061646d696e00000000000000006044820152606490fd5b15610fe157565b60405162461bcd60e51b815260206004820152601b60248201527f416363657373436f6e74726f6c3a207a65726f206164647265737300000000006044820152606490fd5b1561102d57565b60405162461bcd60e51b815260206004820152601b60248201527f416363657373436f6e74726f6c3a20696e76616c696420726f6c6500000000006044820152606490fd5b92919267ffffffffffffffff8211610b53576040519161109c601f8201601f191660200184610e79565b82948184528183011161013c578281602093846000960137010152565b9060058110156103d65760ff80198354169116179055565b908060209392818452848401376000828201840152601f01601f1916010190565b156110f957565b60405162461bcd60e51b815260206004820152601960248201527f416363657373436f6e74726f6c3a206e6f7420616374697665000000000000006044820152606490fdfea264697066735822122011afe3e4284b2efe84c1c44b065151058c0ebf50f6d9815f5364555e40df9e4864736f6c63430008140033","opcodes":"PUSH1 0x80 CALLVALUE PUSH3 0x54C JUMPI PUSH1 0x0 DUP1 SLOAD PUSH1 0x1 PUSH1 0x1 PUSH1 0xA0 SHL SUB NOT AND CALLER OR SWAP1 SSTORE PUSH1 0xC0 DUP2 ADD SWAP1 PUSH1 0x1 PUSH1 0x1 PUSH1 0x40 SHL SUB DUP3 GT DUP2 DUP4 LT OR PUSH3 0x536 JUMPI PUSH1 0x40 SWAP2 DUP3 MSTORE CALLER DUP2 MSTORE PUSH3 0x43 PUSH3 0x551 JUMP JUMPDEST SWAP1 PUSH1 0xC DUP3 MSTORE PUSH12 0x29BCB9BA32B69020B236B4B7 PUSH1 0xA1 SHL SWAP2 DUP3 PUSH1 0x20 DUP3 ADD MSTORE PUSH1 0x20 DUP3 ADD SWAP1 DUP2 MSTORE PUSH3 0x70 PUSH3 0x551 JUMP JUMPDEST SWAP1 PUSH1 0x16 DUP3 MSTORE PUSH32 0x536E61636B536869656C6420456E746572707269736500000000000000000000 SWAP2 DUP3 PUSH1 0x20 DUP3 ADD MSTORE DUP6 DUP5 ADD MSTORE PUSH1 0x4 SWAP3 DUP4 PUSH1 0x60 DUP3 ADD MSTORE PUSH1 0x1 PUSH1 0x80 DUP3 ADD MSTORE TIMESTAMP PUSH1 0xA0 DUP3 ADD MSTORE CALLER PUSH1 0x0 MSTORE PUSH1 0x2 PUSH1 0x20 MSTORE DUP6 PUSH1 0x0 KECCAK256 SWAP2 PUSH1 0x1 DUP1 PUSH1 0xA0 SHL SUB DUP3 MLOAD AND PUSH1 0x1 DUP1 PUSH1 0xA0 SHL SUB NOT DUP5 SLOAD AND OR DUP4 SSTORE MLOAD DUP1 MLOAD SWAP1 PUSH1 0x1 DUP1 PUSH1 0x40 SHL SUB DUP3 GT PUSH3 0x521 JUMPI PUSH1 0x1 DUP5 ADD SLOAD PUSH1 0x1 DUP2 DUP2 SHR SWAP2 AND DUP1 ISZERO PUSH3 0x516 JUMPI JUMPDEST PUSH1 0x20 DUP3 LT EQ PUSH3 0x501 JUMPI SWAP1 DUP2 PUSH1 0x1F DUP5 SWAP4 GT PUSH3 0x4A6 JUMPI JUMPDEST POP PUSH1 0x20 SWAP1 PUSH1 0x1F DUP4 GT PUSH1 0x1 EQ PUSH3 0x42F JUMPI PUSH1 0x0 SWAP3 PUSH3 0x423 JUMPI JUMPDEST POP POP DUP2 PUSH1 0x1 SHL SWAP2 PUSH1 0x0 NOT SWAP1 PUSH1 0x3 SHL SHR NOT AND OR PUSH1 0x1 DUP4 ADD SSTORE JUMPDEST DUP1 DUP7 ADD MLOAD DUP1 MLOAD PUSH1 0x2 DUP5 ADD SWAP2 PUSH1 0x1 PUSH1 0x1 PUSH1 0x40 SHL SUB DUP3 GT PUSH3 0x40E JUMPI DUP3 SLOAD PUSH1 0x1 DUP2 DUP2 SHR SWAP2 AND DUP1 ISZERO PUSH3 0x403 JUMPI JUMPDEST PUSH1 0x20 DUP3 LT EQ PUSH3 0x3EE JUMPI SWAP1 DUP2 PUSH1 0x1F DUP5 SWAP4 GT PUSH3 0x396 JUMPI JUMPDEST POP PUSH1 0x20 SWAP1 PUSH1 0x1F DUP4 GT PUSH1 0x1 EQ PUSH3 0x32B JUMPI PUSH1 0x0 SWAP3 PUSH3 0x31F JUMPI JUMPDEST POP POP DUP2 PUSH1 0x1 SHL SWAP2 PUSH1 0x0 NOT SWAP1 PUSH1 0x3 SHL SHR NOT AND OR SWAP1 SSTORE JUMPDEST PUSH1 0x3 DUP3 ADD PUSH1 0x60 DUP3 ADD MLOAD PUSH1 0x5 DUP2 LT ISZERO PUSH3 0x30A JUMPI SWAP2 DUP2 DUP7 SWAP4 PUSH1 0xA0 SWAP4 SLOAD PUSH1 0xFF PUSH2 0xFF00 PUSH1 0x80 DUP7 ADD MLOAD ISZERO ISZERO PUSH1 0x8 SHL AND SWAP3 AND SWAP1 PUSH2 0xFFFF NOT AND OR OR SWAP1 SSTORE ADD MLOAD SWAP2 ADD SSTORE PUSH1 0x3 SLOAD PUSH9 0x10000000000000000 DUP2 LT ISZERO PUSH3 0x2F5 JUMPI PUSH1 0x1 DUP2 ADD DUP1 PUSH1 0x3 SSTORE DUP2 LT ISZERO PUSH3 0x2E0 JUMPI PUSH1 0x3 PUSH1 0x0 MSTORE PUSH32 0xC2575A0E9E593C00F959F8C92F12DB2869C3395A3B0502D05E2516446F71F85B ADD DUP1 SLOAD PUSH1 0x1 PUSH1 0x1 PUSH1 0xA0 SHL SUB NOT AND CALLER OR SWAP1 SSTORE PUSH1 0x1 SLOAD PUSH1 0x0 NOT DUP2 EQ PUSH3 0x2CB JUMPI PUSH1 0x1 ADD PUSH1 0x1 SSTORE DUP4 MLOAD SWAP3 PUSH1 0x80 DUP5 MSTORE PUSH1 0xC PUSH1 0x80 DUP6 ADD MSTORE PUSH1 0xA0 DUP5 ADD MSTORE PUSH1 0xC0 PUSH1 0x20 DUP5 ADD MSTORE PUSH1 0x16 PUSH1 0xC0 DUP5 ADD MSTORE PUSH1 0xE0 DUP4 ADD MSTORE DUP3 DUP3 ADD MSTORE TIMESTAMP PUSH1 0x60 DUP3 ADD MSTORE PUSH32 0x5BE57917B18770220C2E6B1FD41805485DE57550982C5FCC3FD89D580B3320E9 PUSH2 0x100 CALLER SWAP3 LOG2 MLOAD PUSH2 0x1174 SWAP1 DUP2 PUSH3 0x572 DUP3 CODECOPY RETURN JUMPDEST PUSH1 0x11 DUP4 PUSH4 0x4E487B71 PUSH1 0xE0 SHL PUSH1 0x0 MSTORE MSTORE PUSH1 0x24 PUSH1 0x0 REVERT JUMPDEST PUSH1 0x32 DUP4 PUSH4 0x4E487B71 PUSH1 0xE0 SHL PUSH1 0x0 MSTORE MSTORE PUSH1 0x24 PUSH1 0x0 REVERT JUMPDEST PUSH1 0x41 DUP4 PUSH4 0x4E487B71 PUSH1 0xE0 SHL PUSH1 0x0 MSTORE MSTORE PUSH1 0x24 PUSH1 0x0 REVERT JUMPDEST PUSH1 0x21 DUP7 PUSH4 0x4E487B71 PUSH1 0xE0 SHL PUSH1 0x0 MSTORE MSTORE PUSH1 0x24 PUSH1 0x0 REVERT JUMPDEST ADD MLOAD SWAP1 POP CODESIZE DUP1 PUSH3 0x1A6 JUMP JUMPDEST PUSH1 0x0 DUP6 DUP2 MSTORE PUSH1 0x20 DUP2 KECCAK256 SWAP4 POP PUSH1 0x1F NOT DUP6 AND SWAP1 JUMPDEST DUP2 DUP2 LT PUSH3 0x37D JUMPI POP SWAP1 DUP5 PUSH1 0x1 SWAP6 SWAP5 SWAP4 SWAP3 LT PUSH3 0x363 JUMPI JUMPDEST POP POP POP DUP2 SHL ADD SWAP1 SSTORE PUSH3 0x1BB JUMP JUMPDEST ADD MLOAD PUSH1 0x0 NOT PUSH1 0xF8 DUP5 PUSH1 0x3 SHL AND SHR NOT AND SWAP1 SSTORE CODESIZE DUP1 DUP1 PUSH3 0x355 JUMP JUMPDEST SWAP3 SWAP4 PUSH1 0x20 PUSH1 0x1 DUP2 SWAP3 DUP8 DUP7 ADD MLOAD DUP2 SSTORE ADD SWAP6 ADD SWAP4 ADD PUSH3 0x33D JUMP JUMPDEST SWAP1 SWAP2 POP DUP4 PUSH1 0x0 MSTORE PUSH1 0x20 PUSH1 0x0 KECCAK256 PUSH1 0x1F DUP5 ADD PUSH1 0x5 SHR DUP2 ADD SWAP2 PUSH1 0x20 DUP6 LT PUSH3 0x3E3 JUMPI JUMPDEST SWAP1 PUSH1 0x1F DUP6 SWAP5 SWAP4 SWAP3 ADD PUSH1 0x5 SHR ADD SWAP1 JUMPDEST DUP2 DUP2 LT PUSH3 0x3D3 JUMPI POP PUSH3 0x18D JUMP JUMPDEST PUSH1 0x0 DUP2 SSTORE DUP5 SWAP4 POP PUSH1 0x1 ADD PUSH3 0x3C4 JUMP JUMPDEST SWAP1 SWAP2 POP DUP2 SWAP1 PUSH3 0x3B6 JUMP JUMPDEST PUSH1 0x22 DUP9 PUSH4 0x4E487B71 PUSH1 0xE0 SHL PUSH1 0x0 MSTORE MSTORE PUSH1 0x24 PUSH1 0x0 REVERT JUMPDEST SWAP1 PUSH1 0x7F AND SWAP1 PUSH3 0x176 JUMP JUMPDEST PUSH1 0x41 DUP8 PUSH4 0x4E487B71 PUSH1 0xE0 SHL PUSH1 0x0 MSTORE MSTORE PUSH1 0x24 PUSH1 0x0 REVERT JUMPDEST ADD MLOAD SWAP1 POP CODESIZE DUP1 PUSH3 0x133 JUMP JUMPDEST SWAP3 POP PUSH1 0x1 DUP6 ADD PUSH1 0x0 MSTORE PUSH1 0x20 PUSH1 0x0 KECCAK256 SWAP1 PUSH1 0x0 SWAP4 JUMPDEST PUSH1 0x1F NOT DUP5 AND DUP6 LT PUSH3 0x48A JUMPI PUSH1 0x1 SWAP5 POP DUP4 PUSH1 0x1F NOT DUP2 AND LT PUSH3 0x470 JUMPI JUMPDEST POP POP POP DUP2 SHL ADD PUSH1 0x1 DUP4 ADD SSTORE PUSH3 0x14B JUMP JUMPDEST ADD MLOAD PUSH1 0x0 NOT PUSH1 0xF8 DUP5 PUSH1 0x3 SHL AND SHR NOT AND SWAP1 SSTORE CODESIZE DUP1 DUP1 PUSH3 0x45F JUMP JUMPDEST DUP2 DUP2 ADD MLOAD DUP4 SSTORE PUSH1 0x20 SWAP5 DUP6 ADD SWAP5 PUSH1 0x1 SWAP1 SWAP4 ADD SWAP3 SWAP1 SWAP2 ADD SWAP1 PUSH3 0x442 JUMP JUMPDEST SWAP1 SWAP2 POP PUSH1 0x1 DUP6 ADD PUSH1 0x0 MSTORE PUSH1 0x20 PUSH1 0x0 KECCAK256 PUSH1 0x1F DUP5 ADD PUSH1 0x5 SHR DUP2 ADD SWAP2 PUSH1 0x20 DUP6 LT PUSH3 0x4F6 JUMPI JUMPDEST SWAP1 PUSH1 0x1F DUP6 SWAP5 SWAP4 SWAP3 ADD PUSH1 0x5 SHR ADD SWAP1 JUMPDEST DUP2 DUP2 LT PUSH3 0x4E6 JUMPI POP PUSH3 0x11A JUMP JUMPDEST PUSH1 0x0 DUP2 SSTORE DUP5 SWAP4 POP PUSH1 0x1 ADD PUSH3 0x4D7 JUMP JUMPDEST SWAP1 SWAP2 POP DUP2 SWAP1 PUSH3 0x4C9 JUMP JUMPDEST PUSH1 0x22 DUP8 PUSH4 0x4E487B71 PUSH1 0xE0 SHL PUSH1 0x0 MSTORE MSTORE PUSH1 0x24 PUSH1 0x0 REVERT JUMPDEST SWAP1 PUSH1 0x7F AND SWAP1 PUSH3 0x103 JUMP JUMPDEST PUSH1 0x41 DUP7 PUSH4 0x4E487B71 PUSH1 0xE0 SHL PUSH1 0x0 MSTORE MSTORE PUSH1 0x24 PUSH1 0x0 REVERT JUMPDEST PUSH4 0x4E487B71 PUSH1 0xE0 SHL PUSH1 0x0 MSTORE PUSH1 0x41 PUSH1 0x4 MSTORE PUSH1 0x24 PUSH1 0x0 REVERT JUMPDEST PUSH1 0x0 DUP1 REVERT JUMPDEST PUSH1 0x40 DUP1 MLOAD SWAP2 SWAP1 DUP3 ADD PUSH1 0x1 PUSH1 0x1 PUSH1 0x40 SHL SUB DUP2 GT DUP4 DUP3 LT OR PUSH3 0x536 JUMPI PUSH1 0x40 MSTORE JUMP INVALID PUSH1 0x80 PUSH1 0x40 MSTORE PUSH1 0x4 CALLDATASIZE LT ISZERO PUSH2 0x12 JUMPI PUSH1 0x0 DUP1 REVERT JUMPDEST PUSH1 0x0 CALLDATALOAD PUSH1 0xE0 SHR DUP1 PUSH4 0x4F3CD1E EQ PUSH2 0x816 JUMPI DUP1 PUSH4 0x1CA6D933 EQ PUSH2 0x6F5 JUMPI DUP1 PUSH4 0x2996D265 EQ PUSH2 0x6B0 JUMPI DUP1 PUSH4 0x62793C17 EQ PUSH2 0x54C JUMPI DUP1 PUSH4 0x8DA5CB5B EQ PUSH2 0x523 JUMPI DUP1 PUSH4 0x8E96D94E EQ PUSH2 0x42E JUMPI DUP1 PUSH4 0x942F0DE6 EQ PUSH2 0x3EC JUMPI DUP1 PUSH4 0x95A8C58D EQ PUSH2 0x371 JUMPI DUP1 PUSH4 0x95C33652 EQ PUSH2 0x2C6 JUMPI DUP1 PUSH4 0xD3E83A08 EQ PUSH2 0x1FE JUMPI DUP1 PUSH4 0xD50F6D3A EQ PUSH2 0x15F JUMPI DUP1 PUSH4 0xE79D0860 EQ PUSH2 0x141 JUMPI PUSH4 0xF2FDE38B EQ PUSH2 0xAB JUMPI PUSH1 0x0 DUP1 REVERT JUMPDEST CALLVALUE PUSH2 0x13C JUMPI PUSH1 0x20 CALLDATASIZE PUSH1 0x3 NOT ADD SLT PUSH2 0x13C JUMPI PUSH2 0xC4 PUSH2 0xD7F JUMP JUMPDEST PUSH1 0x0 SLOAD SWAP1 PUSH1 0x1 PUSH1 0x1 PUSH1 0xA0 SHL SUB SWAP1 DUP2 DUP4 AND CALLER SUB PUSH2 0xF7 JUMPI AND SWAP1 PUSH2 0xE7 DUP3 ISZERO ISZERO PUSH2 0xFDA JUMP JUMPDEST PUSH1 0x1 PUSH1 0x1 PUSH1 0xA0 SHL SUB NOT AND OR PUSH1 0x0 SSTORE STOP JUMPDEST PUSH1 0x40 MLOAD PUSH3 0x461BCD PUSH1 0xE5 SHL DUP2 MSTORE PUSH1 0x20 PUSH1 0x4 DUP3 ADD MSTORE PUSH1 0x18 PUSH1 0x24 DUP3 ADD MSTORE PUSH32 0x416363657373436F6E74726F6C3A206E6F74206F776E65720000000000000000 PUSH1 0x44 DUP3 ADD MSTORE PUSH1 0x64 SWAP1 REVERT JUMPDEST PUSH1 0x0 DUP1 REVERT JUMPDEST CALLVALUE PUSH2 0x13C JUMPI PUSH1 0x0 CALLDATASIZE PUSH1 0x3 NOT ADD SLT PUSH2 0x13C JUMPI PUSH1 0x20 PUSH1 0x1 SLOAD PUSH1 0x40 MLOAD SWAP1 DUP2 MSTORE RETURN JUMPDEST CALLVALUE PUSH2 0x13C JUMPI PUSH1 0x20 CALLDATASIZE PUSH1 0x3 NOT ADD SLT PUSH2 0x13C JUMPI PUSH1 0x1 PUSH1 0x1 PUSH1 0xA0 SHL SUB PUSH2 0x180 PUSH2 0xD7F JUMP JUMPDEST AND PUSH1 0x0 MSTORE PUSH1 0x2 PUSH1 0x20 MSTORE PUSH2 0x1CC PUSH1 0x40 PUSH1 0x0 KECCAK256 PUSH1 0x3 DUP2 ADD SLOAD PUSH1 0x4 DUP3 ADD SLOAD PUSH1 0xFF PUSH2 0x1DA PUSH2 0x1B8 PUSH1 0x2 PUSH2 0x1B1 PUSH1 0x1 DUP9 ADD PUSH2 0xE9B JUMP JUMPDEST SWAP7 ADD PUSH2 0xE9B JUMP JUMPDEST PUSH1 0x40 MLOAD SWAP7 DUP8 SWAP7 PUSH1 0xA0 DUP9 MSTORE PUSH1 0xA0 DUP9 ADD SWAP1 PUSH2 0xF41 JUMP JUMPDEST SWAP1 DUP7 DUP3 SUB PUSH1 0x20 DUP9 ADD MSTORE PUSH2 0xF41 JUMP JUMPDEST SWAP3 PUSH2 0x1EA PUSH1 0x40 DUP7 ADD DUP4 DUP4 AND PUSH2 0xF81 JUMP JUMPDEST PUSH1 0x8 SHR AND ISZERO ISZERO PUSH1 0x60 DUP5 ADD MSTORE PUSH1 0x80 DUP4 ADD MSTORE SUB SWAP1 RETURN JUMPDEST CALLVALUE PUSH2 0x13C JUMPI PUSH1 0x0 CALLDATASIZE PUSH1 0x3 NOT ADD SLT PUSH2 0x13C JUMPI PUSH1 0x40 MLOAD DUP1 PUSH1 0x3 SLOAD DUP1 DUP4 MSTORE PUSH1 0x20 DUP1 SWAP4 ADD DUP1 SWAP2 PUSH1 0x3 PUSH1 0x0 MSTORE PUSH32 0xC2575A0E9E593C00F959F8C92F12DB2869C3395A3B0502D05E2516446F71F85B SWAP1 PUSH1 0x0 JUMPDEST DUP7 DUP3 DUP3 LT PUSH2 0x2A9 JUMPI DUP7 DUP7 PUSH2 0x260 DUP3 DUP9 SUB DUP4 PUSH2 0xE79 JUMP JUMPDEST PUSH1 0x40 MLOAD SWAP3 DUP4 SWAP3 DUP2 DUP5 ADD SWAP1 DUP3 DUP6 MSTORE MLOAD DUP1 SWAP2 MSTORE PUSH1 0x40 DUP5 ADD SWAP3 SWAP2 PUSH1 0x0 JUMPDEST DUP3 DUP2 LT PUSH2 0x289 JUMPI POP POP POP POP SUB SWAP1 RETURN JUMPDEST DUP4 MLOAD PUSH1 0x1 PUSH1 0x1 PUSH1 0xA0 SHL SUB AND DUP6 MSTORE DUP7 SWAP6 POP SWAP4 DUP2 ADD SWAP4 SWAP3 DUP2 ADD SWAP3 PUSH1 0x1 ADD PUSH2 0x27A JUMP JUMPDEST DUP4 SLOAD PUSH1 0x1 PUSH1 0x1 PUSH1 0xA0 SHL SUB AND DUP6 MSTORE SWAP1 SWAP4 ADD SWAP3 PUSH1 0x1 SWAP3 DUP4 ADD SWAP3 ADD PUSH2 0x24A JUMP JUMPDEST CALLVALUE PUSH2 0x13C JUMPI PUSH1 0x20 CALLDATASIZE PUSH1 0x3 NOT ADD SLT PUSH2 0x13C JUMPI PUSH1 0x1 PUSH1 0x1 PUSH1 0xA0 SHL SUB DUP1 PUSH2 0x2E8 PUSH2 0xD7F JUMP JUMPDEST AND PUSH1 0x0 MSTORE PUSH1 0x2 PUSH1 0x20 MSTORE PUSH1 0x40 PUSH1 0x0 KECCAK256 SWAP1 DUP2 SLOAD AND PUSH2 0x306 PUSH1 0x1 DUP4 ADD PUSH2 0xE9B JUMP JUMPDEST SWAP2 PUSH2 0x313 PUSH1 0x2 DUP3 ADD PUSH2 0xE9B JUMP JUMPDEST PUSH1 0xFF PUSH2 0x34D PUSH1 0x4 PUSH1 0x3 DUP6 ADD SLOAD SWAP5 ADD SLOAD SWAP3 PUSH2 0x33F PUSH1 0x40 MLOAD SWAP8 DUP9 SWAP8 DUP9 MSTORE PUSH1 0xC0 PUSH1 0x20 DUP10 ADD MSTORE PUSH1 0xC0 DUP9 ADD SWAP1 PUSH2 0xF41 JUMP JUMPDEST SWAP1 DUP7 DUP3 SUB PUSH1 0x40 DUP9 ADD MSTORE PUSH2 0xF41 JUMP JUMPDEST SWAP3 PUSH2 0x35D PUSH1 0x60 DUP7 ADD DUP4 DUP4 AND PUSH2 0xF81 JUMP JUMPDEST PUSH1 0x8 SHR AND ISZERO ISZERO PUSH1 0x80 DUP5 ADD MSTORE PUSH1 0xA0 DUP4 ADD MSTORE SUB SWAP1 RETURN JUMPDEST CALLVALUE PUSH2 0x13C JUMPI PUSH2 0x37F CALLDATASIZE PUSH2 0xDC3 JUMP JUMPDEST SWAP1 PUSH1 0x1 DUP1 PUSH1 0xA0 SHL SUB AND PUSH1 0x0 MSTORE PUSH1 0x2 PUSH1 0x20 MSTORE PUSH1 0x3 PUSH1 0x40 PUSH1 0x0 KECCAK256 ADD SLOAD PUSH1 0xFF DUP2 PUSH1 0x8 SHR AND SWAP1 DUP2 PUSH2 0x3B4 JUMPI JUMPDEST PUSH1 0x20 DUP3 PUSH1 0x40 MLOAD SWAP1 ISZERO ISZERO DUP2 MSTORE RETURN JUMPDEST PUSH1 0xFF SWAP2 POP AND SWAP1 PUSH1 0x5 DUP2 LT ISZERO PUSH2 0x3D6 JUMPI PUSH1 0x5 DUP3 LT ISZERO PUSH2 0x3D6 JUMPI PUSH1 0x20 SWAP2 EQ DUP3 PUSH2 0x3A7 JUMP JUMPDEST PUSH4 0x4E487B71 PUSH1 0xE0 SHL PUSH1 0x0 MSTORE PUSH1 0x21 PUSH1 0x4 MSTORE PUSH1 0x24 PUSH1 0x0 REVERT JUMPDEST CALLVALUE PUSH2 0x13C JUMPI PUSH1 0x20 CALLDATASIZE PUSH1 0x3 NOT ADD SLT PUSH2 0x13C JUMPI PUSH1 0x4 CALLDATALOAD PUSH1 0x3 SLOAD DUP2 LT ISZERO PUSH2 0x13C JUMPI PUSH2 0x415 PUSH1 0x20 SWAP2 PUSH2 0xDF2 JUMP JUMPDEST SWAP1 SLOAD PUSH1 0x40 MLOAD PUSH1 0x3 SWAP3 SWAP1 SWAP3 SHL SHR PUSH1 0x1 PUSH1 0x1 PUSH1 0xA0 SHL SUB AND DUP2 MSTORE RETURN JUMPDEST CALLVALUE PUSH2 0x13C JUMPI PUSH2 0x43C CALLDATASIZE PUSH2 0xDC3 JUMP JUMPDEST PUSH1 0x0 SLOAD SWAP1 SWAP2 PUSH1 0x1 PUSH1 0x1 PUSH1 0xA0 SHL SUB SWAP2 DUP3 AND CALLER EQ DUP1 ISZERO PUSH2 0x4FC JUMPI JUMPDEST PUSH2 0x45E SWAP1 PUSH2 0xF8E JUMP JUMPDEST AND SWAP1 DUP2 PUSH1 0x0 MSTORE PUSH1 0x2 PUSH1 0x20 MSTORE PUSH2 0x480 PUSH1 0xFF PUSH1 0x3 PUSH1 0x40 PUSH1 0x0 KECCAK256 ADD SLOAD PUSH1 0x8 SHR AND PUSH2 0x10F2 JUMP JUMPDEST PUSH1 0x5 DUP2 LT ISZERO PUSH2 0x3D6 JUMPI PUSH1 0x60 DUP2 PUSH2 0x4B8 PUSH32 0xBB3864D65AD50221BF63F66D2C877516C2A835E23EBCDAEE64D6743D2E7731FC SWAP4 ISZERO ISZERO PUSH2 0x1026 JUMP JUMPDEST DUP4 PUSH1 0x0 MSTORE PUSH1 0x2 PUSH1 0x20 MSTORE PUSH2 0x4F3 PUSH1 0x3 PUSH1 0x40 PUSH1 0x0 KECCAK256 ADD SWAP2 PUSH2 0x4DC DUP2 PUSH1 0xFF DUP6 SLOAD AND SWAP5 PUSH2 0x10B9 JUMP JUMPDEST PUSH2 0x4E9 PUSH1 0x40 MLOAD DUP1 SWAP5 PUSH2 0xF81 JUMP JUMPDEST PUSH1 0x20 DUP4 ADD SWAP1 PUSH2 0xF81 JUMP JUMPDEST TIMESTAMP PUSH1 0x40 DUP3 ADD MSTORE LOG2 STOP JUMPDEST POP CALLER PUSH1 0x0 MSTORE PUSH1 0x2 PUSH1 0x20 MSTORE PUSH1 0xFF PUSH1 0x3 PUSH1 0x40 PUSH1 0x0 KECCAK256 ADD SLOAD AND PUSH1 0x5 DUP2 LT ISZERO PUSH2 0x3D6 JUMPI PUSH1 0x4 EQ PUSH2 0x455 JUMP JUMPDEST CALLVALUE PUSH2 0x13C JUMPI PUSH1 0x0 CALLDATASIZE PUSH1 0x3 NOT ADD SLT PUSH2 0x13C JUMPI PUSH1 0x0 SLOAD PUSH1 0x40 MLOAD PUSH1 0x1 PUSH1 0x1 PUSH1 0xA0 SHL SUB SWAP1 SWAP2 AND DUP2 MSTORE PUSH1 0x20 SWAP1 RETURN JUMPDEST CALLVALUE PUSH2 0x13C JUMPI PUSH1 0x20 DUP1 PUSH1 0x3 NOT CALLDATASIZE ADD SLT PUSH2 0x13C JUMPI PUSH2 0x566 PUSH2 0xD7F JUMP JUMPDEST PUSH1 0x0 SLOAD PUSH1 0x1 PUSH1 0x1 PUSH1 0xA0 SHL SUB SWAP2 SWAP1 DUP3 AND CALLER EQ DUP1 ISZERO PUSH2 0x68A JUMPI JUMPDEST PUSH2 0x587 SWAP1 PUSH2 0xF8E JUMP JUMPDEST AND SWAP1 DUP2 PUSH1 0x0 MSTORE PUSH1 0x2 DUP2 MSTORE PUSH1 0xFF PUSH1 0x3 PUSH1 0x40 PUSH1 0x0 KECCAK256 ADD SLOAD PUSH1 0x8 SHR AND PUSH2 0x646 JUMPI DUP2 PUSH1 0x0 MSTORE PUSH1 0x2 DUP2 MSTORE PUSH1 0x4 PUSH1 0x40 PUSH1 0x0 KECCAK256 ADD SLOAD ISZERO PUSH2 0x602 JUMPI PUSH32 0x8BEDFCAF07943F5E64AD4F1AB6722DC18560055D0A45AD0599329DBC9C4BD08E SWAP1 DUP3 PUSH1 0x0 MSTORE PUSH1 0x2 DUP2 MSTORE PUSH1 0x3 PUSH1 0x40 PUSH1 0x0 KECCAK256 ADD PUSH2 0x100 PUSH2 0xFF00 NOT DUP3 SLOAD AND OR SWAP1 SSTORE PUSH1 0x40 MLOAD TIMESTAMP DUP2 MSTORE LOG2 STOP JUMPDEST PUSH1 0x64 SWAP1 PUSH1 0x40 MLOAD SWAP1 PUSH3 0x461BCD PUSH1 0xE5 SHL DUP3 MSTORE PUSH1 0x4 DUP3 ADD MSTORE PUSH1 0x1D PUSH1 0x24 DUP3 ADD MSTORE PUSH32 0x416363657373436F6E74726F6C3A206E6F742072656769737465726564000000 PUSH1 0x44 DUP3 ADD MSTORE REVERT JUMPDEST PUSH1 0x64 SWAP1 PUSH1 0x40 MLOAD SWAP1 PUSH3 0x461BCD PUSH1 0xE5 SHL DUP3 MSTORE PUSH1 0x4 DUP3 ADD MSTORE PUSH1 0x1D PUSH1 0x24 DUP3 ADD MSTORE PUSH32 0x416363657373436F6E74726F6C3A20616C726561647920616374697665000000 PUSH1 0x44 DUP3 ADD MSTORE REVERT JUMPDEST POP CALLER PUSH1 0x0 MSTORE PUSH1 0x2 DUP4 MSTORE PUSH1 0xFF PUSH1 0x3 PUSH1 0x40 PUSH1 0x0 KECCAK256 ADD SLOAD AND PUSH1 0x5 DUP2 LT ISZERO PUSH2 0x3D6 JUMPI PUSH1 0x4 EQ PUSH2 0x57E JUMP JUMPDEST CALLVALUE PUSH2 0x13C JUMPI PUSH1 0x20 CALLDATASIZE PUSH1 0x3 NOT ADD SLT PUSH2 0x13C JUMPI PUSH1 0x1 PUSH1 0x1 PUSH1 0xA0 SHL SUB PUSH2 0x6D1 PUSH2 0xD7F JUMP JUMPDEST AND PUSH1 0x0 MSTORE PUSH1 0x2 PUSH1 0x20 MSTORE PUSH1 0x20 PUSH1 0xFF PUSH1 0x3 PUSH1 0x40 PUSH1 0x0 KECCAK256 ADD SLOAD PUSH1 0x8 SHR AND PUSH1 0x40 MLOAD SWAP1 ISZERO ISZERO DUP2 MSTORE RETURN JUMPDEST CALLVALUE PUSH2 0x13C JUMPI PUSH1 0x20 DUP1 PUSH1 0x3 NOT CALLDATASIZE ADD SLT PUSH2 0x13C JUMPI PUSH2 0x70F PUSH2 0xD7F JUMP JUMPDEST PUSH1 0x0 SLOAD PUSH1 0x1 PUSH1 0x1 PUSH1 0xA0 SHL SUB SWAP1 DUP2 AND SWAP3 SWAP2 CALLER DUP5 EQ DUP1 ISZERO PUSH2 0x7F0 JUMPI JUMPDEST PUSH2 0x732 SWAP1 PUSH2 0xF8E JUMP JUMPDEST AND SWAP2 DUP3 PUSH1 0x0 MSTORE PUSH1 0x2 DUP3 MSTORE PUSH2 0x753 PUSH1 0xFF PUSH1 0x3 PUSH1 0x40 PUSH1 0x0 KECCAK256 ADD SLOAD PUSH1 0x8 SHR AND PUSH2 0x10F2 JUMP JUMPDEST DUP3 EQ PUSH2 0x79D JUMPI PUSH32 0xB338CA22C5BA1F33B3AB132791DEF695963ED794F28E40191EE1BFA4B355F0B5 SWAP1 DUP3 PUSH1 0x0 MSTORE PUSH1 0x2 DUP2 MSTORE PUSH1 0x3 PUSH1 0x40 PUSH1 0x0 KECCAK256 ADD PUSH2 0xFF00 NOT DUP2 SLOAD AND SWAP1 SSTORE PUSH1 0x40 MLOAD TIMESTAMP DUP2 MSTORE LOG2 STOP JUMPDEST PUSH1 0x84 SWAP1 PUSH1 0x40 MLOAD SWAP1 PUSH3 0x461BCD PUSH1 0xE5 SHL DUP3 MSTORE PUSH1 0x4 DUP3 ADD MSTORE PUSH1 0x26 PUSH1 0x24 DUP3 ADD MSTORE PUSH32 0x416363657373436F6E74726F6C3A2063616E6E6F742064656163746976617465 PUSH1 0x44 DUP3 ADD MSTORE PUSH6 0x1037BBB732B9 PUSH1 0xD1 SHL PUSH1 0x64 DUP3 ADD MSTORE REVERT JUMPDEST POP CALLER PUSH1 0x0 MSTORE PUSH1 0x2 DUP4 MSTORE PUSH1 0xFF PUSH1 0x3 PUSH1 0x40 PUSH1 0x0 KECCAK256 ADD SLOAD AND PUSH1 0x5 DUP2 LT ISZERO PUSH2 0x3D6 JUMPI PUSH1 0x4 EQ PUSH2 0x729 JUMP JUMPDEST CALLVALUE PUSH2 0x13C JUMPI PUSH1 0x80 CALLDATASIZE PUSH1 0x3 NOT ADD SLT PUSH2 0x13C JUMPI PUSH2 0x82F PUSH2 0xD7F JUMP JUMPDEST PUSH1 0x24 CALLDATALOAD PUSH8 0xFFFFFFFFFFFFFFFF DUP2 GT PUSH2 0x13C JUMPI PUSH2 0x84F SWAP1 CALLDATASIZE SWAP1 PUSH1 0x4 ADD PUSH2 0xD95 JUMP JUMPDEST SWAP1 PUSH1 0x44 CALLDATALOAD PUSH8 0xFFFFFFFFFFFFFFFF DUP2 GT PUSH2 0x13C JUMPI PUSH2 0x870 SWAP1 CALLDATASIZE SWAP1 PUSH1 0x4 ADD PUSH2 0xD95 JUMP JUMPDEST SWAP3 SWAP1 PUSH1 0x5 PUSH1 0x64 CALLDATALOAD LT ISZERO PUSH2 0x13C JUMPI PUSH1 0x0 SLOAD PUSH1 0x1 PUSH1 0x1 PUSH1 0xA0 SHL SUB AND CALLER EQ DUP1 ISZERO PUSH2 0xD58 JUMPI JUMPDEST PUSH2 0x89B SWAP1 PUSH2 0xF8E JUMP JUMPDEST PUSH2 0x8AF PUSH1 0x1 PUSH1 0x1 PUSH1 0xA0 SHL SUB DUP7 AND ISZERO ISZERO PUSH2 0xFDA JUMP JUMPDEST PUSH1 0x1 PUSH1 0x1 PUSH1 0xA0 SHL SUB DUP6 AND PUSH1 0x0 SWAP1 DUP2 MSTORE PUSH1 0x2 PUSH1 0x20 MSTORE PUSH1 0x40 SWAP1 KECCAK256 PUSH1 0x3 ADD SLOAD PUSH1 0x8 SHR PUSH1 0xFF AND PUSH2 0xD09 JUMPI PUSH2 0x8E2 PUSH1 0x64 CALLDATALOAD ISZERO ISZERO PUSH2 0x1026 JUMP JUMPDEST PUSH1 0x40 MLOAD DUP1 PUSH1 0xC0 DUP2 ADD LT PUSH8 0xFFFFFFFFFFFFFFFF PUSH1 0xC0 DUP4 ADD GT OR PUSH2 0xB53 JUMPI PUSH1 0xC0 DUP2 ADD PUSH1 0x40 MSTORE PUSH1 0x1 PUSH1 0x1 PUSH1 0xA0 SHL SUB DUP7 AND DUP2 MSTORE PUSH2 0x91C CALLDATASIZE DUP5 DUP7 PUSH2 0x1072 JUMP JUMPDEST PUSH1 0x20 DUP3 ADD MSTORE PUSH2 0x92C CALLDATASIZE DUP7 DUP5 PUSH2 0x1072 JUMP JUMPDEST PUSH1 0x40 DUP3 ADD MSTORE PUSH1 0x64 CALLDATALOAD PUSH1 0x60 DUP3 ADD MSTORE PUSH1 0x1 PUSH1 0x80 DUP3 ADD MSTORE TIMESTAMP PUSH1 0xA0 DUP3 ADD MSTORE PUSH1 0x1 DUP1 PUSH1 0xA0 SHL SUB DUP7 AND PUSH1 0x0 MSTORE PUSH1 0x2 PUSH1 0x20 MSTORE PUSH1 0x40 PUSH1 0x0 KECCAK256 SWAP1 PUSH1 0x1 DUP1 PUSH1 0xA0 SHL SUB DUP2 MLOAD AND PUSH12 0xFFFFFFFFFFFFFFFFFFFFFFFF PUSH1 0xA0 SHL DUP4 SLOAD AND OR DUP3 SSTORE PUSH1 0x20 DUP2 ADD MLOAD DUP1 MLOAD SWAP1 PUSH8 0xFFFFFFFFFFFFFFFF DUP3 GT PUSH2 0xB53 JUMPI DUP2 SWAP1 PUSH2 0x9A3 PUSH1 0x1 DUP7 ADD SLOAD PUSH2 0xE3F JUMP JUMPDEST PUSH1 0x1F DUP2 GT PUSH2 0xCB6 JUMPI JUMPDEST POP PUSH1 0x20 SWAP1 PUSH1 0x1F DUP4 GT PUSH1 0x1 EQ PUSH2 0xC44 JUMPI PUSH1 0x0 SWAP3 PUSH2 0xC39 JUMPI JUMPDEST POP POP DUP2 PUSH1 0x1 SHL SWAP2 PUSH1 0x0 NOT SWAP1 PUSH1 0x3 SHL SHR NOT AND OR PUSH1 0x1 DUP4 ADD SSTORE JUMPDEST PUSH1 0x40 DUP2 ADD MLOAD DUP1 MLOAD SWAP1 PUSH8 0xFFFFFFFFFFFFFFFF DUP3 GT PUSH2 0xB53 JUMPI DUP2 SWAP1 PUSH2 0xA01 PUSH1 0x2 DUP7 ADD SLOAD PUSH2 0xE3F JUMP JUMPDEST PUSH1 0x1F DUP2 GT PUSH2 0xBE6 JUMPI JUMPDEST POP PUSH1 0x20 SWAP1 PUSH1 0x1F DUP4 GT PUSH1 0x1 EQ PUSH2 0xB74 JUMPI PUSH1 0x0 SWAP3 PUSH2 0xB69 JUMPI JUMPDEST POP POP DUP2 PUSH1 0x1 SHL SWAP2 PUSH1 0x0 NOT SWAP1 PUSH1 0x3 SHL SHR NOT AND OR PUSH1 0x2 DUP4 ADD SSTORE JUMPDEST PUSH1 0x60 DUP2 ADD MLOAD PUSH1 0x3 DUP4 ADD SWAP2 PUSH1 0x5 DUP3 LT ISZERO PUSH2 0x3D6 JUMPI DUP3 PUSH2 0xA5B PUSH1 0xA0 SWAP4 PUSH1 0x4 SWAP6 PUSH2 0x10B9 JUMP JUMPDEST PUSH1 0x80 DUP3 ADD MLOAD DUP2 SLOAD PUSH2 0xFF00 NOT AND SWAP1 ISZERO ISZERO PUSH1 0x8 SHL PUSH2 0xFF00 AND OR SWAP1 SSTORE ADD MLOAD SWAP2 ADD SSTORE PUSH1 0x3 SLOAD PUSH9 0x10000000000000000 DUP2 LT ISZERO PUSH2 0xB53 JUMPI DUP1 PUSH1 0x1 PUSH2 0xA9D SWAP3 ADD PUSH1 0x3 SSTORE PUSH2 0xDF2 JUMP JUMPDEST DUP2 SLOAD PUSH1 0x1 PUSH1 0x1 PUSH1 0xA0 SHL SUB DUP9 DUP2 AND PUSH1 0x3 SWAP4 SWAP1 SWAP4 SHL SWAP3 DUP4 SHL SWAP3 SHL NOT AND OR SWAP1 SSTORE PUSH1 0x1 SLOAD SWAP1 PUSH1 0x0 NOT DUP3 EQ PUSH2 0xB3D JUMPI PUSH32 0x5BE57917B18770220C2E6B1FD41805485DE57550982C5FCC3FD89D580B3320E9 SWAP5 PUSH1 0x1 PUSH2 0xB18 SWAP4 ADD PUSH1 0x1 SSTORE PUSH2 0xB0A PUSH1 0x40 MLOAD SWAP6 DUP7 SWAP6 PUSH1 0x80 DUP8 MSTORE PUSH1 0x80 DUP8 ADD SWAP2 PUSH2 0x10D1 JUMP JUMPDEST SWAP2 DUP5 DUP4 SUB PUSH1 0x20 DUP7 ADD MSTORE PUSH2 0x10D1 JUMP JUMPDEST SWAP4 PUSH2 0xB28 PUSH1 0x40 DUP4 ADD PUSH1 0x64 CALLDATALOAD PUSH2 0xF81 JUMP JUMPDEST TIMESTAMP PUSH1 0x60 DUP4 ADD MSTORE PUSH1 0x1 PUSH1 0x1 PUSH1 0xA0 SHL SUB AND SWAP4 SUB SWAP1 LOG2 STOP JUMPDEST PUSH4 0x4E487B71 PUSH1 0xE0 SHL PUSH1 0x0 MSTORE PUSH1 0x11 PUSH1 0x4 MSTORE PUSH1 0x24 PUSH1 0x0 REVERT JUMPDEST PUSH4 0x4E487B71 PUSH1 0xE0 SHL PUSH1 0x0 MSTORE PUSH1 0x41 PUSH1 0x4 MSTORE PUSH1 0x24 PUSH1 0x0 REVERT JUMPDEST ADD MLOAD SWAP1 POP DUP10 DUP1 PUSH2 0xA21 JUMP JUMPDEST SWAP3 POP PUSH1 0x2 DUP6 ADD PUSH1 0x0 MSTORE PUSH1 0x20 PUSH1 0x0 KECCAK256 SWAP1 PUSH1 0x0 SWAP4 JUMPDEST PUSH1 0x1F NOT DUP5 AND DUP6 LT PUSH2 0xBCB JUMPI PUSH1 0x1 SWAP5 POP DUP4 PUSH1 0x1F NOT DUP2 AND LT PUSH2 0xBB2 JUMPI JUMPDEST POP POP POP DUP2 SHL ADD PUSH1 0x2 DUP4 ADD SSTORE PUSH2 0xA39 JUMP JUMPDEST ADD MLOAD PUSH1 0x0 NOT PUSH1 0xF8 DUP5 PUSH1 0x3 SHL AND SHR NOT AND SWAP1 SSTORE DUP10 DUP1 DUP1 PUSH2 0xBA2 JUMP JUMPDEST DUP2 DUP2 ADD MLOAD DUP4 SSTORE PUSH1 0x20 SWAP5 DUP6 ADD SWAP5 PUSH1 0x1 SWAP1 SWAP4 ADD SWAP3 SWAP1 SWAP2 ADD SWAP1 PUSH2 0xB87 JUMP JUMPDEST SWAP1 SWAP2 POP PUSH1 0x2 DUP6 ADD PUSH1 0x0 MSTORE PUSH1 0x20 PUSH1 0x0 KECCAK256 PUSH1 0x1F DUP5 ADD PUSH1 0x5 SHR DUP2 ADD PUSH1 0x20 DUP6 LT PUSH2 0xC32 JUMPI JUMPDEST SWAP1 DUP5 SWAP4 SWAP3 SWAP2 JUMPDEST PUSH1 0x1F DUP4 ADD PUSH1 0x5 SHR DUP3 ADD DUP2 LT PUSH2 0xC23 JUMPI POP POP PUSH2 0xA0A JUMP JUMPDEST PUSH1 0x0 DUP2 SSTORE DUP6 SWAP5 POP PUSH1 0x1 ADD PUSH2 0xC0D JUMP JUMPDEST POP DUP1 PUSH2 0xC07 JUMP JUMPDEST ADD MLOAD SWAP1 POP DUP10 DUP1 PUSH2 0x9C3 JUMP JUMPDEST SWAP3 POP PUSH1 0x1 DUP6 ADD PUSH1 0x0 MSTORE PUSH1 0x20 PUSH1 0x0 KECCAK256 SWAP1 PUSH1 0x0 SWAP4 JUMPDEST PUSH1 0x1F NOT DUP5 AND DUP6 LT PUSH2 0xC9B JUMPI PUSH1 0x1 SWAP5 POP DUP4 PUSH1 0x1F NOT DUP2 AND LT PUSH2 0xC82 JUMPI JUMPDEST POP POP POP DUP2 SHL ADD PUSH1 0x1 DUP4 ADD SSTORE PUSH2 0x9DB JUMP JUMPDEST ADD MLOAD PUSH1 0x0 NOT PUSH1 0xF8 DUP5 PUSH1 0x3 SHL AND SHR NOT AND SWAP1 SSTORE DUP10 DUP1 DUP1 PUSH2 0xC72 JUMP JUMPDEST DUP2 DUP2 ADD MLOAD DUP4 SSTORE PUSH1 0x20 SWAP5 DUP6 ADD SWAP5 PUSH1 0x1 SWAP1 SWAP4 ADD SWAP3 SWAP1 SWAP2 ADD SWAP1 PUSH2 0xC57 JUMP JUMPDEST SWAP1 SWAP2 POP PUSH1 0x1 DUP6 ADD PUSH1 0x0 MSTORE PUSH1 0x20 PUSH1 0x0 KECCAK256 PUSH1 0x1F DUP5 ADD PUSH1 0x5 SHR DUP2 ADD PUSH1 0x20 DUP6 LT PUSH2 0xD02 JUMPI JUMPDEST SWAP1 DUP5 SWAP4 SWAP3 SWAP2 JUMPDEST PUSH1 0x1F DUP4 ADD PUSH1 0x5 SHR DUP3 ADD DUP2 LT PUSH2 0xCF3 JUMPI POP POP PUSH2 0x9AC JUMP JUMPDEST PUSH1 0x0 DUP2 SSTORE DUP6 SWAP5 POP PUSH1 0x1 ADD PUSH2 0xCDD JUMP JUMPDEST POP DUP1 PUSH2 0xCD7 JUMP JUMPDEST PUSH1 0x40 MLOAD PUSH3 0x461BCD PUSH1 0xE5 SHL DUP2 MSTORE PUSH1 0x20 PUSH1 0x4 DUP3 ADD MSTORE PUSH1 0x21 PUSH1 0x24 DUP3 ADD MSTORE PUSH32 0x416363657373436F6E74726F6C3A20616C726561647920726567697374657265 PUSH1 0x44 DUP3 ADD MSTORE PUSH1 0x19 PUSH1 0xFA SHL PUSH1 0x64 DUP3 ADD MSTORE PUSH1 0x84 SWAP1 REVERT JUMPDEST POP CALLER PUSH1 0x0 MSTORE PUSH1 0x2 PUSH1 0x20 MSTORE PUSH1 0xFF PUSH1 0x3 PUSH1 0x40 PUSH1 0x0 KECCAK256 ADD SLOAD AND PUSH1 0x5 DUP2 LT ISZERO PUSH2 0x3D6 JUMPI PUSH1 0x4 EQ PUSH2 0x892 JUMP JUMPDEST PUSH1 0x4 CALLDATALOAD SWAP1 PUSH1 0x1 PUSH1 0x1 PUSH1 0xA0 SHL SUB DUP3 AND DUP3 SUB PUSH2 0x13C JUMPI JUMP JUMPDEST SWAP2 DUP2 PUSH1 0x1F DUP5 ADD SLT ISZERO PUSH2 0x13C JUMPI DUP3 CALLDATALOAD SWAP2 PUSH8 0xFFFFFFFFFFFFFFFF DUP4 GT PUSH2 0x13C JUMPI PUSH1 0x20 DUP4 DUP2 DUP7 ADD SWAP6 ADD ADD GT PUSH2 0x13C JUMPI JUMP JUMPDEST PUSH1 0x40 SWAP1 PUSH1 0x3 NOT ADD SLT PUSH2 0x13C JUMPI PUSH1 0x4 CALLDATALOAD PUSH1 0x1 PUSH1 0x1 PUSH1 0xA0 SHL SUB DUP2 AND DUP2 SUB PUSH2 0x13C JUMPI SWAP1 PUSH1 0x24 CALLDATALOAD PUSH1 0x5 DUP2 LT ISZERO PUSH2 0x13C JUMPI SWAP1 JUMP JUMPDEST PUSH1 0x3 SLOAD DUP2 LT ISZERO PUSH2 0xE29 JUMPI PUSH1 0x3 PUSH1 0x0 MSTORE PUSH32 0xC2575A0E9E593C00F959F8C92F12DB2869C3395A3B0502D05E2516446F71F85B ADD SWAP1 PUSH1 0x0 SWAP1 JUMP JUMPDEST PUSH4 0x4E487B71 PUSH1 0xE0 SHL PUSH1 0x0 MSTORE PUSH1 0x32 PUSH1 0x4 MSTORE PUSH1 0x24 PUSH1 0x0 REVERT JUMPDEST SWAP1 PUSH1 0x1 DUP3 DUP2 SHR SWAP3 AND DUP1 ISZERO PUSH2 0xE6F JUMPI JUMPDEST PUSH1 0x20 DUP4 LT EQ PUSH2 0xE59 JUMPI JUMP JUMPDEST PUSH4 0x4E487B71 PUSH1 0xE0 SHL PUSH1 0x0 MSTORE PUSH1 0x22 PUSH1 0x4 MSTORE PUSH1 0x24 PUSH1 0x0 REVERT JUMPDEST SWAP2 PUSH1 0x7F AND SWAP2 PUSH2 0xE4E JUMP JUMPDEST SWAP1 PUSH1 0x1F DUP1 NOT SWAP2 ADD AND DUP2 ADD SWAP1 DUP2 LT PUSH8 0xFFFFFFFFFFFFFFFF DUP3 GT OR PUSH2 0xB53 JUMPI PUSH1 0x40 MSTORE JUMP JUMPDEST SWAP1 PUSH1 0x40 MLOAD SWAP2 DUP3 PUSH1 0x0 DUP3 SLOAD SWAP3 PUSH2 0xEAF DUP5 PUSH2 0xE3F JUMP JUMPDEST SWAP1 DUP2 DUP5 MSTORE PUSH1 0x1 SWAP5 DUP6 DUP2 AND SWAP1 DUP2 PUSH1 0x0 EQ PUSH2 0xF1E JUMPI POP PUSH1 0x1 EQ PUSH2 0xEDB JUMPI JUMPDEST POP POP PUSH2 0xED9 SWAP3 POP SUB DUP4 PUSH2 0xE79 JUMP JUMPDEST JUMP JUMPDEST SWAP1 SWAP4 SWAP2 POP PUSH1 0x0 MSTORE PUSH1 0x20 SWAP1 DUP2 PUSH1 0x0 KECCAK256 SWAP4 PUSH1 0x0 SWAP2 JUMPDEST DUP2 DUP4 LT PUSH2 0xF06 JUMPI POP POP PUSH2 0xED9 SWAP4 POP DUP3 ADD ADD CODESIZE DUP1 PUSH2 0xECB JUMP JUMPDEST DUP6 SLOAD DUP9 DUP5 ADD DUP6 ADD MSTORE SWAP5 DUP6 ADD SWAP5 DUP8 SWAP5 POP SWAP2 DUP4 ADD SWAP2 PUSH2 0xEEE JUMP JUMPDEST SWAP2 POP POP PUSH2 0xED9 SWAP5 POP PUSH1 0x20 SWAP3 POP PUSH1 0xFF NOT AND DUP3 DUP5 ADD MSTORE ISZERO ISZERO PUSH1 0x5 SHL DUP3 ADD ADD CODESIZE DUP1 PUSH2 0xECB JUMP JUMPDEST SWAP2 SWAP1 DUP3 MLOAD SWAP3 DUP4 DUP3 MSTORE PUSH1 0x0 JUMPDEST DUP5 DUP2 LT PUSH2 0xF6D JUMPI POP POP DUP3 PUSH1 0x0 PUSH1 0x20 DUP1 SWAP5 SWAP6 DUP5 ADD ADD MSTORE PUSH1 0x1F DUP1 NOT SWAP2 ADD AND ADD ADD SWAP1 JUMP JUMPDEST PUSH1 0x20 DUP2 DUP4 ADD DUP2 ADD MLOAD DUP5 DUP4 ADD DUP3 ADD MSTORE ADD PUSH2 0xF4C JUMP JUMPDEST SWAP1 PUSH1 0x5 DUP3 LT ISZERO PUSH2 0x3D6 JUMPI MSTORE JUMP JUMPDEST ISZERO PUSH2 0xF95 JUMPI JUMP JUMPDEST PUSH1 0x40 MLOAD PUSH3 0x461BCD PUSH1 0xE5 SHL DUP2 MSTORE PUSH1 0x20 PUSH1 0x4 DUP3 ADD MSTORE PUSH1 0x18 PUSH1 0x24 DUP3 ADD MSTORE PUSH32 0x416363657373436F6E74726F6C3A206E6F742061646D696E0000000000000000 PUSH1 0x44 DUP3 ADD MSTORE PUSH1 0x64 SWAP1 REVERT JUMPDEST ISZERO PUSH2 0xFE1 JUMPI JUMP JUMPDEST PUSH1 0x40 MLOAD PUSH3 0x461BCD PUSH1 0xE5 SHL DUP2 MSTORE PUSH1 0x20 PUSH1 0x4 DUP3 ADD MSTORE PUSH1 0x1B PUSH1 0x24 DUP3 ADD MSTORE PUSH32 0x416363657373436F6E74726F6C3A207A65726F20616464726573730000000000 PUSH1 0x44 DUP3 ADD MSTORE PUSH1 0x64 SWAP1 REVERT JUMPDEST ISZERO PUSH2 0x102D JUMPI JUMP JUMPDEST PUSH1 0x40 MLOAD PUSH3 0x461BCD PUSH1 0xE5 SHL DUP2 MSTORE PUSH1 0x20 PUSH1 0x4 DUP3 ADD MSTORE PUSH1 0x1B PUSH1 0x24 DUP3 ADD MSTORE PUSH32 0x416363657373436F6E74726F6C3A20696E76616C696420726F6C650000000000 PUSH1 0x44 DUP3 ADD MSTORE PUSH1 0x64 SWAP1 REVERT JUMPDEST SWAP3 SWAP2 SWAP3 PUSH8 0xFFFFFFFFFFFFFFFF DUP3 GT PUSH2 0xB53 JUMPI PUSH1 0x40 MLOAD SWAP2 PUSH2 0x109C PUSH1 0x1F DUP3 ADD PUSH1 0x1F NOT AND PUSH1 0x20 ADD DUP5 PUSH2 0xE79 JUMP JUMPDEST DUP3 SWAP5 DUP2 DUP5 MSTORE DUP2 DUP4 ADD GT PUSH2 0x13C JUMPI DUP3 DUP2 PUSH1 0x20 SWAP4 DUP5 PUSH1 0x0 SWAP7 ADD CALLDATACOPY ADD ADD MSTORE JUMP JUMPDEST SWAP1 PUSH1 0x5 DUP2 LT ISZERO PUSH2 0x3D6 JUMPI PUSH1 0xFF DUP1 NOT DUP4 SLOAD AND SWAP2 AND OR SWAP1 SSTORE JUMP JUMPDEST SWAP1 DUP1 PUSH1 0x20 SWAP4 SWAP3 DUP2 DUP5 MSTORE DUP5 DUP5 ADD CALLDATACOPY PUSH1 0x0 DUP3 DUP3 ADD DUP5 ADD MSTORE PUSH1 0x1F ADD PUSH1 0x1F NOT AND ADD ADD SWAP1 JUMP JUMPDEST ISZERO PUSH2 0x10F9 JUMPI JUMP JUMPDEST PUSH1 0x40 MLOAD PUSH3 0x461BCD PUSH1 0xE5 SHL DUP2 MSTORE PUSH1 0x20 PUSH1 0x4 DUP3 ADD MSTORE PUSH1 0x19 PUSH1 0x24 DUP3 ADD MSTORE PUSH32 0x416363657373436F6E74726F6C3A206E6F742061637469766500000000000000 PUSH1 0x44 DUP3 ADD MSTORE PUSH1 0x64 SWAP1 REVERT INVALID LOG2 PUSH5 0x6970667358 0x22 SLT KECCAK256 GT 0xAF 0xE3 0xE4 0x28 0x4B 0x2E INVALID DUP5 0xC1 0xC4 0x4B MOD MLOAD MLOAD SDIV DUP13 0xE 0xBF POP 0xF6 0xD9 DUP2 PUSH0 MSTORE8 PUSH5 0x555E40DF9E BASEFEE PUSH5 0x736F6C6343 STOP ADDMOD EQ STOP CALLER "},"methodIdentifiers":{"deactivatePartner(address)":"1ca6d933","getAllPartners()":"d3e83a08","getPartner(address)":"d50f6d3a","hasRole(address,uint8)":"95a8c58d","isActivePartner(address)":"2996d265","owner()":"8da5cb5b","partnerAddresses(uint256)":"942f0de6","partnerCount()":"e79d0860","partners(address)":"95c33652","reactivatePartner(address)":"62793c17","registerPartner(address,string,string,uint8)":"04f3cd1e","transferOwnership(address)":"f2fde38b","updateRole(address,uint8)":"8e96d94e"}}}}}