{"contracts/SnackShield.sol":{"SnackShield":{"abi":[{"inputs":[],"stateMutability":"nonpayable","type":"constructor"},{"anonymous":false,"inputs":[{"indexed":true,"internalType":"bytes32","name":"productId","type":"bytes32"},{"indexed":false,"internalType":"string","name":"alertType","type":"string"},{"indexed":false,"internalType":"string","name":"message","type":"string"},{"indexed":false,"internalType":"uint256","name":"severity","type":"uint256"},{"indexed":false,"internalType":"uint256","name":"timestamp","type":"uint256"}],"name":"AlertRaised","type":"event"},{"anonymous":false,"inputs":[{"indexed":true,"internalType":"bytes32","name":"batchHash","type":"bytes32"},{"indexed":false,"internalType":"string","name":"batchId","type":"string"},{"indexed":false,"internalType":"string","name":"productName","type":"string"},{"indexed":false,"internalType":"uint256","name":"quantity","type":"uint256"},{"indexed":true,"internalType":"address","name":"registeredBy","type":"address"},{"indexed":false,"internalType":"uint256","name":"timestamp","type":"uint256"}],"name":"BatchRegistered","type":"event"},{"anonymous":false,"inputs":[{"indexed":true,"internalType":"bytes32","name":"productId","type":"bytes32"},{"indexed":false,"internalType":"string","name":"role","type":"string"},{"indexed":false,"internalType":"string","name":"location","type":"string"},{"indexed":false,"internalType":"string","name":"status","type":"string"},{"indexed":true,"internalType":"address","name":"recorder","type":"address"},{"indexed":false,"internalType":"uint256","name":"timestamp","type":"uint256"}],"name":"JourneyUpdated","type":"event"},{"anonymous":false,"inputs":[{"indexed":true,"internalType":"address","name":"partner","type":"address"},{"indexed":false,"internalType":"uint256","name":"timestamp","type":"uint256"}],"name":"PartnerAuthorized","type":"event"},{"anonymous":false,"inputs":[{"indexed":true,"internalType":"address","name":"partner","type":"address"},{"indexed":false,"internalType":"uint256","name":"timestamp","type":"uint256"}],"name":"PartnerRevoked","type":"event"},{"anonymous":false,"inputs":[{"indexed":true,"internalType":"bytes32","name":"productId","type":"bytes32"},{"indexed":false,"internalType":"string","name":"productName","type":"string"},{"indexed":false,"internalType":"string","name":"company","type":"string"},{"indexed":false,"internalType":"string","name":"batchId","type":"string"},{"indexed":true,"internalType":"address","name":"registeredBy","type":"address"},{"indexed":false,"internalType":"uint256","name":"timestamp","type":"uint256"}],"name":"ProductRegistered","type":"event"},{"anonymous":false,"inputs":[{"indexed":true,"internalType":"bytes32","name":"productId","type":"bytes32"},{"indexed":true,"internalType":"address","name":"revokedBy","type":"address"},{"indexed":false,"internalType":"uint256","name":"timestamp","type":"uint256"}],"name":"ProductRevoked","type":"event"},{"anonymous":false,"inputs":[{"indexed":true,"internalType":"bytes32","name":"productId","type":"bytes32"},{"indexed":false,"internalType":"string","name":"result","type":"string"},{"indexed":false,"internalType":"string","name":"location","type":"string"},{"indexed":true,"internalType":"address","name":"scanner","type":"address"},{"indexed":false,"internalType":"uint256","name":"timestamp","type":"uint256"}],"name":"ProductScanned","type":"event"},{"inputs":[{"internalType":"bytes32","name":"_productId","type":"bytes32"},{"internalType":"string","name":"_role","type":"string"},{"internalType":"string","name":"_location","type":"string"},{"internalType":"string","name":"_city","type":"string"},{"internalType":"string","name":"_country","type":"string"},{"internalType":"string","name":"_status","type":"string"},{"internalType":"string","name":"_notes","type":"string"}],"name":"addJourneyStep","outputs":[],"stateMutability":"nonpayable","type":"function"},{"inputs":[{"internalType":"address","name":"_partner","type":"address"}],"name":"authorizePartner","outputs":[],"stateMutability":"nonpayable","type":"function"},{"inputs":[{"internalType":"address","name":"","type":"address"}],"name":"authorizedPartners","outputs":[{"internalType":"bool","name":"","type":"bool"}],"stateMutability":"view","type":"function"},{"inputs":[],"name":"batchCount","outputs":[{"internalType":"uint256","name":"","type":"uint256"}],"stateMutability":"view","type":"function"},{"inputs":[{"internalType":"bytes32","name":"","type":"bytes32"}],"name":"batches","outputs":[{"internalType":"string","name":"batchId","type":"string"},{"internalType":"string","name":"productName","type":"string"},{"internalType":"uint256","name":"manufactureDate","type":"uint256"},{"internalType":"uint256","name":"expiryDate","type":"uint256"},{"internalType":"uint256","name":"quantity","type":"uint256"},{"internalType":"address","name":"registeredBy","type":"address"},{"internalType":"bool","name":"exists","type":"bool"}],"stateMutability":"view","type":"function"},{"inputs":[],"name":"getGlobalStats","outputs":[{"internalType":"uint256","name":"_productCount","type":"uint256"},{"internalType":"uint256","name":"_batchCount","type":"uint256"},{"internalType":"uint256","name":"_totalScans","type":"uint256"}],"stateMutability":"view","type":"function"},{"inputs":[{"internalType":"bytes32","name":"_productId","type":"bytes32"}],"name":"getJourneyHistory","outputs":[{"components":[{"internalType":"string","name":"role","type":"string"},{"internalType":"string","name":"location","type":"string"},{"internalType":"string","name":"city","type":"string"},{"internalType":"string","name":"country","type":"string"},{"internalType":"uint256","name":"timestamp","type":"uint256"},{"internalType":"string","name":"status","type":"string"},{"internalType":"address","name":"recorder","type":"address"},{"internalType":"string","name":"notes","type":"string"}],"internalType":"struct SnackShield.JourneyStep[]","name":"","type":"tuple[]"}],"stateMutability":"view","type":"function"},{"inputs":[{"internalType":"bytes32","name":"_productId","type":"bytes32"}],"name":"getProduct","outputs":[{"internalType":"string","name":"productName","type":"string"},{"internalType":"string","name":"company","type":"string"},{"internalType":"string","name":"batchId","type":"string"},{"internalType":"uint256","name":"manufactureDate","type":"uint256"},{"internalType":"uint256","name":"expiryDate","type":"uint256"},{"internalType":"bool","name":"revoked","type":"bool"},{"internalType":"uint256","name":"scanCount","type":"uint256"},{"internalType":"uint256","name":"suspiciousCount","type":"uint256"},{"internalType":"uint256","name":"journeySteps","type":"uint256"}],"stateMutability":"view","type":"function"},{"inputs":[{"internalType":"bytes32","name":"_productId","type":"bytes32"}],"name":"getScanHistory","outputs":[{"components":[{"internalType":"address","name":"scanner","type":"address"},{"internalType":"string","name":"result","type":"string"},{"internalType":"string","name":"location","type":"string"},{"internalType":"uint256","name":"timestamp","type":"uint256"}],"internalType":"struct SnackShield.ScanRecord[]","name":"","type":"tuple[]"}],"stateMutability":"view","type":"function"},{"inputs":[{"internalType":"bytes32","name":"_productId","type":"bytes32"}],"name":"getTrustIndex","outputs":[{"internalType":"uint256","name":"trustIndex","type":"uint256"}],"stateMutability":"view","type":"function"},{"inputs":[{"internalType":"bytes32","name":"","type":"bytes32"},{"internalType":"uint256","name":"","type":"uint256"}],"name":"journeyHistory","outputs":[{"internalType":"string","name":"role","type":"string"},{"internalType":"string","name":"location","type":"string"},{"internalType":"string","name":"city","type":"string"},{"internalType":"string","name":"country","type":"string"},{"internalType":"uint256","name":"timestamp","type":"uint256"},{"internalType":"string","name":"status","type":"string"},{"internalType":"address","name":"recorder","type":"address"},{"internalType":"string","name":"notes","type":"string"}],"stateMutability":"view","type":"function"},{"inputs":[],"name":"owner","outputs":[{"internalType":"address","name":"","type":"address"}],"stateMutability":"view","type":"function"},{"inputs":[],"name":"productCount","outputs":[{"internalType":"uint256","name":"","type":"uint256"}],"stateMutability":"view","type":"function"},{"inputs":[{"internalType":"uint256","name":"","type":"uint256"}],"name":"productIds","outputs":[{"internalType":"bytes32","name":"","type":"bytes32"}],"stateMutability":"view","type":"function"},{"inputs":[{"internalType":"bytes32","name":"","type":"bytes32"}],"name":"products","outputs":[{"internalType":"string","name":"productName","type":"string"},{"internalType":"string","name":"company","type":"string"},{"internalType":"string","name":"batchId","type":"string"},{"internalType":"string","name":"qrCodeHash","type":"string"},{"internalType":"uint256","name":"manufactureDate","type":"uint256"},{"internalType":"uint256","name":"expiryDate","type":"uint256"},{"internalType":"address","name":"registeredBy","type":"address"},{"internalType":"bool","name":"exists","type":"bool"},{"internalType":"bool","name":"revoked","type":"bool"},{"internalType":"uint256","name":"totalScans","type":"uint256"},{"internalType":"uint256","name":"suspiciousScans","type":"uint256"}],"stateMutability":"view","type":"function"},{"inputs":[{"internalType":"string","name":"_batchId","type":"string"},{"internalType":"string","name":"_productName","type":"string"},{"internalType":"uint256","name":"_manufactureDate","type":"uint256"},{"internalType":"uint256","name":"_expiryDate","type":"uint256"},{"internalType":"uint256","name":"_quantity","type":"uint256"}],"name":"registerBatch","outputs":[{"internalType":"bytes32","name":"batchHash","type":"bytes32"}],"stateMutability":"nonpayable","type":"function"},{"inputs":[{"internalType":"string","name":"_productName","type":"string"},{"internalType":"string","name":"_company","type":"string"},{"internalType":"string","name":"_batchId","type":"string"},{"internalType":"string","name":"_qrCode","type":"string"},{"internalType":"uint256","name":"_manufactureDate","type":"uint256"},{"internalType":"uint256","name":"_expiryDate","type":"uint256"}],"name":"registerProduct","outputs":[{"internalType":"bytes32","name":"productId","type":"bytes32"}],"stateMutability":"nonpayable","type":"function"},{"inputs":[{"internalType":"address","name":"_partner","type":"address"}],"name":"revokePartner","outputs":[],"stateMutability":"nonpayable","type":"function"},{"inputs":[{"internalType":"bytes32","name":"_productId","type":"bytes32"}],"name":"revokeProduct","outputs":[],"stateMutability":"nonpayable","type":"function"},{"inputs":[{"internalType":"bytes32","name":"","type":"bytes32"},{"internalType":"uint256","name":"","type":"uint256"}],"name":"scanHistory","outputs":[{"internalType":"address","name":"scanner","type":"address"},{"internalType":"string","name":"result","type":"string"},{"internalType":"string","name":"location","type":"string"},{"internalType":"uint256","name":"timestamp","type":"uint256"}],"stateMutability":"view","type":"function"},{"inputs":[{"internalType":"bytes32","name":"_productId","type":"bytes32"},{"internalType":"string","name":"_result","type":"string"},{"internalType":"string","name":"_location","type":"string"}],"name":"scanProduct","outputs":[],"stateMutability":"nonpayable","type":"function"},{"inputs":[],"name":"totalScans","outputs":[{"internalType":"uint256","name":"","type":"uint256"}],"stateMutability":"view","type":"function"},{"inputs":[{"internalType":"address","name":"_newOwner","type":"address"}],"name":"transferOwnership","outputs":[],"stateMutability":"nonpayable","type":"function"},{"inputs":[{"internalType":"string","name":"_qrCode","type":"string"}],"name":"verifyProduct","outputs":[{"internalType":"bool","name":"isGenuine","type":"bool"},{"internalType":"string","name":"productName","type":"string"},{"internalType":"string","name":"company","type":"string"},{"internalType":"uint256","name":"scanCount","type":"uint256"}],"stateMutability":"view","type":"function"}],"evm":{"bytecode":{"linkReferences":{},"object":"6080806040523461006c573360018060a01b031960005416176000553360005260086020526040600020600160ff198254161790554281527f6336d9eb458ec8dad0b7497d2775b0e60a49a0757b749f2883871be420ad3aa660203392a260405161316990816100728239f35b600080fdfe6080604052600436101561001257600080fd5b60003560e01c8063046e54ae146122b957806306f130561461229b5780630c23792b1461227d5780633501fa21146122385780633a20e9df1461214857806346940ded146118b45780635ac048cf1461183b57806365d351b9146112d05780636b4169c3146112a157806379054391146111ce5780638375f83f14610fc65780638da5cb5b14610f9d5780639288cce314610f5a57806392efc45314610ee5578063a3746d43146109f5578063a9f1a1bd14610914578063c03afffc146105b8578063c81e25ab14610514578063ca59eace146103ab578063cb51bba914610374578063e0f6ef8714610356578063e85d538b14610282578063eefb824b1461017b5763f2fde38b1461012457600080fd5b34610176576020366003190112610176576004356001600160a01b03818116918290036101765761015b60005491821633146126eb565b610166821515612736565b6001600160a01b03191617600055005b600080fd5b3461017657610189366124e2565b906000526005602052604060002080548210156101765761022e916101ad916126cf565b5061027e6101ba826125f2565b916101c7600182016125f2565b61026b6101d6600284016125f2565b6101e2600385016125f2565b9061025860048601549261024a6101fb600589016125f2565b9361023c610218600760018060a01b0360068d0154169b016125f2565b986040519d8e9d8e610100908181520190612475565b8d810360208f015290612475565b908b820360408d0152612475565b9089820360608b0152612475565b91608088015286820360a0880152612475565b9160c085015283820360e0850152612475565b0390f35b34610176576020366003190112610176576004356001600160a01b0381811691829003610176576102b8906000541633146126eb565b80600052600860205260ff604060002054161561031157806000526008602052604060002060ff1981541690557f68996bc3f0ad5470c36025f2e090000590fe09ce85fa27e6cddf0b020bc3587c6020604051428152a2005b60405162461bcd60e51b815260206004820152601b60248201527f536e61636b536869656c643a206e6f7420617574686f72697a656400000000006044820152606490fd5b34610176576000366003190112610176576020600154604051908152f35b34610176576020366003190112610176576004356009548110156101765761039d602091612698565b90546040519160031b1c8152f35b34610176576020806003193601126101765760043580600052600482526103df60ff60066040600020015460a01c16612f64565b600052600681526040600020908154916103f8836130a9565b9261040660405194856125d1565b8084528284018092600052836000206000915b8383106104b95750505050604051918083019381845251809452604083019360408160051b85010192916000955b8287106104545785850386f35b909192938280600192603f19898203018552875190848060a01b03825116815261049f61048d8484015160808087860152840190612475565b60408401518382036040850152612475565b916060809101519101529601920196019592919092610447565b6004866001926040999899516104ce81612580565b848060a01b0386541681526104e48587016125f2565b838201526104f4600287016125f2565b604082015260038601546060820152815201920192019190959495610419565b3461017657602036600319011261017657600435600052600760205261057d6040600020610541816125f2565b9060ff610550600183016125f2565b600283015492600381015461058b600560048401549301549360405198899860e08a5260e08a0190612475565b9088820360208a0152612475565b9460408701526060860152608085015260018060a01b03811660a085015260a01c16151560c08301520390f35b346101765760e0366003190112610176576001600160401b03602435818111610176576105e99036906004016124b5565b90604435838111610176576106029036906004016124b5565b6064949194358281116101765761061d9036906004016124b5565b90608435848111610176576106369036906004016124b5565b60a493919335868111610176576106519036906004016124b5565b94909660c4359081116101765761066c9036906004016124b5565b91909260018060a01b0360005416331480156108fb575b61068c90612782565b60043560005260046020526106ae60ff60066040600020015460a01c16612f64565b600435600052600460205260ff60066040600020015460a81c166108a8576004356000526005602052604060002095604051956106ea87612564565b6106f5368e8e6127dc565b87528d8a3690610704926127dc565b60208801523690610714926127dc565b60408601523690610724926127dc565b606084015242608084015261073a3686896127dc565b60a08401523360c08401523690610750926127dc565b60e082015261075e91612868565b6107693682856127dc565b80519060200120610778612fbc565b8051906020012014936107c0917f2560670fbe89d1a1716613613c865d36b43efa0fe1a5e439ea453faabe1c75a5956107c5575b604051948594339960043599429588612f21565b0390a3005b600435600052600460205260086040600020016107e28154612822565b90556040517f537573706963696f7573206163746976697479206465746563746564206174206020820152848960408301376108316040828781016000838201520360208101845201826125d1565b7ffa9c82b11ab7caa4a79d074ac7e6affac9cae3e47e233fa4749e7c27b286a90861088d6040519260808452600f60808501526e4a4f55524e45595f414e4f4d414c5960881b60a085015260c0602085015260c0840190612475565b916003604082015242606082015280600435930390a26107ac565b60405162461bcd60e51b815260206004820152602560248201527f536e61636b536869656c643a2070726f6475637420686173206265656e2072656044820152641d9bdad95960da1b6064820152608490fd5b503360009081526008602052604090205460ff16610683565b34610176576020366003190112610176576004356001600160a01b03818116918290036101765761094a906000541633146126eb565b610955811515612736565b80600052600860205260ff604060002054166109b0578060005260086020526040600020600160ff198254161790557f6336d9eb458ec8dad0b7497d2775b0e60a49a0757b749f2883871be420ad3aa66020604051428152a2005b60405162461bcd60e51b815260206004820152601f60248201527f536e61636b536869656c643a20616c726561647920617574686f72697a6564006044820152606490fd5b346101765760a0366003190112610176576004356001600160401b03811161017657610a259036906004016124b5565b906024356001600160401b03811161017657610a459036906004016124b5565b6000549193916001600160a01b031633148015610ecc575b610a6690612782565b604051602081019083858337610a8c6020828681016000838201520380845201826125d1565b5190209283600052600760205260ff60056040600020015460a01c16610e795760405160e081018181106001600160401b03821117610da257604052610ad33685846127dc565b8152610ae03684886127dc565b60208201526044356040820152606435606082015260843560808201523360a0820152600160c0820152846000526007602052604060002081518051906001600160401b038211610da2578190610b37845461252a565b601f8111610e29575b50602090601f8311600114610dc357600092610db8575b50508160011b916000199060031b1c19161781555b60208201518051906001600160401b038211610da257610b8f600184015461252a565b601f8111610d5b575b50918795939160209995938a90601f8311600114610cb7579360c06005610c8295857f9731311c3c19bcec274e93766fcecd1224c0ee96dd2add3b8b82db68e5fdd1559b9996610c6296610c8f9c9a600092610cac575b50508160011b916000199060031b1c19161760018201555b60408401516002820155606084015160038201556080840151600482015560a08085015192909101805493909401516001600160a81b03199093166001600160a01b039290921691909117911515901b60ff60a01b16179055565b610c6d600254612822565b60025560405197608089526080890191612847565b9186830389880152612847565b9260843560408201524260608201528033940390a3604051908152f35b015190503880610bef565b90600184016000528b6000209160005b601f1985168110610d4157506005610c8295600186610c6296610c8f9c9a9660c0967f9731311c3c19bcec274e93766fcecd1224c0ee96dd2add3b8b82db68e5fdd1559f9d9a601f19811610610d28575b505050811b016001820155610c07565b015160001960f88460031b161c19169055388080610d18565b8183015184558c9a50600190930192918d01918d01610cc7565b600184016000526020600020601f840160051c810160208510610d9b575b601f830160051c82018110610d8f575050610b98565b60008155600101610d79565b5080610d79565b634e487b7160e01b600052604160045260246000fd5b015190508980610b57565b6000858152602081209350601f198516905b818110610e115750908460019594939210610df8575b505050811b018155610b6c565b015160001960f88460031b161c19169055898080610deb565b92936020600181928786015181550195019301610dd5565b909150836000526020600020601f840160051c810160208510610e72575b90849392915b601f830160051c82018110610e63575050610b40565b60008155859450600101610e4d565b5080610e47565b60405162461bcd60e51b815260206004820152602560248201527f536e61636b536869656c643a20626174636820616c72656164792072656769736044820152641d195c995960da1b6064820152608490fd5b503360009081526008602052604090205460ff16610a5d565b34610176576020366003190112610176576004356001600160401b03811161017657610f21610f1b610f509236906004016124b5565b90613002565b919390610f4260405195869515158652608060208701526080860190612475565b908482036040860152612475565b9060608301520390f35b34610176576020366003190112610176576004356001600160a01b03811690819003610176576000526008602052602060ff604060002054166040519015158152f35b34610176576000366003190112610176576000546040516001600160a01b039091168152602090f35b3461017657602080600319360112610176576004359081600052600481526006806040600020015492610fff60ff60a095861c16612f64565b60005260058083526040600020918254611018816130a9565b9161102660405193846125d1565b81835260009485528585208684019591865b84841061112d575050505050604051938085019181865251809252604082818701941b86010193926000965b8388106110715786860387f35b9091929394838061111c600193603f198b820301875289519060e06110fa6110e06110cd6110bb6110ab8751610100808952880190612475565b898801518782038b890152612475565b60408701518682036040880152612475565b6060808701519086830390870152612475565b60808086015190850152898501518482038b860152612475565b9260c0888060a01b0381830151169084015201519060e0818403910152612475565b970193019701969093929193611064565b6008896001928961119660409e9d9a9b9e519161114983612564565b611152896125f2565b835261115f878a016125f2565b8584015261116f60028a016125f2565b604084015261118060038a016125f2565b60608401526004890154608084015288016125f2565b8d820152848060a01b03868801541660c08201526111b6600788016125f2565b60e08201528152019301930192919895949798611038565b3461017657602036600319011261017657600435600052600460205261022e60406000206111fb816125f2565b90611208600182016125f2565b611214600283016125f2565b9160ff611223600383016125f2565b9360048301549461125f60058501549161024a60068701549461023c600860078a0154990154996040519d8e9d8e610160908181520190612475565b95608088015260a087015260018060a01b03811660c0870152818160a01c16151560e087015260a81c1615156101008501526101208401526101408301520390f35b346101765760003660031901126101765760606001546002546003549060405192835260208301526040820152f35b34610176576060366003190112610176576024356001600160401b038111610176576113009036906004016124b5565b6044356001600160401b0381116101765761131f9036906004016124b5565b600435600052600460205261134160ff60066040600020015460a01c16612f64565b60043560005260066020526040600020936040519461135f86612580565b33865261136d3686846127dc565b90602087019182526113803685876127dc565b60408801524260608801528054600160401b811015610da2576113a8916001820181556124f8565b91909161182557865182546001600160a01b0319166001600160a01b0391909116178255518051906001600160401b038211610da25781906113ed600185015461252a565b601f81116117d2575b50602090601f831160011461176057600092611755575b50508160011b916000199060031b1c19161760018201555b60408601519586516001600160401b038111610da257611448600284015461252a565b601f811161170e575b506020601f821160011461169257611502949392826003936060936115109b9c600092611687575b50508160011b9160001990861b1c19161760028501555b0151910155600435600052600460205260076040600020016114b28154612822565b90556114bf600354612822565b6003556114cd3687836127dc565b602081519101206114dc612fe2565b6020815191012014801561165f575b611543575b60405195606087526060870191612847565b918483036020860152612847565b4260408301527fac33f40d73bbac22991eb7bde99e01388510cc87f1732403c48934c02e199198339280600435930390a3005b600435600052600460205260086040600020016115608154612822565b905561156d3687836127dc565b6020815191012061157c612fe2565b60208151910120146000146116585760055b7ffa9c82b11ab7caa4a79d074ac7e6affac9cae3e47e233fa4749e7c27b286a908604051888460208301376115fc603582888c820174010383937b23ab1ba103232ba32b1ba32b21030ba1605d1b6020820152818c85830137016000838201520360158101845201826125d1565b60ff61163e6040519260808452601460808501527310d3d5539511549191525517d111551150d5115160621b60a085015260c0602085015260c0840190612475565b9316604082015242606082015280600435930390a26114f0565b600361158e565b5061166b3687836127dc565b6020815191012061167a612fbc565b60208151910120146114eb565b015190508c80611479565b6002840160005260206000209860005b601f19841681106116f65750926001836115109a9b606094611502999897600397601f198116106116de575b505050811b016002850155611490565b015160001983881b60f8161c191690558c80806116ce565b828201518b556001909a0199602092830192016116a2565b600284016000526020600020601f830160051c81016020841061174e575b601f830160051c82018110611742575050611451565b6000815560010161172c565b508061172c565b01519050888061140d565b9250600184016000526020600020906000935b601f19841685106117b7576001945083601f1981161061179e575b505050811b016001820155611425565b015160001960f88460031b161c1916905588808061178e565b81810151835560209485019460019093019290910190611773565b909150600184016000526020600020601f840160051c81016020851061181e575b90849392915b601f830160051c8201811061180f5750506113f6565b600081558594506001016117f9565b50806117f3565b634e487b7160e01b600052600060045260246000fd5b3461017657611849366124e2565b90600052600660205260406000209081548110156101765761186a916124f8565b5080546001600160a01b0316611882600183016125f2565b91610f506003611894600284016125f2565b92015491610f426040519586958652608060208701526080860190612475565b346101765760c0366003190112610176576004356001600160401b038111610176576118e49036906004016124b5565b6024356001600160401b038111610176576119039036906004016124b5565b6044929192356001600160401b038111610176576119259036906004016124b5565b916064356001600160401b038111610176576119459036906004016124b5565b959060018060a01b03600054163314801561212f575b61196490612782565b60405160208101908883833761198a6020828b81016000838201520380845201826125d1565b5190209687600052600460205260ff60066040600020015460a01c166120da5760405191826101608101106001600160401b0361016085011117610da257611a089161016084016040526119df368a8d6127dc565b84526119ec3687876127dc565b60208501526119fc3689896127dc565b604085015236916127dc565b6060820152608435608082015260a43560a08201523360c0820152600160e082015260006101008201526000610120820152600061014082015286600052600460205260406000209080518051906001600160401b038211610da2578190611a70855461252a565b601f811161208a575b50602090601f831160011461201e57600092612013575b50508160011b916000199060031b1c19161782555b60208101518051906001600160401b038211610da2578190611aca600186015461252a565b601f8111611fc0575b50602090601f8311600114611f4e57600092611f43575b50508160011b916000199060031b1c19161760018301555b60408101518051906001600160401b038211610da2578190611b27600286015461252a565b601f8111611ef0575b50602090601f8311600114611e7e57600092611e73575b50508160011b916000199060031b1c19161760028301555b60608101518051906001600160401b038211610da257611b82600385015461252a565b601f8111611e2c575b50602090601f8311600114611db65791806008949261014094600092611dab575b50508160011b916000199060031b1c19161760038501555b6080810151600485015560a080820151600586015560c082015160068601805460e085015161010086015190151590941b60ff60a01b166001600160a01b039093166001600160b01b0319909116179190911791151560a81b60ff60a81b1691909117905561012081015160078501550151910155600954600160401b811015610da25760209787957fbcd8a9501e967ef58dfd8cb2164c238ac0de8faf8625e0ab7ea78d5c2a76858295611c82846001611da09601600955612698565b81549060031b908a821b91600019901b1916179055611ca2600154612822565b6001558760005260058b52611d90604060002060405190611cc282612564565b604051611cce8161259b565b600c81526b26b0b73ab330b1ba3ab932b960a11b8f8201528252611cf3368a8a6127dc565b8e830152604051611d03816125b6565b600081526040830152604051611d18816125b6565b600081526060830152426080830152604051611d338161259b565b600881526715995c9a599a595960c21b8f82015260a08301523360c0830152604051611d5e8161259b565b8e81527f50726f647563742072656769737465726564206f6e20626c6f636b636861696e8f82015260e0830152612868565b604051958695339a429588612f21565b0390a3604051908152f35b015190508d80611bac565b906003850160005260206000209160005b601f1985168110611e14575092600894926001926101409583601f19811610611dfb575b505050811b016003850155611bc4565b015160001960f88460031b161c191690558d8080611deb565b91926020600181928685015181550194019201611dc7565b600385016000526020600020601f840160051c810160208510611e6c575b601f830160051c82018110611e60575050611b8b565b60008155600101611e4a565b5080611e4a565b015190508b80611b47565b9250600285016000526020600020906000935b601f1984168510611ed5576001945083601f19811610611ebc575b505050811b016002830155611b5f565b015160001960f88460031b161c191690558b8080611eac565b81810151835560209485019460019093019290910190611e91565b909150600285016000526020600020601f840160051c810160208510611f3c575b90849392915b601f830160051c82018110611f2d575050611b30565b60008155859450600101611f17565b5080611f11565b015190508b80611aea565b9250600185016000526020600020906000935b601f1984168510611fa5576001945083601f19811610611f8c575b505050811b016001830155611b02565b015160001960f88460031b161c191690558b8080611f7c565b81810151835560209485019460019093019290910190611f61565b909150600185016000526020600020601f840160051c81016020851061200c575b90849392915b601f830160051c82018110611ffd575050611ad3565b60008155859450600101611fe7565b5080611fe1565b015190508b80611a90565b9250846000526020600020906000935b601f198416851061206f576001945083601f19811610612056575b505050811b018255611aa5565b015160001960f88460031b161c191690558b8080612049565b8181015183556020948501946001909301929091019061202e565b909150846000526020600020601f840160051c8101602085106120d3575b90849392915b601f830160051c820181106120c4575050611a79565b600081558594506001016120ae565b50806120a8565b60405162461bcd60e51b815260206004820152602760248201527f536e61636b536869656c643a2070726f6475637420616c7265616479207265676044820152661a5cdd195c995960ca1b6064820152608490fd5b503360009081526008602052604090205460ff1661195b565b346101765760203660031901126101765760043580600052600460205261217c60ff60066040600020015460a01c16612f64565b60005260046020526121f660406000206004810154600582015460ff600684015460a81c1660078401546008850154916005602052604060002054936122126121c4886125f2565b976122046121e060026121d9600185016125f2565b93016125f2565b916040519b8c9b8c6101208091528d0190612475565b908b820360208d0152612475565b9089820360408b0152612475565b9560608801526080870152151560a086015260c085015260e08401526101008301520390f35b34610176576020366003190112610176576020612275600435806000526004835261227060ff60066040600020015460a01c16612f64565b6130c0565b604051908152f35b34610176576000366003190112610176576020600354604051908152f35b34610176576000366003190112610176576020600254604051908152f35b3461017657602080600319360112610176576004359060018060a01b03600054163314801561245d575b6122ec90612782565b816000526004815261230b60ff60066040600020015460a01c16612f64565b816000526004815260ff60066040600020015460a81c16612419576101207ffa9c82b11ab7caa4a79d074ac7e6affac9cae3e47e233fa4749e7c27b286a9089183600052600481526006604060002001600160a81b60ff60a81b19825416179055604051428152847f3ea95439e53fe33d14bead4ba770e464b7f8c43d3b422ede809940ecaed60919833393a360c06040519160808352600f60808401526e141493d11550d517d4915593d2d151608a1b60a0840152820152602e60c08201527f50726f6475637420686173206265656e207265766f6b65642066726f6d20746860e08201526d329039bab838363c9031b430b4b760911b61010082015260056040820152426060820152a2005b6064906040519062461bcd60e51b82526004820152601c60248201527f536e61636b536869656c643a20616c7265616479207265766f6b6564000000006044820152fd5b5033600090815260088252604090205460ff166122e3565b919082519283825260005b8481106124a1575050826000602080949584010152601f8019910116010190565b602081830181015184830182015201612480565b9181601f84011215610176578235916001600160401b038311610176576020838186019501011161017657565b6040906003190112610176576004359060243590565b80548210156125145760005260206000209060021b0190600090565b634e487b7160e01b600052603260045260246000fd5b90600182811c9216801561255a575b602083101461254457565b634e487b7160e01b600052602260045260246000fd5b91607f1691612539565b61010081019081106001600160401b03821117610da257604052565b608081019081106001600160401b03821117610da257604052565b604081019081106001600160401b03821117610da257604052565b602081019081106001600160401b03821117610da257604052565b90601f801991011681019081106001600160401b03821117610da257604052565b90604051918260008254926126068461252a565b9081845260019485811690816000146126755750600114612632575b5050612630925003836125d1565b565b9093915060005260209081600020936000915b81831061265d57505061263093508201013880612622565b85548884018501529485019487945091830191612645565b91505061263094506020925060ff191682840152151560051b8201013880612622565b6009548110156125145760096000527f6e1540171b6c0c960b71a7020d9f60077f6af931a8bbf590da0223dacf75c7af0190600090565b80548210156125145760005260206000209060031b0190600090565b156126f257565b606460405162461bcd60e51b815260206004820152602060248201527f536e61636b536869656c643a2063616c6c6572206973206e6f74206f776e65726044820152fd5b1561273d57565b60405162461bcd60e51b815260206004820152601960248201527f536e61636b536869656c643a207a65726f2061646472657373000000000000006044820152606490fd5b1561278957565b60405162461bcd60e51b815260206004820152602560248201527f536e61636b536869656c643a2063616c6c6572206973206e6f7420617574686f6044820152641c9a5e995960da1b6064820152608490fd5b9291926001600160401b038211610da25760405191612805601f8201601f1916602001846125d1565b829481845281830111610176578281602093846000960137010152565b60001981146128315760010190565b634e487b7160e01b600052601160045260246000fd5b908060209392818452848401376000828201840152601f01601f1916010190565b8054600160401b811015610da2576128879060019283820181556126cf565b611825578251908151916001600160401b0392838111610da257806128ac845461252a565b92601f93848111612ecd575b50602090848311600114612e6a57600092612e5f575b5050600019600383901b1c191690851b1782555b8382016020860151805190858211610da2578190612900845461252a565b858111612e0c575b50602090858311600114612da957600092612d9e575b5050600019600383901b1c191690861b1790555b600282016040860151805190858211610da2578190612951845461252a565b858111612d4b575b50602090858311600114612ce857600092612cdd575b5050600019600383901b1c191690861b1790555b6003918281016060870151805190868211610da25781906129a4845461252a565b868111612c8a575b50602090868311600114612c2857600092612c1d575b505060001982871b1c191690871b1790555b608086015160048201556005810160a0870151805190868211610da2576129fb835461252a565b858111612bd5575b50602090858311600114612b685791806007949260e09694600092612b5d575b505060001982891b1c191690891b1790555b6006810160018060a01b0360c08a0151166bffffffffffffffffffffffff60a01b825416179055019501518051938411610da257612a73865461252a565b828111612b15575b506020918411600114612ab257938394918492600095612aa7575b50501b92600019911b1c1916179055565b015193503880612a96565b9190601f198416928660005284826000209460005b88828210612afc57505010612ae2575b50505050811b019055565b01519060f884600019921b161c1916905538808080612ad7565b8486015188559096019560209485019488935001612ac7565b8660005260206000208380870160051c82019260208810612b54575b0160051c019086905b828110612b48575050612a7b565b60008155018690612b3a565b92508192612b31565b015190503880612a23565b889291601f1983169185600052816000209260005b818110612bbd57509160e09795939185600798969410612ba5575b505050811b019055612a35565b0151600019838b1b60f8161c19169055388080612b98565b8284015185558c969094019360209384019301612b7d565b8360005260206000208680850160051c82019260208610612c14575b0160051c019089905b828110612c08575050612a03565b60008155018990612bfa565b92508192612bf1565b0151905038806129c2565b90899350601f1983169185600052816000209260005b818110612c7257508411612c5a575b505050811b0190556129d4565b015160001983891b60f8161c19169055388080612c4d565b8284015185558c969094019360209384019301612c3e565b9091508360005260206000208680850160051c82019260208610612cd4575b918b91869594930160051c01915b828110612cc55750506129ac565b600081558594508b9101612cb7565b92508192612ca9565b01519050388061296f565b90889350601f1983169185600052816000209260005b818110612d3357508411612d1a575b505050811b019055612983565b015160001960f88460031b161c19169055388080612d0d565b8284015185558b969094019360209384019301612cfe565b9091508360005260206000208580850160051c82019260208610612d95575b918a91869594930160051c01915b828110612d86575050612959565b600081558594508a9101612d78565b92508192612d6a565b01519050388061291e565b90889350601f1983169185600052816000209260005b818110612df457508411612ddb575b505050811b019055612932565b015160001960f88460031b161c19169055388080612dce565b8284015185558b969094019360209384019301612dbf565b9091508360005260206000208580850160051c82019260208610612e56575b918a91869594930160051c01915b828110612e47575050612908565b600081558594508a9101612e39565b92508192612e2b565b0151905038806128ce565b90879350601f1983169186600052816000209260005b818110612eb557508411612e9c575b505050811b0182556128e2565b015160001960f88460031b161c19169055388080612e8f565b8284015185558a969094019360209384019301612e80565b9091506000858152602081208580860160051c82019360208710612f18575b918a9187969594930160051c01925b838110612f0a575050506128b8565b8281558695508a9101612efb565b93508193612eec565b9796959192612f5f94612f43612f51936060989660808d5260808d0191612847565b918a830360208c0152612847565b918783036040890152612847565b930152565b15612f6b57565b60405162461bcd60e51b815260206004820152602360248201527f536e61636b536869656c643a2070726f6475637420646f6573206e6f742065786044820152621a5cdd60ea1b6064820152608490fd5b60405190612fc98261259b565b600a825269537573706963696f757360b01b6020830152565b60405190612fef8261259b565b600482526346616b6560e01b6020830152565b604051929160208401918190833783019261302c60208260009687838201520380845201826125d1565b5190208252600460205260408220600681015460ff8160a01c16908161309a575b50613077575081604051613060816125b6565b81815291604051613070816125b6565b8281529190565b90915060078101546001926130968461308f856125f2565b94016125f2565b9190565b60ff915060a81c16153861304d565b6001600160401b038111610da25760051b60200190565b600090815260046020526040812090600782015491821561312b576008015490818303918383116131175760648302928304606414908414171561310357500490565b634e487b7160e01b81526011600452602490fd5b634e487b7160e01b82526011600452602482fd5b50505060649056fea26469706673582212202dc6028dfbaadfba9cffd48e70bbcd538cec2d945e31445610b42c2a24e05c7a64736f6c63430008140033","opcodes":"PUSH1 0x80 DUP1 PUSH1 0x40 MSTORE CALLVALUE PUSH2 0x6C JUMPI CALLER PUSH1 0x1 DUP1 PUSH1 0xA0 SHL SUB NOT PUSH1 0x0 SLOAD AND OR PUSH1 0x0 SSTORE CALLER PUSH1 0x0 MSTORE PUSH1 0x8 PUSH1 0x20 MSTORE PUSH1 0x40 PUSH1 0x0 KECCAK256 PUSH1 0x1 PUSH1 0xFF NOT DUP3 SLOAD AND OR SWAP1 SSTORE TIMESTAMP DUP2 MSTORE PUSH32 0x6336D9EB458EC8DAD0B7497D2775B0E60A49A0757B749F2883871BE420AD3AA6 PUSH1 0x20 CALLER SWAP3 LOG2 PUSH1 0x40 MLOAD PUSH2 0x3169 SWAP1 DUP2 PUSH2 0x72 DUP3 CODECOPY RETURN JUMPDEST PUSH1 0x0 DUP1 REVERT INVALID PUSH1 0x80 PUSH1 0x40 MSTORE PUSH1 0x4 CALLDATASIZE LT ISZERO PUSH2 0x12 JUMPI PUSH1 0x0 DUP1 REVERT JUMPDEST PUSH1 0x0 CALLDATALOAD PUSH1 0xE0 SHR DUP1 PUSH4 0x46E54AE EQ PUSH2 0x22B9 JUMPI DUP1 PUSH4 0x6F13056 EQ PUSH2 0x229B JUMPI DUP1 PUSH4 0xC23792B EQ PUSH2 0x227D JUMPI DUP1 PUSH4 0x3501FA21 EQ PUSH2 0x2238 JUMPI DUP1 PUSH4 0x3A20E9DF EQ PUSH2 0x2148 JUMPI DUP1 PUSH4 0x46940DED EQ PUSH2 0x18B4 JUMPI DUP1 PUSH4 0x5AC048CF EQ PUSH2 0x183B JUMPI DUP1 PUSH4 0x65D351B9 EQ PUSH2 0x12D0 JUMPI DUP1 PUSH4 0x6B4169C3 EQ PUSH2 0x12A1 JUMPI DUP1 PUSH4 0x79054391 EQ PUSH2 0x11CE JUMPI DUP1 PUSH4 0x8375F83F EQ PUSH2 0xFC6 JUMPI DUP1 PUSH4 0x8DA5CB5B EQ PUSH2 0xF9D JUMPI DUP1 PUSH4 0x9288CCE3 EQ PUSH2 0xF5A JUMPI DUP1 PUSH4 0x92EFC453 EQ PUSH2 0xEE5 JUMPI DUP1 PUSH4 0xA3746D43 EQ PUSH2 0x9F5 JUMPI DUP1 PUSH4 0xA9F1A1BD EQ PUSH2 0x914 JUMPI DUP1 PUSH4 0xC03AFFFC EQ PUSH2 0x5B8 JUMPI DUP1 PUSH4 0xC81E25AB EQ PUSH2 0x514 JUMPI DUP1 PUSH4 0xCA59EACE EQ PUSH2 0x3AB JUMPI DUP1 PUSH4 0xCB51BBA9 EQ PUSH2 0x374 JUMPI DUP1 PUSH4 0xE0F6EF87 EQ PUSH2 0x356 JUMPI DUP1 PUSH4 0xE85D538B EQ PUSH2 0x282 JUMPI DUP1 PUSH4 0xEEFB824B EQ PUSH2 0x17B JUMPI PUSH4 0xF2FDE38B EQ PUSH2 0x124 JUMPI PUSH1 0x0 DUP1 REVERT JUMPDEST CALLVALUE PUSH2 0x176 JUMPI PUSH1 0x20 CALLDATASIZE PUSH1 0x3 NOT ADD SLT PUSH2 0x176 JUMPI PUSH1 0x4 CALLDATALOAD PUSH1 0x1 PUSH1 0x1 PUSH1 0xA0 SHL SUB DUP2 DUP2 AND SWAP2 DUP3 SWAP1 SUB PUSH2 0x176 JUMPI PUSH2 0x15B PUSH1 0x0 SLOAD SWAP2 DUP3 AND CALLER EQ PUSH2 0x26EB JUMP JUMPDEST PUSH2 0x166 DUP3 ISZERO ISZERO PUSH2 0x2736 JUMP JUMPDEST PUSH1 0x1 PUSH1 0x1 PUSH1 0xA0 SHL SUB NOT AND OR PUSH1 0x0 SSTORE STOP JUMPDEST PUSH1 0x0 DUP1 REVERT JUMPDEST CALLVALUE PUSH2 0x176 JUMPI PUSH2 0x189 CALLDATASIZE PUSH2 0x24E2 JUMP JUMPDEST SWAP1 PUSH1 0x0 MSTORE PUSH1 0x5 PUSH1 0x20 MSTORE PUSH1 0x40 PUSH1 0x0 KECCAK256 DUP1 SLOAD DUP3 LT ISZERO PUSH2 0x176 JUMPI PUSH2 0x22E SWAP2 PUSH2 0x1AD SWAP2 PUSH2 0x26CF JUMP JUMPDEST POP PUSH2 0x27E PUSH2 0x1BA DUP3 PUSH2 0x25F2 JUMP JUMPDEST SWAP2 PUSH2 0x1C7 PUSH1 0x1 DUP3 ADD PUSH2 0x25F2 JUMP JUMPDEST PUSH2 0x26B PUSH2 0x1D6 PUSH1 0x2 DUP5 ADD PUSH2 0x25F2 JUMP JUMPDEST PUSH2 0x1E2 PUSH1 0x3 DUP6 ADD PUSH2 0x25F2 JUMP JUMPDEST SWAP1 PUSH2 0x258 PUSH1 0x4 DUP7 ADD SLOAD SWAP3 PUSH2 0x24A PUSH2 0x1FB PUSH1 0x5 DUP10 ADD PUSH2 0x25F2 JUMP JUMPDEST SWAP4 PUSH2 0x23C PUSH2 0x218 PUSH1 0x7 PUSH1 0x1 DUP1 PUSH1 0xA0 SHL SUB PUSH1 0x6 DUP14 ADD SLOAD AND SWAP12 ADD PUSH2 0x25F2 JUMP JUMPDEST SWAP9 PUSH1 0x40 MLOAD SWAP14 DUP15 SWAP14 DUP15 PUSH2 0x100 SWAP1 DUP2 DUP2 MSTORE ADD SWAP1 PUSH2 0x2475 JUMP JUMPDEST DUP14 DUP2 SUB PUSH1 0x20 DUP16 ADD MSTORE SWAP1 PUSH2 0x2475 JUMP JUMPDEST SWAP1 DUP12 DUP3 SUB PUSH1 0x40 DUP14 ADD MSTORE PUSH2 0x2475 JUMP JUMPDEST SWAP1 DUP10 DUP3 SUB PUSH1 0x60 DUP12 ADD MSTORE PUSH2 0x2475 JUMP JUMPDEST SWAP2 PUSH1 0x80 DUP9 ADD MSTORE DUP7 DUP3 SUB PUSH1 0xA0 DUP9 ADD MSTORE PUSH2 0x2475 JUMP JUMPDEST SWAP2 PUSH1 0xC0 DUP6 ADD MSTORE DUP4 DUP3 SUB PUSH1 0xE0 DUP6 ADD MSTORE PUSH2 0x2475 JUMP JUMPDEST SUB SWAP1 RETURN JUMPDEST CALLVALUE PUSH2 0x176 JUMPI PUSH1 0x20 CALLDATASIZE PUSH1 0x3 NOT ADD SLT PUSH2 0x176 JUMPI PUSH1 0x4 CALLDATALOAD PUSH1 0x1 PUSH1 0x1 PUSH1 0xA0 SHL SUB DUP2 DUP2 AND SWAP2 DUP3 SWAP1 SUB PUSH2 0x176 JUMPI PUSH2 0x2B8 SWAP1 PUSH1 0x0 SLOAD AND CALLER EQ PUSH2 0x26EB JUMP JUMPDEST DUP1 PUSH1 0x0 MSTORE PUSH1 0x8 PUSH1 0x20 MSTORE PUSH1 0xFF PUSH1 0x40 PUSH1 0x0 KECCAK256 SLOAD AND ISZERO PUSH2 0x311 JUMPI DUP1 PUSH1 0x0 MSTORE PUSH1 0x8 PUSH1 0x20 MSTORE PUSH1 0x40 PUSH1 0x0 KECCAK256 PUSH1 0xFF NOT DUP2 SLOAD AND SWAP1 SSTORE PUSH32 0x68996BC3F0AD5470C36025F2E090000590FE09CE85FA27E6CDDF0B020BC3587C PUSH1 0x20 PUSH1 0x40 MLOAD TIMESTAMP DUP2 MSTORE LOG2 STOP JUMPDEST PUSH1 0x40 MLOAD PUSH3 0x461BCD PUSH1 0xE5 SHL DUP2 MSTORE PUSH1 0x20 PUSH1 0x4 DUP3 ADD MSTORE PUSH1 0x1B PUSH1 0x24 DUP3 ADD MSTORE PUSH32 0x536E61636B536869656C643A206E6F7420617574686F72697A65640000000000 PUSH1 0x44 DUP3 ADD MSTORE PUSH1 0x64 SWAP1 REVERT JUMPDEST CALLVALUE PUSH2 0x176 JUMPI PUSH1 0x0 CALLDATASIZE PUSH1 0x3 NOT ADD SLT PUSH2 0x176 JUMPI PUSH1 0x20 PUSH1 0x1 SLOAD PUSH1 0x40 MLOAD SWAP1 DUP2 MSTORE RETURN JUMPDEST CALLVALUE PUSH2 0x176 JUMPI PUSH1 0x20 CALLDATASIZE PUSH1 0x3 NOT ADD SLT PUSH2 0x176 JUMPI PUSH1 0x4 CALLDATALOAD PUSH1 0x9 SLOAD DUP2 LT ISZERO PUSH2 0x176 JUMPI PUSH2 0x39D PUSH1 0x20 SWAP2 PUSH2 0x2698 JUMP JUMPDEST SWAP1 SLOAD PUSH1 0x40 MLOAD SWAP2 PUSH1 0x3 SHL SHR DUP2 MSTORE RETURN JUMPDEST CALLVALUE PUSH2 0x176 JUMPI PUSH1 0x20 DUP1 PUSH1 0x3 NOT CALLDATASIZE ADD SLT PUSH2 0x176 JUMPI PUSH1 0x4 CALLDATALOAD DUP1 PUSH1 0x0 MSTORE PUSH1 0x4 DUP3 MSTORE PUSH2 0x3DF PUSH1 0xFF PUSH1 0x6 PUSH1 0x40 PUSH1 0x0 KECCAK256 ADD SLOAD PUSH1 0xA0 SHR AND PUSH2 0x2F64 JUMP JUMPDEST PUSH1 0x0 MSTORE PUSH1 0x6 DUP2 MSTORE PUSH1 0x40 PUSH1 0x0 KECCAK256 SWAP1 DUP2 SLOAD SWAP2 PUSH2 0x3F8 DUP4 PUSH2 0x30A9 JUMP JUMPDEST SWAP3 PUSH2 0x406 PUSH1 0x40 MLOAD SWAP5 DUP6 PUSH2 0x25D1 JUMP JUMPDEST DUP1 DUP5 MSTORE DUP3 DUP5 ADD DUP1 SWAP3 PUSH1 0x0 MSTORE DUP4 PUSH1 0x0 KECCAK256 PUSH1 0x0 SWAP2 JUMPDEST DUP4 DUP4 LT PUSH2 0x4B9 JUMPI POP POP POP POP PUSH1 0x40 MLOAD SWAP2 DUP1 DUP4 ADD SWAP4 DUP2 DUP5 MSTORE MLOAD DUP1 SWAP5 MSTORE PUSH1 0x40 DUP4 ADD SWAP4 PUSH1 0x40 DUP2 PUSH1 0x5 SHL DUP6 ADD ADD SWAP3 SWAP2 PUSH1 0x0 SWAP6 JUMPDEST DUP3 DUP8 LT PUSH2 0x454 JUMPI DUP6 DUP6 SUB DUP7 RETURN JUMPDEST SWAP1 SWAP2 SWAP3 SWAP4 DUP3 DUP1 PUSH1 0x1 SWAP3 PUSH1 0x3F NOT DUP10 DUP3 SUB ADD DUP6 MSTORE DUP8 MLOAD SWAP1 DUP5 DUP1 PUSH1 0xA0 SHL SUB DUP3 MLOAD AND DUP2 MSTORE PUSH2 0x49F PUSH2 0x48D DUP5 DUP5 ADD MLOAD PUSH1 0x80 DUP1 DUP8 DUP7 ADD MSTORE DUP5 ADD SWAP1 PUSH2 0x2475 JUMP JUMPDEST PUSH1 0x40 DUP5 ADD MLOAD DUP4 DUP3 SUB PUSH1 0x40 DUP6 ADD MSTORE PUSH2 0x2475 JUMP JUMPDEST SWAP2 PUSH1 0x60 DUP1 SWAP2 ADD MLOAD SWAP2 ADD MSTORE SWAP7 ADD SWAP3 ADD SWAP7 ADD SWAP6 SWAP3 SWAP2 SWAP1 SWAP3 PUSH2 0x447 JUMP JUMPDEST PUSH1 0x4 DUP7 PUSH1 0x1 SWAP3 PUSH1 0x40 SWAP10 SWAP9 SWAP10 MLOAD PUSH2 0x4CE DUP2 PUSH2 0x2580 JUMP JUMPDEST DUP5 DUP1 PUSH1 0xA0 SHL SUB DUP7 SLOAD AND DUP2 MSTORE PUSH2 0x4E4 DUP6 DUP8 ADD PUSH2 0x25F2 JUMP JUMPDEST DUP4 DUP3 ADD MSTORE PUSH2 0x4F4 PUSH1 0x2 DUP8 ADD PUSH2 0x25F2 JUMP JUMPDEST PUSH1 0x40 DUP3 ADD MSTORE PUSH1 0x3 DUP7 ADD SLOAD PUSH1 0x60 DUP3 ADD MSTORE DUP2 MSTORE ADD SWAP3 ADD SWAP3 ADD SWAP2 SWAP1 SWAP6 SWAP5 SWAP6 PUSH2 0x419 JUMP JUMPDEST CALLVALUE PUSH2 0x176 JUMPI PUSH1 0x20 CALLDATASIZE PUSH1 0x3 NOT ADD SLT PUSH2 0x176 JUMPI PUSH1 0x4 CALLDATALOAD PUSH1 0x0 MSTORE PUSH1 0x7 PUSH1 0x20 MSTORE PUSH2 0x57D PUSH1 0x40 PUSH1 0x0 KECCAK256 PUSH2 0x541 DUP2 PUSH2 0x25F2 JUMP JUMPDEST SWAP1 PUSH1 0xFF PUSH2 0x550 PUSH1 0x1 DUP4 ADD PUSH2 0x25F2 JUMP JUMPDEST PUSH1 0x2 DUP4 ADD SLOAD SWAP3 PUSH1 0x3 DUP2 ADD SLOAD PUSH2 0x58B PUSH1 0x5 PUSH1 0x4 DUP5 ADD SLOAD SWAP4 ADD SLOAD SWAP4 PUSH1 0x40 MLOAD SWAP9 DUP10 SWAP9 PUSH1 0xE0 DUP11 MSTORE PUSH1 0xE0 DUP11 ADD SWAP1 PUSH2 0x2475 JUMP JUMPDEST SWAP1 DUP9 DUP3 SUB PUSH1 0x20 DUP11 ADD MSTORE PUSH2 0x2475 JUMP JUMPDEST SWAP5 PUSH1 0x40 DUP8 ADD MSTORE PUSH1 0x60 DUP7 ADD MSTORE PUSH1 0x80 DUP6 ADD MSTORE PUSH1 0x1 DUP1 PUSH1 0xA0 SHL SUB DUP2 AND PUSH1 0xA0 DUP6 ADD MSTORE PUSH1 0xA0 SHR AND ISZERO ISZERO PUSH1 0xC0 DUP4 ADD MSTORE SUB SWAP1 RETURN JUMPDEST CALLVALUE PUSH2 0x176 JUMPI PUSH1 0xE0 CALLDATASIZE PUSH1 0x3 NOT ADD SLT PUSH2 0x176 JUMPI PUSH1 0x1 PUSH1 0x1 PUSH1 0x40 SHL SUB PUSH1 0x24 CALLDATALOAD DUP2 DUP2 GT PUSH2 0x176 JUMPI PUSH2 0x5E9 SWAP1 CALLDATASIZE SWAP1 PUSH1 0x4 ADD PUSH2 0x24B5 JUMP JUMPDEST SWAP1 PUSH1 0x44 CALLDATALOAD DUP4 DUP2 GT PUSH2 0x176 JUMPI PUSH2 0x602 SWAP1 CALLDATASIZE SWAP1 PUSH1 0x4 ADD PUSH2 0x24B5 JUMP JUMPDEST PUSH1 0x64 SWAP5 SWAP2 SWAP5 CALLDATALOAD DUP3 DUP2 GT PUSH2 0x176 JUMPI PUSH2 0x61D SWAP1 CALLDATASIZE SWAP1 PUSH1 0x4 ADD PUSH2 0x24B5 JUMP JUMPDEST SWAP1 PUSH1 0x84 CALLDATALOAD DUP5 DUP2 GT PUSH2 0x176 JUMPI PUSH2 0x636 SWAP1 CALLDATASIZE SWAP1 PUSH1 0x4 ADD PUSH2 0x24B5 JUMP JUMPDEST PUSH1 0xA4 SWAP4 SWAP2 SWAP4 CALLDATALOAD DUP7 DUP2 GT PUSH2 0x176 JUMPI PUSH2 0x651 SWAP1 CALLDATASIZE SWAP1 PUSH1 0x4 ADD PUSH2 0x24B5 JUMP JUMPDEST SWAP5 SWAP1 SWAP7 PUSH1 0xC4 CALLDATALOAD SWAP1 DUP2 GT PUSH2 0x176 JUMPI PUSH2 0x66C SWAP1 CALLDATASIZE SWAP1 PUSH1 0x4 ADD PUSH2 0x24B5 JUMP JUMPDEST SWAP2 SWAP1 SWAP3 PUSH1 0x1 DUP1 PUSH1 0xA0 SHL SUB PUSH1 0x0 SLOAD AND CALLER EQ DUP1 ISZERO PUSH2 0x8FB JUMPI JUMPDEST PUSH2 0x68C SWAP1 PUSH2 0x2782 JUMP JUMPDEST PUSH1 0x4 CALLDATALOAD PUSH1 0x0 MSTORE PUSH1 0x4 PUSH1 0x20 MSTORE PUSH2 0x6AE PUSH1 0xFF PUSH1 0x6 PUSH1 0x40 PUSH1 0x0 KECCAK256 ADD SLOAD PUSH1 0xA0 SHR AND PUSH2 0x2F64 JUMP JUMPDEST PUSH1 0x4 CALLDATALOAD PUSH1 0x0 MSTORE PUSH1 0x4 PUSH1 0x20 MSTORE PUSH1 0xFF PUSH1 0x6 PUSH1 0x40 PUSH1 0x0 KECCAK256 ADD SLOAD PUSH1 0xA8 SHR AND PUSH2 0x8A8 JUMPI PUSH1 0x4 CALLDATALOAD PUSH1 0x0 MSTORE PUSH1 0x5 PUSH1 0x20 MSTORE PUSH1 0x40 PUSH1 0x0 KECCAK256 SWAP6 PUSH1 0x40 MLOAD SWAP6 PUSH2 0x6EA DUP8 PUSH2 0x2564 JUMP JUMPDEST PUSH2 0x6F5 CALLDATASIZE DUP15 DUP15 PUSH2 0x27DC JUMP JUMPDEST DUP8 MSTORE DUP14 DUP11 CALLDATASIZE SWAP1 PUSH2 0x704 SWAP3 PUSH2 0x27DC JUMP JUMPDEST PUSH1 0x20 DUP9 ADD MSTORE CALLDATASIZE SWAP1 PUSH2 0x714 SWAP3 PUSH2 0x27DC JUMP JUMPDEST PUSH1 0x40 DUP7 ADD MSTORE CALLDATASIZE SWAP1 PUSH2 0x724 SWAP3 PUSH2 0x27DC JUMP JUMPDEST PUSH1 0x60 DUP5 ADD MSTORE TIMESTAMP PUSH1 0x80 DUP5 ADD MSTORE PUSH2 0x73A CALLDATASIZE DUP7 DUP10 PUSH2 0x27DC JUMP JUMPDEST PUSH1 0xA0 DUP5 ADD MSTORE CALLER PUSH1 0xC0 DUP5 ADD MSTORE CALLDATASIZE SWAP1 PUSH2 0x750 SWAP3 PUSH2 0x27DC JUMP JUMPDEST PUSH1 0xE0 DUP3 ADD MSTORE PUSH2 0x75E SWAP2 PUSH2 0x2868 JUMP JUMPDEST PUSH2 0x769 CALLDATASIZE DUP3 DUP6 PUSH2 0x27DC JUMP JUMPDEST DUP1 MLOAD SWAP1 PUSH1 0x20 ADD KECCAK256 PUSH2 0x778 PUSH2 0x2FBC JUMP JUMPDEST DUP1 MLOAD SWAP1 PUSH1 0x20 ADD KECCAK256 EQ SWAP4 PUSH2 0x7C0 SWAP2 PUSH32 0x2560670FBE89D1A1716613613C865D36B43EFA0FE1A5E439EA453FAABE1C75A5 SWAP6 PUSH2 0x7C5 JUMPI JUMPDEST PUSH1 0x40 MLOAD SWAP5 DUP6 SWAP5 CALLER SWAP10 PUSH1 0x4 CALLDATALOAD SWAP10 TIMESTAMP SWAP6 DUP9 PUSH2 0x2F21 JUMP JUMPDEST SUB SWAP1 LOG3 STOP JUMPDEST PUSH1 0x4 CALLDATALOAD PUSH1 0x0 MSTORE PUSH1 0x4 PUSH1 0x20 MSTORE PUSH1 0x8 PUSH1 0x40 PUSH1 0x0 KECCAK256 ADD PUSH2 0x7E2 DUP2 SLOAD PUSH2 0x2822 JUMP JUMPDEST SWAP1 SSTORE PUSH1 0x40 MLOAD PUSH32 0x537573706963696F757320616374697669747920646574656374656420617420 PUSH1 0x20 DUP3 ADD MSTORE DUP5 DUP10 PUSH1 0x40 DUP4 ADD CALLDATACOPY PUSH2 0x831 PUSH1 0x40 DUP3 DUP8 DUP2 ADD PUSH1 0x0 DUP4 DUP3 ADD MSTORE SUB PUSH1 0x20 DUP2 ADD DUP5 MSTORE ADD DUP3 PUSH2 0x25D1 JUMP JUMPDEST PUSH32 0xFA9C82B11AB7CAA4A79D074AC7E6AFFAC9CAE3E47E233FA4749E7C27B286A908 PUSH2 0x88D PUSH1 0x40 MLOAD SWAP3 PUSH1 0x80 DUP5 MSTORE PUSH1 0xF PUSH1 0x80 DUP6 ADD MSTORE PUSH15 0x4A4F55524E45595F414E4F4D414C59 PUSH1 0x88 SHL PUSH1 0xA0 DUP6 ADD MSTORE PUSH1 0xC0 PUSH1 0x20 DUP6 ADD MSTORE PUSH1 0xC0 DUP5 ADD SWAP1 PUSH2 0x2475 JUMP JUMPDEST SWAP2 PUSH1 0x3 PUSH1 0x40 DUP3 ADD MSTORE TIMESTAMP PUSH1 0x60 DUP3 ADD MSTORE DUP1 PUSH1 0x4 CALLDATALOAD SWAP4 SUB SWAP1 LOG2 PUSH2 0x7AC JUMP JUMPDEST PUSH1 0x40 MLOAD PUSH3 0x461BCD PUSH1 0xE5 SHL DUP2 MSTORE PUSH1 0x20 PUSH1 0x4 DUP3 ADD MSTORE PUSH1 0x25 PUSH1 0x24 DUP3 ADD MSTORE PUSH32 0x536E61636B536869656C643A2070726F6475637420686173206265656E207265 PUSH1 0x44 DUP3 ADD MSTORE PUSH5 0x1D9BDAD959 PUSH1 0xDA SHL PUSH1 0x64 DUP3 ADD MSTORE PUSH1 0x84 SWAP1 REVERT JUMPDEST POP CALLER PUSH1 0x0 SWAP1 DUP2 MSTORE PUSH1 0x8 PUSH1 0x20 MSTORE PUSH1 0x40 SWAP1 KECCAK256 SLOAD PUSH1 0xFF AND PUSH2 0x683 JUMP JUMPDEST CALLVALUE PUSH2 0x176 JUMPI PUSH1 0x20 CALLDATASIZE PUSH1 0x3 NOT ADD SLT PUSH2 0x176 JUMPI PUSH1 0x4 CALLDATALOAD PUSH1 0x1 PUSH1 0x1 PUSH1 0xA0 SHL SUB DUP2 DUP2 AND SWAP2 DUP3 SWAP1 SUB PUSH2 0x176 JUMPI PUSH2 0x94A SWAP1 PUSH1 0x0 SLOAD AND CALLER EQ PUSH2 0x26EB JUMP JUMPDEST PUSH2 0x955 DUP2 ISZERO ISZERO PUSH2 0x2736 JUMP JUMPDEST DUP1 PUSH1 0x0 MSTORE PUSH1 0x8 PUSH1 0x20 MSTORE PUSH1 0xFF PUSH1 0x40 PUSH1 0x0 KECCAK256 SLOAD AND PUSH2 0x9B0 JUMPI DUP1 PUSH1 0x0 MSTORE PUSH1 0x8 PUSH1 0x20 MSTORE PUSH1 0x40 PUSH1 0x0 KECCAK256 PUSH1 0x1 PUSH1 0xFF NOT DUP3 SLOAD AND OR SWAP1 SSTORE PUSH32 0x6336D9EB458EC8DAD0B7497D2775B0E60A49A0757B749F2883871BE420AD3AA6 PUSH1 0x20 PUSH1 0x40 MLOAD TIMESTAMP DUP2 MSTORE LOG2 STOP JUMPDEST PUSH1 0x40 MLOAD PUSH3 0x461BCD PUSH1 0xE5 SHL DUP2 MSTORE PUSH1 0x20 PUSH1 0x4 DUP3 ADD MSTORE PUSH1 0x1F PUSH1 0x24 DUP3 ADD MSTORE PUSH32 0x536E61636B536869656C643A20616C726561647920617574686F72697A656400 PUSH1 0x44 DUP3 ADD MSTORE PUSH1 0x64 SWAP1 REVERT JUMPDEST CALLVALUE PUSH2 0x176 JUMPI PUSH1 0xA0 CALLDATASIZE PUSH1 0x3 NOT ADD SLT PUSH2 0x176 JUMPI PUSH1 0x4 CALLDATALOAD PUSH1 0x1 PUSH1 0x1 PUSH1 0x40 SHL SUB DUP2 GT PUSH2 0x176 JUMPI PUSH2 0xA25 SWAP1 CALLDATASIZE SWAP1 PUSH1 0x4 ADD PUSH2 0x24B5 JUMP JUMPDEST SWAP1 PUSH1 0x24 CALLDATALOAD PUSH1 0x1 PUSH1 0x1 PUSH1 0x40 SHL SUB DUP2 GT PUSH2 0x176 JUMPI PUSH2 0xA45 SWAP1 CALLDATASIZE SWAP1 PUSH1 0x4 ADD PUSH2 0x24B5 JUMP JUMPDEST PUSH1 0x0 SLOAD SWAP2 SWAP4 SWAP2 PUSH1 0x1 PUSH1 0x1 PUSH1 0xA0 SHL SUB AND CALLER EQ DUP1 ISZERO PUSH2 0xECC JUMPI JUMPDEST PUSH2 0xA66 SWAP1 PUSH2 0x2782 JUMP JUMPDEST PUSH1 0x40 MLOAD PUSH1 0x20 DUP2 ADD SWAP1 DUP4 DUP6 DUP4 CALLDATACOPY PUSH2 0xA8C PUSH1 0x20 DUP3 DUP7 DUP2 ADD PUSH1 0x0 DUP4 DUP3 ADD MSTORE SUB DUP1 DUP5 MSTORE ADD DUP3 PUSH2 0x25D1 JUMP JUMPDEST MLOAD SWAP1 KECCAK256 SWAP3 DUP4 PUSH1 0x0 MSTORE PUSH1 0x7 PUSH1 0x20 MSTORE PUSH1 0xFF PUSH1 0x5 PUSH1 0x40 PUSH1 0x0 KECCAK256 ADD SLOAD PUSH1 0xA0 SHR AND PUSH2 0xE79 JUMPI PUSH1 0x40 MLOAD PUSH1 0xE0 DUP2 ADD DUP2 DUP2 LT PUSH1 0x1 PUSH1 0x1 PUSH1 0x40 SHL SUB DUP3 GT OR PUSH2 0xDA2 JUMPI PUSH1 0x40 MSTORE PUSH2 0xAD3 CALLDATASIZE DUP6 DUP5 PUSH2 0x27DC JUMP JUMPDEST DUP2 MSTORE PUSH2 0xAE0 CALLDATASIZE DUP5 DUP9 PUSH2 0x27DC JUMP JUMPDEST PUSH1 0x20 DUP3 ADD MSTORE PUSH1 0x44 CALLDATALOAD PUSH1 0x40 DUP3 ADD MSTORE PUSH1 0x64 CALLDATALOAD PUSH1 0x60 DUP3 ADD MSTORE PUSH1 0x84 CALLDATALOAD PUSH1 0x80 DUP3 ADD MSTORE CALLER PUSH1 0xA0 DUP3 ADD MSTORE PUSH1 0x1 PUSH1 0xC0 DUP3 ADD MSTORE DUP5 PUSH1 0x0 MSTORE PUSH1 0x7 PUSH1 0x20 MSTORE PUSH1 0x40 PUSH1 0x0 KECCAK256 DUP2 MLOAD DUP1 MLOAD SWAP1 PUSH1 0x1 PUSH1 0x1 PUSH1 0x40 SHL SUB DUP3 GT PUSH2 0xDA2 JUMPI DUP2 SWAP1 PUSH2 0xB37 DUP5 SLOAD PUSH2 0x252A JUMP JUMPDEST PUSH1 0x1F DUP2 GT PUSH2 0xE29 JUMPI JUMPDEST POP PUSH1 0x20 SWAP1 PUSH1 0x1F DUP4 GT PUSH1 0x1 EQ PUSH2 0xDC3 JUMPI PUSH1 0x0 SWAP3 PUSH2 0xDB8 JUMPI JUMPDEST POP POP DUP2 PUSH1 0x1 SHL SWAP2 PUSH1 0x0 NOT SWAP1 PUSH1 0x3 SHL SHR NOT AND OR DUP2 SSTORE JUMPDEST PUSH1 0x20 DUP3 ADD MLOAD DUP1 MLOAD SWAP1 PUSH1 0x1 PUSH1 0x1 PUSH1 0x40 SHL SUB DUP3 GT PUSH2 0xDA2 JUMPI PUSH2 0xB8F PUSH1 0x1 DUP5 ADD SLOAD PUSH2 0x252A JUMP JUMPDEST PUSH1 0x1F DUP2 GT PUSH2 0xD5B JUMPI JUMPDEST POP SWAP2 DUP8 SWAP6 SWAP4 SWAP2 PUSH1 0x20 SWAP10 SWAP6 SWAP4 DUP11 SWAP1 PUSH1 0x1F DUP4 GT PUSH1 0x1 EQ PUSH2 0xCB7 JUMPI SWAP4 PUSH1 0xC0 PUSH1 0x5 PUSH2 0xC82 SWAP6 DUP6 PUSH32 0x9731311C3C19BCEC274E93766FCECD1224C0EE96DD2ADD3B8B82DB68E5FDD155 SWAP12 SWAP10 SWAP7 PUSH2 0xC62 SWAP7 PUSH2 0xC8F SWAP13 SWAP11 PUSH1 0x0 SWAP3 PUSH2 0xCAC JUMPI JUMPDEST POP POP DUP2 PUSH1 0x1 SHL SWAP2 PUSH1 0x0 NOT SWAP1 PUSH1 0x3 SHL SHR NOT AND OR PUSH1 0x1 DUP3 ADD SSTORE JUMPDEST PUSH1 0x40 DUP5 ADD MLOAD PUSH1 0x2 DUP3 ADD SSTORE PUSH1 0x60 DUP5 ADD MLOAD PUSH1 0x3 DUP3 ADD SSTORE PUSH1 0x80 DUP5 ADD MLOAD PUSH1 0x4 DUP3 ADD SSTORE PUSH1 0xA0 DUP1 DUP6 ADD MLOAD SWAP3 SWAP1 SWAP2 ADD DUP1 SLOAD SWAP4 SWAP1 SWAP5 ADD MLOAD PUSH1 0x1 PUSH1 0x1 PUSH1 0xA8 SHL SUB NOT SWAP1 SWAP4 AND PUSH1 0x1 PUSH1 0x1 PUSH1 0xA0 SHL SUB SWAP3 SWAP1 SWAP3 AND SWAP2 SWAP1 SWAP2 OR SWAP2 ISZERO ISZERO SWAP1 SHL PUSH1 0xFF PUSH1 0xA0 SHL AND OR SWAP1 SSTORE JUMP JUMPDEST PUSH2 0xC6D PUSH1 0x2 SLOAD PUSH2 0x2822 JUMP JUMPDEST PUSH1 0x2 SSTORE PUSH1 0x40 MLOAD SWAP8 PUSH1 0x80 DUP10 MSTORE PUSH1 0x80 DUP10 ADD SWAP2 PUSH2 0x2847 JUMP JUMPDEST SWAP2 DUP7 DUP4 SUB DUP10 DUP9 ADD MSTORE PUSH2 0x2847 JUMP JUMPDEST SWAP3 PUSH1 0x84 CALLDATALOAD PUSH1 0x40 DUP3 ADD MSTORE TIMESTAMP PUSH1 0x60 DUP3 ADD MSTORE DUP1 CALLER SWAP5 SUB SWAP1 LOG3 PUSH1 0x40 MLOAD SWAP1 DUP2 MSTORE RETURN JUMPDEST ADD MLOAD SWAP1 POP CODESIZE DUP1 PUSH2 0xBEF JUMP JUMPDEST SWAP1 PUSH1 0x1 DUP5 ADD PUSH1 0x0 MSTORE DUP12 PUSH1 0x0 KECCAK256 SWAP2 PUSH1 0x0 JUMPDEST PUSH1 0x1F NOT DUP6 AND DUP2 LT PUSH2 0xD41 JUMPI POP PUSH1 0x5 PUSH2 0xC82 SWAP6 PUSH1 0x1 DUP7 PUSH2 0xC62 SWAP7 PUSH2 0xC8F SWAP13 SWAP11 SWAP7 PUSH1 0xC0 SWAP7 PUSH32 0x9731311C3C19BCEC274E93766FCECD1224C0EE96DD2ADD3B8B82DB68E5FDD155 SWAP16 SWAP14 SWAP11 PUSH1 0x1F NOT DUP2 AND LT PUSH2 0xD28 JUMPI JUMPDEST POP POP POP DUP2 SHL ADD PUSH1 0x1 DUP3 ADD SSTORE PUSH2 0xC07 JUMP JUMPDEST ADD MLOAD PUSH1 0x0 NOT PUSH1 0xF8 DUP5 PUSH1 0x3 SHL AND SHR NOT AND SWAP1 SSTORE CODESIZE DUP1 DUP1 PUSH2 0xD18 JUMP JUMPDEST DUP2 DUP4 ADD MLOAD DUP5 SSTORE DUP13 SWAP11 POP PUSH1 0x1 SWAP1 SWAP4 ADD SWAP3 SWAP2 DUP14 ADD SWAP2 DUP14 ADD PUSH2 0xCC7 JUMP JUMPDEST PUSH1 0x1 DUP5 ADD PUSH1 0x0 MSTORE PUSH1 0x20 PUSH1 0x0 KECCAK256 PUSH1 0x1F DUP5 ADD PUSH1 0x5 SHR DUP2 ADD PUSH1 0x20 DUP6 LT PUSH2 0xD9B JUMPI JUMPDEST PUSH1 0x1F DUP4 ADD PUSH1 0x5 SHR DUP3 ADD DUP2 LT PUSH2 0xD8F JUMPI POP POP PUSH2 0xB98 JUMP JUMPDEST PUSH1 0x0 DUP2 SSTORE PUSH1 0x1 ADD PUSH2 0xD79 JUMP JUMPDEST POP DUP1 PUSH2 0xD79 JUMP JUMPDEST PUSH4 0x4E487B71 PUSH1 0xE0 SHL PUSH1 0x0 MSTORE PUSH1 0x41 PUSH1 0x4 MSTORE PUSH1 0x24 PUSH1 0x0 REVERT JUMPDEST ADD MLOAD SWAP1 POP DUP10 DUP1 PUSH2 0xB57 JUMP JUMPDEST PUSH1 0x0 DUP6 DUP2 MSTORE PUSH1 0x20 DUP2 KECCAK256 SWAP4 POP PUSH1 0x1F NOT DUP6 AND SWAP1 JUMPDEST DUP2 DUP2 LT PUSH2 0xE11 JUMPI POP SWAP1 DUP5 PUSH1 0x1 SWAP6 SWAP5 SWAP4 SWAP3 LT PUSH2 0xDF8 JUMPI JUMPDEST POP POP POP DUP2 SHL ADD DUP2 SSTORE PUSH2 0xB6C JUMP JUMPDEST ADD MLOAD PUSH1 0x0 NOT PUSH1 0xF8 DUP5 PUSH1 0x3 SHL AND SHR NOT AND SWAP1 SSTORE DUP10 DUP1 DUP1 PUSH2 0xDEB JUMP JUMPDEST SWAP3 SWAP4 PUSH1 0x20 PUSH1 0x1 DUP2 SWAP3 DUP8 DUP7 ADD MLOAD DUP2 SSTORE ADD SWAP6 ADD SWAP4 ADD PUSH2 0xDD5 JUMP JUMPDEST SWAP1 SWAP2 POP DUP4 PUSH1 0x0 MSTORE PUSH1 0x20 PUSH1 0x0 KECCAK256 PUSH1 0x1F DUP5 ADD PUSH1 0x5 SHR DUP2 ADD PUSH1 0x20 DUP6 LT PUSH2 0xE72 JUMPI JUMPDEST SWAP1 DUP5 SWAP4 SWAP3 SWAP2 JUMPDEST PUSH1 0x1F DUP4 ADD PUSH1 0x5 SHR DUP3 ADD DUP2 LT PUSH2 0xE63 JUMPI POP POP PUSH2 0xB40 JUMP JUMPDEST PUSH1 0x0 DUP2 SSTORE DUP6 SWAP5 POP PUSH1 0x1 ADD PUSH2 0xE4D JUMP JUMPDEST POP DUP1 PUSH2 0xE47 JUMP JUMPDEST PUSH1 0x40 MLOAD PUSH3 0x461BCD PUSH1 0xE5 SHL DUP2 MSTORE PUSH1 0x20 PUSH1 0x4 DUP3 ADD MSTORE PUSH1 0x25 PUSH1 0x24 DUP3 ADD MSTORE PUSH32 0x536E61636B536869656C643A20626174636820616C7265616479207265676973 PUSH1 0x44 DUP3 ADD MSTORE PUSH5 0x1D195C9959 PUSH1 0xDA SHL PUSH1 0x64 DUP3 ADD MSTORE PUSH1 0x84 SWAP1 REVERT JUMPDEST POP CALLER PUSH1 0x0 SWAP1 DUP2 MSTORE PUSH1 0x8 PUSH1 0x20 MSTORE PUSH1 0x40 SWAP1 KECCAK256 SLOAD PUSH1 0xFF AND PUSH2 0xA5D JUMP JUMPDEST CALLVALUE PUSH2 0x176 JUMPI PUSH1 0x20 CALLDATASIZE PUSH1 0x3 NOT ADD SLT PUSH2 0x176 JUMPI PUSH1 0x4 CALLDATALOAD PUSH1 0x1 PUSH1 0x1 PUSH1 0x40 SHL SUB DUP2 GT PUSH2 0x176 JUMPI PUSH2 0xF21 PUSH2 0xF1B PUSH2 0xF50 SWAP3 CALLDATASIZE SWAP1 PUSH1 0x4 ADD PUSH2 0x24B5 JUMP JUMPDEST SWAP1 PUSH2 0x3002 JUMP JUMPDEST SWAP2 SWAP4 SWAP1 PUSH2 0xF42 PUSH1 0x40 MLOAD SWAP6 DUP7 SWAP6 ISZERO ISZERO DUP7 MSTORE PUSH1 0x80 PUSH1 0x20 DUP8 ADD MSTORE PUSH1 0x80 DUP7 ADD SWAP1 PUSH2 0x2475 JUMP JUMPDEST SWAP1 DUP5 DUP3 SUB PUSH1 0x40 DUP7 ADD MSTORE PUSH2 0x2475 JUMP JUMPDEST SWAP1 PUSH1 0x60 DUP4 ADD MSTORE SUB SWAP1 RETURN JUMPDEST CALLVALUE PUSH2 0x176 JUMPI PUSH1 0x20 CALLDATASIZE PUSH1 0x3 NOT ADD SLT PUSH2 0x176 JUMPI PUSH1 0x4 CALLDATALOAD PUSH1 0x1 PUSH1 0x1 PUSH1 0xA0 SHL SUB DUP2 AND SWAP1 DUP2 SWAP1 SUB PUSH2 0x176 JUMPI PUSH1 0x0 MSTORE PUSH1 0x8 PUSH1 0x20 MSTORE PUSH1 0x20 PUSH1 0xFF PUSH1 0x40 PUSH1 0x0 KECCAK256 SLOAD AND PUSH1 0x40 MLOAD SWAP1 ISZERO ISZERO DUP2 MSTORE RETURN JUMPDEST CALLVALUE PUSH2 0x176 JUMPI PUSH1 0x0 CALLDATASIZE PUSH1 0x3 NOT ADD SLT PUSH2 0x176 JUMPI PUSH1 0x0 SLOAD PUSH1 0x40 MLOAD PUSH1 0x1 PUSH1 0x1 PUSH1 0xA0 SHL SUB SWAP1 SWAP2 AND DUP2 MSTORE PUSH1 0x20 SWAP1 RETURN JUMPDEST CALLVALUE PUSH2 0x176 JUMPI PUSH1 0x20 DUP1 PUSH1 0x3 NOT CALLDATASIZE ADD SLT PUSH2 0x176 JUMPI PUSH1 0x4 CALLDATALOAD SWAP1 DUP2 PUSH1 0x0 MSTORE PUSH1 0x4 DUP2 MSTORE PUSH1 0x6 DUP1 PUSH1 0x40 PUSH1 0x0 KECCAK256 ADD SLOAD SWAP3 PUSH2 0xFFF PUSH1 0xFF PUSH1 0xA0 SWAP6 DUP7 SHR AND PUSH2 0x2F64 JUMP JUMPDEST PUSH1 0x0 MSTORE PUSH1 0x5 DUP1 DUP4 MSTORE PUSH1 0x40 PUSH1 0x0 KECCAK256 SWAP2 DUP3 SLOAD PUSH2 0x1018 DUP2 PUSH2 0x30A9 JUMP JUMPDEST SWAP2 PUSH2 0x1026 PUSH1 0x40 MLOAD SWAP4 DUP5 PUSH2 0x25D1 JUMP JUMPDEST DUP2 DUP4 MSTORE PUSH1 0x0 SWAP5 DUP6 MSTORE DUP6 DUP6 KECCAK256 DUP7 DUP5 ADD SWAP6 SWAP2 DUP7 JUMPDEST DUP5 DUP5 LT PUSH2 0x112D JUMPI POP POP POP POP POP PUSH1 0x40 MLOAD SWAP4 DUP1 DUP6 ADD SWAP2 DUP2 DUP7 MSTORE MLOAD DUP1 SWAP3 MSTORE PUSH1 0x40 DUP3 DUP2 DUP8 ADD SWAP5 SHL DUP7 ADD ADD SWAP4 SWAP3 PUSH1 0x0 SWAP7 JUMPDEST DUP4 DUP9 LT PUSH2 0x1071 JUMPI DUP7 DUP7 SUB DUP8 RETURN JUMPDEST SWAP1 SWAP2 SWAP3 SWAP4 SWAP5 DUP4 DUP1 PUSH2 0x111C PUSH1 0x1 SWAP4 PUSH1 0x3F NOT DUP12 DUP3 SUB ADD DUP8 MSTORE DUP10 MLOAD SWAP1 PUSH1 0xE0 PUSH2 0x10FA PUSH2 0x10E0 PUSH2 0x10CD PUSH2 0x10BB PUSH2 0x10AB DUP8 MLOAD PUSH2 0x100 DUP1 DUP10 MSTORE DUP9 ADD SWAP1 PUSH2 0x2475 JUMP JUMPDEST DUP10 DUP9 ADD MLOAD DUP8 DUP3 SUB DUP12 DUP10 ADD MSTORE PUSH2 0x2475 JUMP JUMPDEST PUSH1 0x40 DUP8 ADD MLOAD DUP7 DUP3 SUB PUSH1 0x40 DUP9 ADD MSTORE PUSH2 0x2475 JUMP JUMPDEST PUSH1 0x60 DUP1 DUP8 ADD MLOAD SWAP1 DUP7 DUP4 SUB SWAP1 DUP8 ADD MSTORE PUSH2 0x2475 JUMP JUMPDEST PUSH1 0x80 DUP1 DUP7 ADD MLOAD SWAP1 DUP6 ADD MSTORE DUP10 DUP6 ADD MLOAD DUP5 DUP3 SUB DUP12 DUP7 ADD MSTORE PUSH2 0x2475 JUMP JUMPDEST SWAP3 PUSH1 0xC0 DUP9 DUP1 PUSH1 0xA0 SHL SUB DUP2 DUP4 ADD MLOAD AND SWAP1 DUP5 ADD MSTORE ADD MLOAD SWAP1 PUSH1 0xE0 DUP2 DUP5 SUB SWAP2 ADD MSTORE PUSH2 0x2475 JUMP JUMPDEST SWAP8 ADD SWAP4 ADD SWAP8 ADD SWAP7 SWAP1 SWAP4 SWAP3 SWAP2 SWAP4 PUSH2 0x1064 JUMP JUMPDEST PUSH1 0x8 DUP10 PUSH1 0x1 SWAP3 DUP10 PUSH2 0x1196 PUSH1 0x40 SWAP15 SWAP14 SWAP11 SWAP12 SWAP15 MLOAD SWAP2 PUSH2 0x1149 DUP4 PUSH2 0x2564 JUMP JUMPDEST PUSH2 0x1152 DUP10 PUSH2 0x25F2 JUMP JUMPDEST DUP4 MSTORE PUSH2 0x115F DUP8 DUP11 ADD PUSH2 0x25F2 JUMP JUMPDEST DUP6 DUP5 ADD MSTORE PUSH2 0x116F PUSH1 0x2 DUP11 ADD PUSH2 0x25F2 JUMP JUMPDEST PUSH1 0x40 DUP5 ADD MSTORE PUSH2 0x1180 PUSH1 0x3 DUP11 ADD PUSH2 0x25F2 JUMP JUMPDEST PUSH1 0x60 DUP5 ADD MSTORE PUSH1 0x4 DUP10 ADD SLOAD PUSH1 0x80 DUP5 ADD MSTORE DUP9 ADD PUSH2 0x25F2 JUMP JUMPDEST DUP14 DUP3 ADD MSTORE DUP5 DUP1 PUSH1 0xA0 SHL SUB DUP7 DUP9 ADD SLOAD AND PUSH1 0xC0 DUP3 ADD MSTORE PUSH2 0x11B6 PUSH1 0x7 DUP9 ADD PUSH2 0x25F2 JUMP JUMPDEST PUSH1 0xE0 DUP3 ADD MSTORE DUP2 MSTORE ADD SWAP4 ADD SWAP4 ADD SWAP3 SWAP2 SWAP9 SWAP6 SWAP5 SWAP8 SWAP9 PUSH2 0x1038 JUMP JUMPDEST CALLVALUE PUSH2 0x176 JUMPI PUSH1 0x20 CALLDATASIZE PUSH1 0x3 NOT ADD SLT PUSH2 0x176 JUMPI PUSH1 0x4 CALLDATALOAD PUSH1 0x0 MSTORE PUSH1 0x4 PUSH1 0x20 MSTORE PUSH2 0x22E PUSH1 0x40 PUSH1 0x0 KECCAK256 PUSH2 0x11FB DUP2 PUSH2 0x25F2 JUMP JUMPDEST SWAP1 PUSH2 0x1208 PUSH1 0x1 DUP3 ADD PUSH2 0x25F2 JUMP JUMPDEST PUSH2 0x1214 PUSH1 0x2 DUP4 ADD PUSH2 0x25F2 JUMP JUMPDEST SWAP2 PUSH1 0xFF PUSH2 0x1223 PUSH1 0x3 DUP4 ADD PUSH2 0x25F2 JUMP JUMPDEST SWAP4 PUSH1 0x4 DUP4 ADD SLOAD SWAP5 PUSH2 0x125F PUSH1 0x5 DUP6 ADD SLOAD SWAP2 PUSH2 0x24A PUSH1 0x6 DUP8 ADD SLOAD SWAP5 PUSH2 0x23C PUSH1 0x8 PUSH1 0x7 DUP11 ADD SLOAD SWAP10 ADD SLOAD SWAP10 PUSH1 0x40 MLOAD SWAP14 DUP15 SWAP14 DUP15 PUSH2 0x160 SWAP1 DUP2 DUP2 MSTORE ADD SWAP1 PUSH2 0x2475 JUMP JUMPDEST SWAP6 PUSH1 0x80 DUP9 ADD MSTORE PUSH1 0xA0 DUP8 ADD MSTORE PUSH1 0x1 DUP1 PUSH1 0xA0 SHL SUB DUP2 AND PUSH1 0xC0 DUP8 ADD MSTORE DUP2 DUP2 PUSH1 0xA0 SHR AND ISZERO ISZERO PUSH1 0xE0 DUP8 ADD MSTORE PUSH1 0xA8 SHR AND ISZERO ISZERO PUSH2 0x100 DUP6 ADD MSTORE PUSH2 0x120 DUP5 ADD MSTORE PUSH2 0x140 DUP4 ADD MSTORE SUB SWAP1 RETURN JUMPDEST CALLVALUE PUSH2 0x176 JUMPI PUSH1 0x0 CALLDATASIZE PUSH1 0x3 NOT ADD SLT PUSH2 0x176 JUMPI PUSH1 0x60 PUSH1 0x1 SLOAD PUSH1 0x2 SLOAD PUSH1 0x3 SLOAD SWAP1 PUSH1 0x40 MLOAD SWAP3 DUP4 MSTORE PUSH1 0x20 DUP4 ADD MSTORE PUSH1 0x40 DUP3 ADD MSTORE RETURN JUMPDEST CALLVALUE PUSH2 0x176 JUMPI PUSH1 0x60 CALLDATASIZE PUSH1 0x3 NOT ADD SLT PUSH2 0x176 JUMPI PUSH1 0x24 CALLDATALOAD PUSH1 0x1 PUSH1 0x1 PUSH1 0x40 SHL SUB DUP2 GT PUSH2 0x176 JUMPI PUSH2 0x1300 SWAP1 CALLDATASIZE SWAP1 PUSH1 0x4 ADD PUSH2 0x24B5 JUMP JUMPDEST PUSH1 0x44 CALLDATALOAD PUSH1 0x1 PUSH1 0x1 PUSH1 0x40 SHL SUB DUP2 GT PUSH2 0x176 JUMPI PUSH2 0x131F SWAP1 CALLDATASIZE SWAP1 PUSH1 0x4 ADD PUSH2 0x24B5 JUMP JUMPDEST PUSH1 0x4 CALLDATALOAD PUSH1 0x0 MSTORE PUSH1 0x4 PUSH1 0x20 MSTORE PUSH2 0x1341 PUSH1 0xFF PUSH1 0x6 PUSH1 0x40 PUSH1 0x0 KECCAK256 ADD SLOAD PUSH1 0xA0 SHR AND PUSH2 0x2F64 JUMP JUMPDEST PUSH1 0x4 CALLDATALOAD PUSH1 0x0 MSTORE PUSH1 0x6 PUSH1 0x20 MSTORE PUSH1 0x40 PUSH1 0x0 KECCAK256 SWAP4 PUSH1 0x40 MLOAD SWAP5 PUSH2 0x135F DUP7 PUSH2 0x2580 JUMP JUMPDEST CALLER DUP7 MSTORE PUSH2 0x136D CALLDATASIZE DUP7 DUP5 PUSH2 0x27DC JUMP JUMPDEST SWAP1 PUSH1 0x20 DUP8 ADD SWAP2 DUP3 MSTORE PUSH2 0x1380 CALLDATASIZE DUP6 DUP8 PUSH2 0x27DC JUMP JUMPDEST PUSH1 0x40 DUP9 ADD MSTORE TIMESTAMP PUSH1 0x60 DUP9 ADD MSTORE DUP1 SLOAD PUSH1 0x1 PUSH1 0x40 SHL DUP2 LT ISZERO PUSH2 0xDA2 JUMPI PUSH2 0x13A8 SWAP2 PUSH1 0x1 DUP3 ADD DUP2 SSTORE PUSH2 0x24F8 JUMP JUMPDEST SWAP2 SWAP1 SWAP2 PUSH2 0x1825 JUMPI DUP7 MLOAD DUP3 SLOAD PUSH1 0x1 PUSH1 0x1 PUSH1 0xA0 SHL SUB NOT AND PUSH1 0x1 PUSH1 0x1 PUSH1 0xA0 SHL SUB SWAP2 SWAP1 SWAP2 AND OR DUP3 SSTORE MLOAD DUP1 MLOAD SWAP1 PUSH1 0x1 PUSH1 0x1 PUSH1 0x40 SHL SUB DUP3 GT PUSH2 0xDA2 JUMPI DUP2 SWAP1 PUSH2 0x13ED PUSH1 0x1 DUP6 ADD SLOAD PUSH2 0x252A JUMP JUMPDEST PUSH1 0x1F DUP2 GT PUSH2 0x17D2 JUMPI JUMPDEST POP PUSH1 0x20 SWAP1 PUSH1 0x1F DUP4 GT PUSH1 0x1 EQ PUSH2 0x1760 JUMPI PUSH1 0x0 SWAP3 PUSH2 0x1755 JUMPI JUMPDEST POP POP DUP2 PUSH1 0x1 SHL SWAP2 PUSH1 0x0 NOT SWAP1 PUSH1 0x3 SHL SHR NOT AND OR PUSH1 0x1 DUP3 ADD SSTORE JUMPDEST PUSH1 0x40 DUP7 ADD MLOAD SWAP6 DUP7 MLOAD PUSH1 0x1 PUSH1 0x1 PUSH1 0x40 SHL SUB DUP2 GT PUSH2 0xDA2 JUMPI PUSH2 0x1448 PUSH1 0x2 DUP5 ADD SLOAD PUSH2 0x252A JUMP JUMPDEST PUSH1 0x1F DUP2 GT PUSH2 0x170E JUMPI JUMPDEST POP PUSH1 0x20 PUSH1 0x1F DUP3 GT PUSH1 0x1 EQ PUSH2 0x1692 JUMPI PUSH2 0x1502 SWAP5 SWAP4 SWAP3 DUP3 PUSH1 0x3 SWAP4 PUSH1 0x60 SWAP4 PUSH2 0x1510 SWAP12 SWAP13 PUSH1 0x0 SWAP3 PUSH2 0x1687 JUMPI JUMPDEST POP POP DUP2 PUSH1 0x1 SHL SWAP2 PUSH1 0x0 NOT SWAP1 DUP7 SHL SHR NOT AND OR PUSH1 0x2 DUP6 ADD SSTORE JUMPDEST ADD MLOAD SWAP2 ADD SSTORE PUSH1 0x4 CALLDATALOAD PUSH1 0x0 MSTORE PUSH1 0x4 PUSH1 0x20 MSTORE PUSH1 0x7 PUSH1 0x40 PUSH1 0x0 KECCAK256 ADD PUSH2 0x14B2 DUP2 SLOAD PUSH2 0x2822 JUMP JUMPDEST SWAP1 SSTORE PUSH2 0x14BF PUSH1 0x3 SLOAD PUSH2 0x2822 JUMP JUMPDEST PUSH1 0x3 SSTORE PUSH2 0x14CD CALLDATASIZE DUP8 DUP4 PUSH2 0x27DC JUMP JUMPDEST PUSH1 0x20 DUP2 MLOAD SWAP2 ADD KECCAK256 PUSH2 0x14DC PUSH2 0x2FE2 JUMP JUMPDEST PUSH1 0x20 DUP2 MLOAD SWAP2 ADD KECCAK256 EQ DUP1 ISZERO PUSH2 0x165F JUMPI JUMPDEST PUSH2 0x1543 JUMPI JUMPDEST PUSH1 0x40 MLOAD SWAP6 PUSH1 0x60 DUP8 MSTORE PUSH1 0x60 DUP8 ADD SWAP2 PUSH2 0x2847 JUMP JUMPDEST SWAP2 DUP5 DUP4 SUB PUSH1 0x20 DUP7 ADD MSTORE PUSH2 0x2847 JUMP JUMPDEST TIMESTAMP PUSH1 0x40 DUP4 ADD MSTORE PUSH32 0xAC33F40D73BBAC22991EB7BDE99E01388510CC87F1732403C48934C02E199198 CALLER SWAP3 DUP1 PUSH1 0x4 CALLDATALOAD SWAP4 SUB SWAP1 LOG3 STOP JUMPDEST PUSH1 0x4 CALLDATALOAD PUSH1 0x0 MSTORE PUSH1 0x4 PUSH1 0x20 MSTORE PUSH1 0x8 PUSH1 0x40 PUSH1 0x0 KECCAK256 ADD PUSH2 0x1560 DUP2 SLOAD PUSH2 0x2822 JUMP JUMPDEST SWAP1 SSTORE PUSH2 0x156D CALLDATASIZE DUP8 DUP4 PUSH2 0x27DC JUMP JUMPDEST PUSH1 0x20 DUP2 MLOAD SWAP2 ADD KECCAK256 PUSH2 0x157C PUSH2 0x2FE2 JUMP JUMPDEST PUSH1 0x20 DUP2 MLOAD SWAP2 ADD KECCAK256 EQ PUSH1 0x0 EQ PUSH2 0x1658 JUMPI PUSH1 0x5 JUMPDEST PUSH32 0xFA9C82B11AB7CAA4A79D074AC7E6AFFAC9CAE3E47E233FA4749E7C27B286A908 PUSH1 0x40 MLOAD DUP9 DUP5 PUSH1 0x20 DUP4 ADD CALLDATACOPY PUSH2 0x15FC PUSH1 0x35 DUP3 DUP9 DUP13 DUP3 ADD PUSH21 0x10383937B23AB1BA103232BA32B1BA32B21030BA1 PUSH1 0x5D SHL PUSH1 0x20 DUP3 ADD MSTORE DUP2 DUP13 DUP6 DUP4 ADD CALLDATACOPY ADD PUSH1 0x0 DUP4 DUP3 ADD MSTORE SUB PUSH1 0x15 DUP2 ADD DUP5 MSTORE ADD DUP3 PUSH2 0x25D1 JUMP JUMPDEST PUSH1 0xFF PUSH2 0x163E PUSH1 0x40 MLOAD SWAP3 PUSH1 0x80 DUP5 MSTORE PUSH1 0x14 PUSH1 0x80 DUP6 ADD MSTORE PUSH20 0x10D3D5539511549191525517D111551150D51151 PUSH1 0x62 SHL PUSH1 0xA0 DUP6 ADD MSTORE PUSH1 0xC0 PUSH1 0x20 DUP6 ADD MSTORE PUSH1 0xC0 DUP5 ADD SWAP1 PUSH2 0x2475 JUMP JUMPDEST SWAP4 AND PUSH1 0x40 DUP3 ADD MSTORE TIMESTAMP PUSH1 0x60 DUP3 ADD MSTORE DUP1 PUSH1 0x4 CALLDATALOAD SWAP4 SUB SWAP1 LOG2 PUSH2 0x14F0 JUMP JUMPDEST PUSH1 0x3 PUSH2 0x158E JUMP JUMPDEST POP PUSH2 0x166B CALLDATASIZE DUP8 DUP4 PUSH2 0x27DC JUMP JUMPDEST PUSH1 0x20 DUP2 MLOAD SWAP2 ADD KECCAK256 PUSH2 0x167A PUSH2 0x2FBC JUMP JUMPDEST PUSH1 0x20 DUP2 MLOAD SWAP2 ADD KECCAK256 EQ PUSH2 0x14EB JUMP JUMPDEST ADD MLOAD SWAP1 POP DUP13 DUP1 PUSH2 0x1479 JUMP JUMPDEST PUSH1 0x2 DUP5 ADD PUSH1 0x0 MSTORE PUSH1 0x20 PUSH1 0x0 KECCAK256 SWAP9 PUSH1 0x0 JUMPDEST PUSH1 0x1F NOT DUP5 AND DUP2 LT PUSH2 0x16F6 JUMPI POP SWAP3 PUSH1 0x1 DUP4 PUSH2 0x1510 SWAP11 SWAP12 PUSH1 0x60 SWAP5 PUSH2 0x1502 SWAP10 SWAP9 SWAP8 PUSH1 0x3 SWAP8 PUSH1 0x1F NOT DUP2 AND LT PUSH2 0x16DE JUMPI JUMPDEST POP POP POP DUP2 SHL ADD PUSH1 0x2 DUP6 ADD SSTORE PUSH2 0x1490 JUMP JUMPDEST ADD MLOAD PUSH1 0x0 NOT DUP4 DUP9 SHL PUSH1 0xF8 AND SHR NOT AND SWAP1 SSTORE DUP13 DUP1 DUP1 PUSH2 0x16CE JUMP JUMPDEST DUP3 DUP3 ADD MLOAD DUP12 SSTORE PUSH1 0x1 SWAP1 SWAP11 ADD SWAP10 PUSH1 0x20 SWAP3 DUP4 ADD SWAP3 ADD PUSH2 0x16A2 JUMP JUMPDEST PUSH1 0x2 DUP5 ADD PUSH1 0x0 MSTORE PUSH1 0x20 PUSH1 0x0 KECCAK256 PUSH1 0x1F DUP4 ADD PUSH1 0x5 SHR DUP2 ADD PUSH1 0x20 DUP5 LT PUSH2 0x174E JUMPI JUMPDEST PUSH1 0x1F DUP4 ADD PUSH1 0x5 SHR DUP3 ADD DUP2 LT PUSH2 0x1742 JUMPI POP POP PUSH2 0x1451 JUMP JUMPDEST PUSH1 0x0 DUP2 SSTORE PUSH1 0x1 ADD PUSH2 0x172C JUMP JUMPDEST POP DUP1 PUSH2 0x172C JUMP JUMPDEST ADD MLOAD SWAP1 POP DUP9 DUP1 PUSH2 0x140D JUMP JUMPDEST SWAP3 POP PUSH1 0x1 DUP5 ADD PUSH1 0x0 MSTORE PUSH1 0x20 PUSH1 0x0 KECCAK256 SWAP1 PUSH1 0x0 SWAP4 JUMPDEST PUSH1 0x1F NOT DUP5 AND DUP6 LT PUSH2 0x17B7 JUMPI PUSH1 0x1 SWAP5 POP DUP4 PUSH1 0x1F NOT DUP2 AND LT PUSH2 0x179E JUMPI JUMPDEST POP POP POP DUP2 SHL ADD PUSH1 0x1 DUP3 ADD SSTORE PUSH2 0x1425 JUMP JUMPDEST ADD MLOAD PUSH1 0x0 NOT PUSH1 0xF8 DUP5 PUSH1 0x3 SHL AND SHR NOT AND SWAP1 SSTORE DUP9 DUP1 DUP1 PUSH2 0x178E JUMP JUMPDEST DUP2 DUP2 ADD MLOAD DUP4 SSTORE PUSH1 0x20 SWAP5 DUP6 ADD SWAP5 PUSH1 0x1 SWAP1 SWAP4 ADD SWAP3 SWAP1 SWAP2 ADD SWAP1 PUSH2 0x1773 JUMP JUMPDEST SWAP1 SWAP2 POP PUSH1 0x1 DUP5 ADD PUSH1 0x0 MSTORE PUSH1 0x20 PUSH1 0x0 KECCAK256 PUSH1 0x1F DUP5 ADD PUSH1 0x5 SHR DUP2 ADD PUSH1 0x20 DUP6 LT PUSH2 0x181E JUMPI JUMPDEST SWAP1 DUP5 SWAP4 SWAP3 SWAP2 JUMPDEST PUSH1 0x1F DUP4 ADD PUSH1 0x5 SHR DUP3 ADD DUP2 LT PUSH2 0x180F JUMPI POP POP PUSH2 0x13F6 JUMP JUMPDEST PUSH1 0x0 DUP2 SSTORE DUP6 SWAP5 POP PUSH1 0x1 ADD PUSH2 0x17F9 JUMP JUMPDEST POP DUP1 PUSH2 0x17F3 JUMP JUMPDEST PUSH4 0x4E487B71 PUSH1 0xE0 SHL PUSH1 0x0 MSTORE PUSH1 0x0 PUSH1 0x4 MSTORE PUSH1 0x24 PUSH1 0x0 REVERT JUMPDEST CALLVALUE PUSH2 0x176 JUMPI PUSH2 0x1849 CALLDATASIZE PUSH2 0x24E2 JUMP JUMPDEST SWAP1 PUSH1 0x0 MSTORE PUSH1 0x6 PUSH1 0x20 MSTORE PUSH1 0x40 PUSH1 0x0 KECCAK256 SWAP1 DUP2 SLOAD DUP2 LT ISZERO PUSH2 0x176 JUMPI PUSH2 0x186A SWAP2 PUSH2 0x24F8 JUMP JUMPDEST POP DUP1 SLOAD PUSH1 0x1 PUSH1 0x1 PUSH1 0xA0 SHL SUB AND PUSH2 0x1882 PUSH1 0x1 DUP4 ADD PUSH2 0x25F2 JUMP JUMPDEST SWAP2 PUSH2 0xF50 PUSH1 0x3 PUSH2 0x1894 PUSH1 0x2 DUP5 ADD PUSH2 0x25F2 JUMP JUMPDEST SWAP3 ADD SLOAD SWAP2 PUSH2 0xF42 PUSH1 0x40 MLOAD SWAP6 DUP7 SWAP6 DUP7 MSTORE PUSH1 0x80 PUSH1 0x20 DUP8 ADD MSTORE PUSH1 0x80 DUP7 ADD SWAP1 PUSH2 0x2475 JUMP JUMPDEST CALLVALUE PUSH2 0x176 JUMPI PUSH1 0xC0 CALLDATASIZE PUSH1 0x3 NOT ADD SLT PUSH2 0x176 JUMPI PUSH1 0x4 CALLDATALOAD PUSH1 0x1 PUSH1 0x1 PUSH1 0x40 SHL SUB DUP2 GT PUSH2 0x176 JUMPI PUSH2 0x18E4 SWAP1 CALLDATASIZE SWAP1 PUSH1 0x4 ADD PUSH2 0x24B5 JUMP JUMPDEST PUSH1 0x24 CALLDATALOAD PUSH1 0x1 PUSH1 0x1 PUSH1 0x40 SHL SUB DUP2 GT PUSH2 0x176 JUMPI PUSH2 0x1903 SWAP1 CALLDATASIZE SWAP1 PUSH1 0x4 ADD PUSH2 0x24B5 JUMP JUMPDEST PUSH1 0x44 SWAP3 SWAP2 SWAP3 CALLDATALOAD PUSH1 0x1 PUSH1 0x1 PUSH1 0x40 SHL SUB DUP2 GT PUSH2 0x176 JUMPI PUSH2 0x1925 SWAP1 CALLDATASIZE SWAP1 PUSH1 0x4 ADD PUSH2 0x24B5 JUMP JUMPDEST SWAP2 PUSH1 0x64 CALLDATALOAD PUSH1 0x1 PUSH1 0x1 PUSH1 0x40 SHL SUB DUP2 GT PUSH2 0x176 JUMPI PUSH2 0x1945 SWAP1 CALLDATASIZE SWAP1 PUSH1 0x4 ADD PUSH2 0x24B5 JUMP JUMPDEST SWAP6 SWAP1 PUSH1 0x1 DUP1 PUSH1 0xA0 SHL SUB PUSH1 0x0 SLOAD AND CALLER EQ DUP1 ISZERO PUSH2 0x212F JUMPI JUMPDEST PUSH2 0x1964 SWAP1 PUSH2 0x2782 JUMP JUMPDEST PUSH1 0x40 MLOAD PUSH1 0x20 DUP2 ADD SWAP1 DUP9 DUP4 DUP4 CALLDATACOPY PUSH2 0x198A PUSH1 0x20 DUP3 DUP12 DUP2 ADD PUSH1 0x0 DUP4 DUP3 ADD MSTORE SUB DUP1 DUP5 MSTORE ADD DUP3 PUSH2 0x25D1 JUMP JUMPDEST MLOAD SWAP1 KECCAK256 SWAP7 DUP8 PUSH1 0x0 MSTORE PUSH1 0x4 PUSH1 0x20 MSTORE PUSH1 0xFF PUSH1 0x6 PUSH1 0x40 PUSH1 0x0 KECCAK256 ADD SLOAD PUSH1 0xA0 SHR AND PUSH2 0x20DA JUMPI PUSH1 0x40 MLOAD SWAP2 DUP3 PUSH2 0x160 DUP2 ADD LT PUSH1 0x1 PUSH1 0x1 PUSH1 0x40 SHL SUB PUSH2 0x160 DUP6 ADD GT OR PUSH2 0xDA2 JUMPI PUSH2 0x1A08 SWAP2 PUSH2 0x160 DUP5 ADD PUSH1 0x40 MSTORE PUSH2 0x19DF CALLDATASIZE DUP11 DUP14 PUSH2 0x27DC JUMP JUMPDEST DUP5 MSTORE PUSH2 0x19EC CALLDATASIZE DUP8 DUP8 PUSH2 0x27DC JUMP JUMPDEST PUSH1 0x20 DUP6 ADD MSTORE PUSH2 0x19FC CALLDATASIZE DUP10 DUP10 PUSH2 0x27DC JUMP JUMPDEST PUSH1 0x40 DUP6 ADD MSTORE CALLDATASIZE SWAP2 PUSH2 0x27DC JUMP JUMPDEST PUSH1 0x60 DUP3 ADD MSTORE PUSH1 0x84 CALLDATALOAD PUSH1 0x80 DUP3 ADD MSTORE PUSH1 0xA4 CALLDATALOAD PUSH1 0xA0 DUP3 ADD MSTORE CALLER PUSH1 0xC0 DUP3 ADD MSTORE PUSH1 0x1 PUSH1 0xE0 DUP3 ADD MSTORE PUSH1 0x0 PUSH2 0x100 DUP3 ADD MSTORE PUSH1 0x0 PUSH2 0x120 DUP3 ADD MSTORE PUSH1 0x0 PUSH2 0x140 DUP3 ADD MSTORE DUP7 PUSH1 0x0 MSTORE PUSH1 0x4 PUSH1 0x20 MSTORE PUSH1 0x40 PUSH1 0x0 KECCAK256 SWAP1 DUP1 MLOAD DUP1 MLOAD SWAP1 PUSH1 0x1 PUSH1 0x1 PUSH1 0x40 SHL SUB DUP3 GT PUSH2 0xDA2 JUMPI DUP2 SWAP1 PUSH2 0x1A70 DUP6 SLOAD PUSH2 0x252A JUMP JUMPDEST PUSH1 0x1F DUP2 GT PUSH2 0x208A JUMPI JUMPDEST POP PUSH1 0x20 SWAP1 PUSH1 0x1F DUP4 GT PUSH1 0x1 EQ PUSH2 0x201E JUMPI PUSH1 0x0 SWAP3 PUSH2 0x2013 JUMPI JUMPDEST POP POP DUP2 PUSH1 0x1 SHL SWAP2 PUSH1 0x0 NOT SWAP1 PUSH1 0x3 SHL SHR NOT AND OR DUP3 SSTORE JUMPDEST PUSH1 0x20 DUP2 ADD MLOAD DUP1 MLOAD SWAP1 PUSH1 0x1 PUSH1 0x1 PUSH1 0x40 SHL SUB DUP3 GT PUSH2 0xDA2 JUMPI DUP2 SWAP1 PUSH2 0x1ACA PUSH1 0x1 DUP7 ADD SLOAD PUSH2 0x252A JUMP JUMPDEST PUSH1 0x1F DUP2 GT PUSH2 0x1FC0 JUMPI JUMPDEST POP PUSH1 0x20 SWAP1 PUSH1 0x1F DUP4 GT PUSH1 0x1 EQ PUSH2 0x1F4E JUMPI PUSH1 0x0 SWAP3 PUSH2 0x1F43 JUMPI JUMPDEST POP POP DUP2 PUSH1 0x1 SHL SWAP2 PUSH1 0x0 NOT SWAP1 PUSH1 0x3 SHL SHR NOT AND OR PUSH1 0x1 DUP4 ADD SSTORE JUMPDEST PUSH1 0x40 DUP2 ADD MLOAD DUP1 MLOAD SWAP1 PUSH1 0x1 PUSH1 0x1 PUSH1 0x40 SHL SUB DUP3 GT PUSH2 0xDA2 JUMPI DUP2 SWAP1 PUSH2 0x1B27 PUSH1 0x2 DUP7 ADD SLOAD PUSH2 0x252A JUMP JUMPDEST PUSH1 0x1F DUP2 GT PUSH2 0x1EF0 JUMPI JUMPDEST POP PUSH1 0x20 SWAP1 PUSH1 0x1F DUP4 GT PUSH1 0x1 EQ PUSH2 0x1E7E JUMPI PUSH1 0x0 SWAP3 PUSH2 0x1E73 JUMPI JUMPDEST POP POP DUP2 PUSH1 0x1 SHL SWAP2 PUSH1 0x0 NOT SWAP1 PUSH1 0x3 SHL SHR NOT AND OR PUSH1 0x2 DUP4 ADD SSTORE JUMPDEST PUSH1 0x60 DUP2 ADD MLOAD DUP1 MLOAD SWAP1 PUSH1 0x1 PUSH1 0x1 PUSH1 0x40 SHL SUB DUP3 GT PUSH2 0xDA2 JUMPI PUSH2 0x1B82 PUSH1 0x3 DUP6 ADD SLOAD PUSH2 0x252A JUMP JUMPDEST PUSH1 0x1F DUP2 GT PUSH2 0x1E2C JUMPI JUMPDEST POP PUSH1 0x20 SWAP1 PUSH1 0x1F DUP4 GT PUSH1 0x1 EQ PUSH2 0x1DB6 JUMPI SWAP2 DUP1 PUSH1 0x8 SWAP5 SWAP3 PUSH2 0x140 SWAP5 PUSH1 0x0 SWAP3 PUSH2 0x1DAB JUMPI JUMPDEST POP POP DUP2 PUSH1 0x1 SHL SWAP2 PUSH1 0x0 NOT SWAP1 PUSH1 0x3 SHL SHR NOT AND OR PUSH1 0x3 DUP6 ADD SSTORE JUMPDEST PUSH1 0x80 DUP2 ADD MLOAD PUSH1 0x4 DUP6 ADD SSTORE PUSH1 0xA0 DUP1 DUP3 ADD MLOAD PUSH1 0x5 DUP7 ADD SSTORE PUSH1 0xC0 DUP3 ADD MLOAD PUSH1 0x6 DUP7 ADD DUP1 SLOAD PUSH1 0xE0 DUP6 ADD MLOAD PUSH2 0x100 DUP7 ADD MLOAD SWAP1 ISZERO ISZERO SWAP1 SWAP5 SHL PUSH1 0xFF PUSH1 0xA0 SHL AND PUSH1 0x1 PUSH1 0x1 PUSH1 0xA0 SHL SUB SWAP1 SWAP4 AND PUSH1 0x1 PUSH1 0x1 PUSH1 0xB0 SHL SUB NOT SWAP1 SWAP2 AND OR SWAP2 SWAP1 SWAP2 OR SWAP2 ISZERO ISZERO PUSH1 0xA8 SHL PUSH1 0xFF PUSH1 0xA8 SHL AND SWAP2 SWAP1 SWAP2 OR SWAP1 SSTORE PUSH2 0x120 DUP2 ADD MLOAD PUSH1 0x7 DUP6 ADD SSTORE ADD MLOAD SWAP2 ADD SSTORE PUSH1 0x9 SLOAD PUSH1 0x1 PUSH1 0x40 SHL DUP2 LT ISZERO PUSH2 0xDA2 JUMPI PUSH1 0x20 SWAP8 DUP8 SWAP6 PUSH32 0xBCD8A9501E967EF58DFD8CB2164C238AC0DE8FAF8625E0AB7EA78D5C2A768582 SWAP6 PUSH2 0x1C82 DUP5 PUSH1 0x1 PUSH2 0x1DA0 SWAP7 ADD PUSH1 0x9 SSTORE PUSH2 0x2698 JUMP JUMPDEST DUP2 SLOAD SWAP1 PUSH1 0x3 SHL SWAP1 DUP11 DUP3 SHL SWAP2 PUSH1 0x0 NOT SWAP1 SHL NOT AND OR SWAP1 SSTORE PUSH2 0x1CA2 PUSH1 0x1 SLOAD PUSH2 0x2822 JUMP JUMPDEST PUSH1 0x1 SSTORE DUP8 PUSH1 0x0 MSTORE PUSH1 0x5 DUP12 MSTORE PUSH2 0x1D90 PUSH1 0x40 PUSH1 0x0 KECCAK256 PUSH1 0x40 MLOAD SWAP1 PUSH2 0x1CC2 DUP3 PUSH2 0x2564 JUMP JUMPDEST PUSH1 0x40 MLOAD PUSH2 0x1CCE DUP2 PUSH2 0x259B JUMP JUMPDEST PUSH1 0xC DUP2 MSTORE PUSH12 0x26B0B73AB330B1BA3AB932B9 PUSH1 0xA1 SHL DUP16 DUP3 ADD MSTORE DUP3 MSTORE PUSH2 0x1CF3 CALLDATASIZE DUP11 DUP11 PUSH2 0x27DC JUMP JUMPDEST DUP15 DUP4 ADD MSTORE PUSH1 0x40 MLOAD PUSH2 0x1D03 DUP2 PUSH2 0x25B6 JUMP JUMPDEST PUSH1 0x0 DUP2 MSTORE PUSH1 0x40 DUP4 ADD MSTORE PUSH1 0x40 MLOAD PUSH2 0x1D18 DUP2 PUSH2 0x25B6 JUMP JUMPDEST PUSH1 0x0 DUP2 MSTORE PUSH1 0x60 DUP4 ADD MSTORE TIMESTAMP PUSH1 0x80 DUP4 ADD MSTORE PUSH1 0x40 MLOAD PUSH2 0x1D33 DUP2 PUSH2 0x259B JUMP JUMPDEST PUSH1 0x8 DUP2 MSTORE PUSH8 0x15995C9A599A5959 PUSH1 0xC2 SHL DUP16 DUP3 ADD MSTORE PUSH1 0xA0 DUP4 ADD MSTORE CALLER PUSH1 0xC0 DUP4 ADD MSTORE PUSH1 0x40 MLOAD PUSH2 0x1D5E DUP2 PUSH2 0x259B JUMP JUMPDEST DUP15 DUP2 MSTORE PUSH32 0x50726F647563742072656769737465726564206F6E20626C6F636B636861696E DUP16 DUP3 ADD MSTORE PUSH1 0xE0 DUP4 ADD MSTORE PUSH2 0x2868 JUMP JUMPDEST PUSH1 0x40 MLOAD SWAP6 DUP7 SWAP6 CALLER SWAP11 TIMESTAMP SWAP6 DUP9 PUSH2 0x2F21 JUMP JUMPDEST SUB SWAP1 LOG3 PUSH1 0x40 MLOAD SWAP1 DUP2 MSTORE RETURN JUMPDEST ADD MLOAD SWAP1 POP DUP14 DUP1 PUSH2 0x1BAC JUMP JUMPDEST SWAP1 PUSH1 0x3 DUP6 ADD PUSH1 0x0 MSTORE PUSH1 0x20 PUSH1 0x0 KECCAK256 SWAP2 PUSH1 0x0 JUMPDEST PUSH1 0x1F NOT DUP6 AND DUP2 LT PUSH2 0x1E14 JUMPI POP SWAP3 PUSH1 0x8 SWAP5 SWAP3 PUSH1 0x1 SWAP3 PUSH2 0x140 SWAP6 DUP4 PUSH1 0x1F NOT DUP2 AND LT PUSH2 0x1DFB JUMPI JUMPDEST POP POP POP DUP2 SHL ADD PUSH1 0x3 DUP6 ADD SSTORE PUSH2 0x1BC4 JUMP JUMPDEST ADD MLOAD PUSH1 0x0 NOT PUSH1 0xF8 DUP5 PUSH1 0x3 SHL AND SHR NOT AND SWAP1 SSTORE DUP14 DUP1 DUP1 PUSH2 0x1DEB JUMP JUMPDEST SWAP2 SWAP3 PUSH1 0x20 PUSH1 0x1 DUP2 SWAP3 DUP7 DUP6 ADD MLOAD DUP2 SSTORE ADD SWAP5 ADD SWAP3 ADD PUSH2 0x1DC7 JUMP JUMPDEST PUSH1 0x3 DUP6 ADD PUSH1 0x0 MSTORE PUSH1 0x20 PUSH1 0x0 KECCAK256 PUSH1 0x1F DUP5 ADD PUSH1 0x5 SHR DUP2 ADD PUSH1 0x20 DUP6 LT PUSH2 0x1E6C JUMPI JUMPDEST PUSH1 0x1F DUP4 ADD PUSH1 0x5 SHR DUP3 ADD DUP2 LT PUSH2 0x1E60 JUMPI POP POP PUSH2 0x1B8B JUMP JUMPDEST PUSH1 0x0 DUP2 SSTORE PUSH1 0x1 ADD PUSH2 0x1E4A JUMP JUMPDEST POP DUP1 PUSH2 0x1E4A JUMP JUMPDEST ADD MLOAD SWAP1 POP DUP12 DUP1 PUSH2 0x1B47 JUMP JUMPDEST SWAP3 POP PUSH1 0x2 DUP6 ADD PUSH1 0x0 MSTORE PUSH1 0x20 PUSH1 0x0 KECCAK256 SWAP1 PUSH1 0x0 SWAP4 JUMPDEST PUSH1 0x1F NOT DUP5 AND DUP6 LT PUSH2 0x1ED5 JUMPI PUSH1 0x1 SWAP5 POP DUP4 PUSH1 0x1F NOT DUP2 AND LT PUSH2 0x1EBC JUMPI JUMPDEST POP POP POP DUP2 SHL ADD PUSH1 0x2 DUP4 ADD SSTORE PUSH2 0x1B5F JUMP JUMPDEST ADD MLOAD PUSH1 0x0 NOT PUSH1 0xF8 DUP5 PUSH1 0x3 SHL AND SHR NOT AND SWAP1 SSTORE DUP12 DUP1 DUP1 PUSH2 0x1EAC JUMP JUMPDEST DUP2 DUP2 ADD MLOAD DUP4 SSTORE PUSH1 0x20 SWAP5 DUP6 ADD SWAP5 PUSH1 0x1 SWAP1 SWAP4 ADD SWAP3 SWAP1 SWAP2 ADD SWAP1 PUSH2 0x1E91 JUMP JUMPDEST SWAP1 SWAP2 POP PUSH1 0x2 DUP6 ADD PUSH1 0x0 MSTORE PUSH1 0x20 PUSH1 0x0 KECCAK256 PUSH1 0x1F DUP5 ADD PUSH1 0x5 SHR DUP2 ADD PUSH1 0x20 DUP6 LT PUSH2 0x1F3C JUMPI JUMPDEST SWAP1 DUP5 SWAP4 SWAP3 SWAP2 JUMPDEST PUSH1 0x1F DUP4 ADD PUSH1 0x5 SHR DUP3 ADD DUP2 LT PUSH2 0x1F2D JUMPI POP POP PUSH2 0x1B30 JUMP JUMPDEST PUSH1 0x0 DUP2 SSTORE DUP6 SWAP5 POP PUSH1 0x1 ADD PUSH2 0x1F17 JUMP JUMPDEST POP DUP1 PUSH2 0x1F11 JUMP JUMPDEST ADD MLOAD SWAP1 POP DUP12 DUP1 PUSH2 0x1AEA JUMP JUMPDEST SWAP3 POP PUSH1 0x1 DUP6 ADD PUSH1 0x0 MSTORE PUSH1 0x20 PUSH1 0x0 KECCAK256 SWAP1 PUSH1 0x0 SWAP4 JUMPDEST PUSH1 0x1F NOT DUP5 AND DUP6 LT PUSH2 0x1FA5 JUMPI PUSH1 0x1 SWAP5 POP DUP4 PUSH1 0x1F NOT DUP2 AND LT PUSH2 0x1F8C JUMPI JUMPDEST POP POP POP DUP2 SHL ADD PUSH1 0x1 DUP4 ADD SSTORE PUSH2 0x1B02 JUMP JUMPDEST ADD MLOAD PUSH1 0x0 NOT PUSH1 0xF8 DUP5 PUSH1 0x3 SHL AND SHR NOT AND SWAP1 SSTORE DUP12 DUP1 DUP1 PUSH2 0x1F7C JUMP JUMPDEST DUP2 DUP2 ADD MLOAD DUP4 SSTORE PUSH1 0x20 SWAP5 DUP6 ADD SWAP5 PUSH1 0x1 SWAP1 SWAP4 ADD SWAP3 SWAP1 SWAP2 ADD SWAP1 PUSH2 0x1F61 JUMP JUMPDEST SWAP1 SWAP2 POP PUSH1 0x1 DUP6 ADD PUSH1 0x0 MSTORE PUSH1 0x20 PUSH1 0x0 KECCAK256 PUSH1 0x1F DUP5 ADD PUSH1 0x5 SHR DUP2 ADD PUSH1 0x20 DUP6 LT PUSH2 0x200C JUMPI JUMPDEST SWAP1 DUP5 SWAP4 SWAP3 SWAP2 JUMPDEST PUSH1 0x1F DUP4 ADD PUSH1 0x5 SHR DUP3 ADD DUP2 LT PUSH2 0x1FFD JUMPI POP POP PUSH2 0x1AD3 JUMP JUMPDEST PUSH1 0x0 DUP2 SSTORE DUP6 SWAP5 POP PUSH1 0x1 ADD PUSH2 0x1FE7 JUMP JUMPDEST POP DUP1 PUSH2 0x1FE1 JUMP JUMPDEST ADD MLOAD SWAP1 POP DUP12 DUP1 PUSH2 0x1A90 JUMP JUMPDEST SWAP3 POP DUP5 PUSH1 0x0 MSTORE PUSH1 0x20 PUSH1 0x0 KECCAK256 SWAP1 PUSH1 0x0 SWAP4 JUMPDEST PUSH1 0x1F NOT DUP5 AND DUP6 LT PUSH2 0x206F JUMPI PUSH1 0x1 SWAP5 POP DUP4 PUSH1 0x1F NOT DUP2 AND LT PUSH2 0x2056 JUMPI JUMPDEST POP POP POP DUP2 SHL ADD DUP3 SSTORE PUSH2 0x1AA5 JUMP JUMPDEST ADD MLOAD PUSH1 0x0 NOT PUSH1 0xF8 DUP5 PUSH1 0x3 SHL AND SHR NOT AND SWAP1 SSTORE DUP12 DUP1 DUP1 PUSH2 0x2049 JUMP JUMPDEST DUP2 DUP2 ADD MLOAD DUP4 SSTORE PUSH1 0x20 SWAP5 DUP6 ADD SWAP5 PUSH1 0x1 SWAP1 SWAP4 ADD SWAP3 SWAP1 SWAP2 ADD SWAP1 PUSH2 0x202E JUMP JUMPDEST SWAP1 SWAP2 POP DUP5 PUSH1 0x0 MSTORE PUSH1 0x20 PUSH1 0x0 KECCAK256 PUSH1 0x1F DUP5 ADD PUSH1 0x5 SHR DUP2 ADD PUSH1 0x20 DUP6 LT PUSH2 0x20D3 JUMPI JUMPDEST SWAP1 DUP5 SWAP4 SWAP3 SWAP2 JUMPDEST PUSH1 0x1F DUP4 ADD PUSH1 0x5 SHR DUP3 ADD DUP2 LT PUSH2 0x20C4 JUMPI POP POP PUSH2 0x1A79 JUMP JUMPDEST PUSH1 0x0 DUP2 SSTORE DUP6 SWAP5 POP PUSH1 0x1 ADD PUSH2 0x20AE JUMP JUMPDEST POP DUP1 PUSH2 0x20A8 JUMP JUMPDEST PUSH1 0x40 MLOAD PUSH3 0x461BCD PUSH1 0xE5 SHL DUP2 MSTORE PUSH1 0x20 PUSH1 0x4 DUP3 ADD MSTORE PUSH1 0x27 PUSH1 0x24 DUP3 ADD MSTORE PUSH32 0x536E61636B536869656C643A2070726F6475637420616C726561647920726567 PUSH1 0x44 DUP3 ADD MSTORE PUSH7 0x1A5CDD195C9959 PUSH1 0xCA SHL PUSH1 0x64 DUP3 ADD MSTORE PUSH1 0x84 SWAP1 REVERT JUMPDEST POP CALLER PUSH1 0x0 SWAP1 DUP2 MSTORE PUSH1 0x8 PUSH1 0x20 MSTORE PUSH1 0x40 SWAP1 KECCAK256 SLOAD PUSH1 0xFF AND PUSH2 0x195B JUMP JUMPDEST CALLVALUE PUSH2 0x176 JUMPI PUSH1 0x20 CALLDATASIZE PUSH1 0x3 NOT ADD SLT PUSH2 0x176 JUMPI PUSH1 0x4 CALLDATALOAD DUP1 PUSH1 0x0 MSTORE PUSH1 0x4 PUSH1 0x20 MSTORE PUSH2 0x217C PUSH1 0xFF PUSH1 0x6 PUSH1 0x40 PUSH1 0x0 KECCAK256 ADD SLOAD PUSH1 0xA0 SHR AND PUSH2 0x2F64 JUMP JUMPDEST PUSH1 0x0 MSTORE PUSH1 0x4 PUSH1 0x20 MSTORE PUSH2 0x21F6 PUSH1 0x40 PUSH1 0x0 KECCAK256 PUSH1 0x4 DUP2 ADD SLOAD PUSH1 0x5 DUP3 ADD SLOAD PUSH1 0xFF PUSH1 0x6 DUP5 ADD SLOAD PUSH1 0xA8 SHR AND PUSH1 0x7 DUP5 ADD SLOAD PUSH1 0x8 DUP6 ADD SLOAD SWAP2 PUSH1 0x5 PUSH1 0x20 MSTORE PUSH1 0x40 PUSH1 0x0 KECCAK256 SLOAD SWAP4 PUSH2 0x2212 PUSH2 0x21C4 DUP9 PUSH2 0x25F2 JUMP JUMPDEST SWAP8 PUSH2 0x2204 PUSH2 0x21E0 PUSH1 0x2 PUSH2 0x21D9 PUSH1 0x1 DUP6 ADD PUSH2 0x25F2 JUMP JUMPDEST SWAP4 ADD PUSH2 0x25F2 JUMP JUMPDEST SWAP2 PUSH1 0x40 MLOAD SWAP12 DUP13 SWAP12 DUP13 PUSH2 0x120 DUP1 SWAP2 MSTORE DUP14 ADD SWAP1 PUSH2 0x2475 JUMP JUMPDEST SWAP1 DUP12 DUP3 SUB PUSH1 0x20 DUP14 ADD MSTORE PUSH2 0x2475 JUMP JUMPDEST SWAP1 DUP10 DUP3 SUB PUSH1 0x40 DUP12 ADD MSTORE PUSH2 0x2475 JUMP JUMPDEST SWAP6 PUSH1 0x60 DUP9 ADD MSTORE PUSH1 0x80 DUP8 ADD MSTORE ISZERO ISZERO PUSH1 0xA0 DUP7 ADD MSTORE PUSH1 0xC0 DUP6 ADD MSTORE PUSH1 0xE0 DUP5 ADD MSTORE PUSH2 0x100 DUP4 ADD MSTORE SUB SWAP1 RETURN JUMPDEST CALLVALUE PUSH2 0x176 JUMPI PUSH1 0x20 CALLDATASIZE PUSH1 0x3 NOT ADD SLT PUSH2 0x176 JUMPI PUSH1 0x20 PUSH2 0x2275 PUSH1 0x4 CALLDATALOAD DUP1 PUSH1 0x0 MSTORE PUSH1 0x4 DUP4 MSTORE PUSH2 0x2270 PUSH1 0xFF PUSH1 0x6 PUSH1 0x40 PUSH1 0x0 KECCAK256 ADD SLOAD PUSH1 0xA0 SHR AND PUSH2 0x2F64 JUMP JUMPDEST PUSH2 0x30C0 JUMP JUMPDEST PUSH1 0x40 MLOAD SWAP1 DUP2 MSTORE RETURN JUMPDEST CALLVALUE PUSH2 0x176 JUMPI PUSH1 0x0 CALLDATASIZE PUSH1 0x3 NOT ADD SLT PUSH2 0x176 JUMPI PUSH1 0x20 PUSH1 0x3 SLOAD PUSH1 0x40 MLOAD SWAP1 DUP2 MSTORE RETURN JUMPDEST CALLVALUE PUSH2 0x176 JUMPI PUSH1 0x0 CALLDATASIZE PUSH1 0x3 NOT ADD SLT PUSH2 0x176 JUMPI PUSH1 0x20 PUSH1 0x2 SLOAD PUSH1 0x40 MLOAD SWAP1 DUP2 MSTORE RETURN JUMPDEST CALLVALUE PUSH2 0x176 JUMPI PUSH1 0x20 DUP1 PUSH1 0x3 NOT CALLDATASIZE ADD SLT PUSH2 0x176 JUMPI PUSH1 0x4 CALLDATALOAD SWAP1 PUSH1 0x1 DUP1 PUSH1 0xA0 SHL SUB PUSH1 0x0 SLOAD AND CALLER EQ DUP1 ISZERO PUSH2 0x245D JUMPI JUMPDEST PUSH2 0x22EC SWAP1 PUSH2 0x2782 JUMP JUMPDEST DUP2 PUSH1 0x0 MSTORE PUSH1 0x4 DUP2 MSTORE PUSH2 0x230B PUSH1 0xFF PUSH1 0x6 PUSH1 0x40 PUSH1 0x0 KECCAK256 ADD SLOAD PUSH1 0xA0 SHR AND PUSH2 0x2F64 JUMP JUMPDEST DUP2 PUSH1 0x0 MSTORE PUSH1 0x4 DUP2 MSTORE PUSH1 0xFF PUSH1 0x6 PUSH1 0x40 PUSH1 0x0 KECCAK256 ADD SLOAD PUSH1 0xA8 SHR AND PUSH2 0x2419 JUMPI PUSH2 0x120 PUSH32 0xFA9C82B11AB7CAA4A79D074AC7E6AFFAC9CAE3E47E233FA4749E7C27B286A908 SWAP2 DUP4 PUSH1 0x0 MSTORE PUSH1 0x4 DUP2 MSTORE PUSH1 0x6 PUSH1 0x40 PUSH1 0x0 KECCAK256 ADD PUSH1 0x1 PUSH1 0xA8 SHL PUSH1 0xFF PUSH1 0xA8 SHL NOT DUP3 SLOAD AND OR SWAP1 SSTORE PUSH1 0x40 MLOAD TIMESTAMP DUP2 MSTORE DUP5 PUSH32 0x3EA95439E53FE33D14BEAD4BA770E464B7F8C43D3B422EDE809940ECAED60919 DUP4 CALLER SWAP4 LOG3 PUSH1 0xC0 PUSH1 0x40 MLOAD SWAP2 PUSH1 0x80 DUP4 MSTORE PUSH1 0xF PUSH1 0x80 DUP5 ADD MSTORE PUSH15 0x141493D11550D517D4915593D2D151 PUSH1 0x8A SHL PUSH1 0xA0 DUP5 ADD MSTORE DUP3 ADD MSTORE PUSH1 0x2E PUSH1 0xC0 DUP3 ADD MSTORE PUSH32 0x50726F6475637420686173206265656E207265766F6B65642066726F6D207468 PUSH1 0xE0 DUP3 ADD MSTORE PUSH14 0x329039BAB838363C9031B430B4B7 PUSH1 0x91 SHL PUSH2 0x100 DUP3 ADD MSTORE PUSH1 0x5 PUSH1 0x40 DUP3 ADD MSTORE TIMESTAMP PUSH1 0x60 DUP3 ADD MSTORE LOG2 STOP JUMPDEST PUSH1 0x64 SWAP1 PUSH1 0x40 MLOAD SWAP1 PUSH3 0x461BCD PUSH1 0xE5 SHL DUP3 MSTORE PUSH1 0x4 DUP3 ADD MSTORE PUSH1 0x1C PUSH1 0x24 DUP3 ADD MSTORE PUSH32 0x536E61636B536869656C643A20616C7265616479207265766F6B656400000000 PUSH1 0x44 DUP3 ADD MSTORE REVERT JUMPDEST POP CALLER PUSH1 0x0 SWAP1 DUP2 MSTORE PUSH1 0x8 DUP3 MSTORE PUSH1 0x40 SWAP1 KECCAK256 SLOAD PUSH1 0xFF AND PUSH2 0x22E3 JUMP JUMPDEST SWAP2 SWAP1 DUP3 MLOAD SWAP3 DUP4 DUP3 MSTORE PUSH1 0x0 JUMPDEST DUP5 DUP2 LT PUSH2 0x24A1 JUMPI POP POP DUP3 PUSH1 0x0 PUSH1 0x20 DUP1 SWAP5 SWAP6 DUP5 ADD ADD MSTORE PUSH1 0x1F DUP1 NOT SWAP2 ADD AND ADD ADD SWAP1 JUMP JUMPDEST PUSH1 0x20 DUP2 DUP4 ADD DUP2 ADD MLOAD DUP5 DUP4 ADD DUP3 ADD MSTORE ADD PUSH2 0x2480 JUMP JUMPDEST SWAP2 DUP2 PUSH1 0x1F DUP5 ADD SLT ISZERO PUSH2 0x176 JUMPI DUP3 CALLDATALOAD SWAP2 PUSH1 0x1 PUSH1 0x1 PUSH1 0x40 SHL SUB DUP4 GT PUSH2 0x176 JUMPI PUSH1 0x20 DUP4 DUP2 DUP7 ADD SWAP6 ADD ADD GT PUSH2 0x176 JUMPI JUMP JUMPDEST PUSH1 0x40 SWAP1 PUSH1 0x3 NOT ADD SLT PUSH2 0x176 JUMPI PUSH1 0x4 CALLDATALOAD SWAP1 PUSH1 0x24 CALLDATALOAD SWAP1 JUMP JUMPDEST DUP1 SLOAD DUP3 LT ISZERO PUSH2 0x2514 JUMPI PUSH1 0x0 MSTORE PUSH1 0x20 PUSH1 0x0 KECCAK256 SWAP1 PUSH1 0x2 SHL ADD SWAP1 PUSH1 0x0 SWAP1 JUMP JUMPDEST PUSH4 0x4E487B71 PUSH1 0xE0 SHL PUSH1 0x0 MSTORE PUSH1 0x32 PUSH1 0x4 MSTORE PUSH1 0x24 PUSH1 0x0 REVERT JUMPDEST SWAP1 PUSH1 0x1 DUP3 DUP2 SHR SWAP3 AND DUP1 ISZERO PUSH2 0x255A JUMPI JUMPDEST PUSH1 0x20 DUP4 LT EQ PUSH2 0x2544 JUMPI JUMP JUMPDEST PUSH4 0x4E487B71 PUSH1 0xE0 SHL PUSH1 0x0 MSTORE PUSH1 0x22 PUSH1 0x4 MSTORE PUSH1 0x24 PUSH1 0x0 REVERT JUMPDEST SWAP2 PUSH1 0x7F AND SWAP2 PUSH2 0x2539 JUMP JUMPDEST PUSH2 0x100 DUP2 ADD SWAP1 DUP2 LT PUSH1 0x1 PUSH1 0x1 PUSH1 0x40 SHL SUB DUP3 GT OR PUSH2 0xDA2 JUMPI PUSH1 0x40 MSTORE JUMP JUMPDEST PUSH1 0x80 DUP2 ADD SWAP1 DUP2 LT PUSH1 0x1 PUSH1 0x1 PUSH1 0x40 SHL SUB DUP3 GT OR PUSH2 0xDA2 JUMPI PUSH1 0x40 MSTORE JUMP JUMPDEST PUSH1 0x40 DUP2 ADD SWAP1 DUP2 LT PUSH1 0x1 PUSH1 0x1 PUSH1 0x40 SHL SUB DUP3 GT OR PUSH2 0xDA2 JUMPI PUSH1 0x40 MSTORE JUMP JUMPDEST PUSH1 0x20 DUP2 ADD SWAP1 DUP2 LT PUSH1 0x1 PUSH1 0x1 PUSH1 0x40 SHL SUB DUP3 GT OR PUSH2 0xDA2 JUMPI PUSH1 0x40 MSTORE JUMP JUMPDEST SWAP1 PUSH1 0x1F DUP1 NOT SWAP2 ADD AND DUP2 ADD SWAP1 DUP2 LT PUSH1 0x1 PUSH1 0x1 PUSH1 0x40 SHL SUB DUP3 GT OR PUSH2 0xDA2 JUMPI PUSH1 0x40 MSTORE JUMP JUMPDEST SWAP1 PUSH1 0x40 MLOAD SWAP2 DUP3 PUSH1 0x0 DUP3 SLOAD SWAP3 PUSH2 0x2606 DUP5 PUSH2 0x252A JUMP JUMPDEST SWAP1 DUP2 DUP5 MSTORE PUSH1 0x1 SWAP5 DUP6 DUP2 AND SWAP1 DUP2 PUSH1 0x0 EQ PUSH2 0x2675 JUMPI POP PUSH1 0x1 EQ PUSH2 0x2632 JUMPI JUMPDEST POP POP PUSH2 0x2630 SWAP3 POP SUB DUP4 PUSH2 0x25D1 JUMP JUMPDEST JUMP JUMPDEST SWAP1 SWAP4 SWAP2 POP PUSH1 0x0 MSTORE PUSH1 0x20 SWAP1 DUP2 PUSH1 0x0 KECCAK256 SWAP4 PUSH1 0x0 SWAP2 JUMPDEST DUP2 DUP4 LT PUSH2 0x265D JUMPI POP POP PUSH2 0x2630 SWAP4 POP DUP3 ADD ADD CODESIZE DUP1 PUSH2 0x2622 JUMP JUMPDEST DUP6 SLOAD DUP9 DUP5 ADD DUP6 ADD MSTORE SWAP5 DUP6 ADD SWAP5 DUP8 SWAP5 POP SWAP2 DUP4 ADD SWAP2 PUSH2 0x2645 JUMP JUMPDEST SWAP2 POP POP PUSH2 0x2630 SWAP5 POP PUSH1 0x20 SWAP3 POP PUSH1 0xFF NOT AND DUP3 DUP5 ADD MSTORE ISZERO ISZERO PUSH1 0x5 SHL DUP3 ADD ADD CODESIZE DUP1 PUSH2 0x2622 JUMP JUMPDEST PUSH1 0x9 SLOAD DUP2 LT ISZERO PUSH2 0x2514 JUMPI PUSH1 0x9 PUSH1 0x0 MSTORE PUSH32 0x6E1540171B6C0C960B71A7020D9F60077F6AF931A8BBF590DA0223DACF75C7AF ADD SWAP1 PUSH1 0x0 SWAP1 JUMP JUMPDEST DUP1 SLOAD DUP3 LT ISZERO PUSH2 0x2514 JUMPI PUSH1 0x0 MSTORE PUSH1 0x20 PUSH1 0x0 KECCAK256 SWAP1 PUSH1 0x3 SHL ADD SWAP1 PUSH1 0x0 SWAP1 JUMP JUMPDEST ISZERO PUSH2 0x26F2 JUMPI JUMP JUMPDEST PUSH1 0x64 PUSH1 0x40 MLOAD PUSH3 0x461BCD PUSH1 0xE5 SHL DUP2 MSTORE PUSH1 0x20 PUSH1 0x4 DUP3 ADD MSTORE PUSH1 0x20 PUSH1 0x24 DUP3 ADD MSTORE PUSH32 0x536E61636B536869656C643A2063616C6C6572206973206E6F74206F776E6572 PUSH1 0x44 DUP3 ADD MSTORE REVERT JUMPDEST ISZERO PUSH2 0x273D JUMPI JUMP JUMPDEST PUSH1 0x40 MLOAD PUSH3 0x461BCD PUSH1 0xE5 SHL DUP2 MSTORE PUSH1 0x20 PUSH1 0x4 DUP3 ADD MSTORE PUSH1 0x19 PUSH1 0x24 DUP3 ADD MSTORE PUSH32 0x536E61636B536869656C643A207A65726F206164647265737300000000000000 PUSH1 0x44 DUP3 ADD MSTORE PUSH1 0x64 SWAP1 REVERT JUMPDEST ISZERO PUSH2 0x2789 JUMPI JUMP JUMPDEST PUSH1 0x40 MLOAD PUSH3 0x461BCD PUSH1 0xE5 SHL DUP2 MSTORE PUSH1 0x20 PUSH1 0x4 DUP3 ADD MSTORE PUSH1 0x25 PUSH1 0x24 DUP3 ADD MSTORE PUSH32 0x536E61636B536869656C643A2063616C6C6572206973206E6F7420617574686F PUSH1 0x44 DUP3 ADD MSTORE PUSH5 0x1C9A5E9959 PUSH1 0xDA SHL PUSH1 0x64 DUP3 ADD MSTORE PUSH1 0x84 SWAP1 REVERT JUMPDEST SWAP3 SWAP2 SWAP3 PUSH1 0x1 PUSH1 0x1 PUSH1 0x40 SHL SUB DUP3 GT PUSH2 0xDA2 JUMPI PUSH1 0x40 MLOAD SWAP2 PUSH2 0x2805 PUSH1 0x1F DUP3 ADD PUSH1 0x1F NOT AND PUSH1 0x20 ADD DUP5 PUSH2 0x25D1 JUMP JUMPDEST DUP3 SWAP5 DUP2 DUP5 MSTORE DUP2 DUP4 ADD GT PUSH2 0x176 JUMPI DUP3 DUP2 PUSH1 0x20 SWAP4 DUP5 PUSH1 0x0 SWAP7 ADD CALLDATACOPY ADD ADD MSTORE JUMP JUMPDEST PUSH1 0x0 NOT DUP2 EQ PUSH2 0x2831 JUMPI PUSH1 0x1 ADD SWAP1 JUMP JUMPDEST PUSH4 0x4E487B71 PUSH1 0xE0 SHL PUSH1 0x0 MSTORE PUSH1 0x11 PUSH1 0x4 MSTORE PUSH1 0x24 PUSH1 0x0 REVERT JUMPDEST SWAP1 DUP1 PUSH1 0x20 SWAP4 SWAP3 DUP2 DUP5 MSTORE DUP5 DUP5 ADD CALLDATACOPY PUSH1 0x0 DUP3 DUP3 ADD DUP5 ADD MSTORE PUSH1 0x1F ADD PUSH1 0x1F NOT AND ADD ADD SWAP1 JUMP JUMPDEST DUP1 SLOAD PUSH1 0x1 PUSH1 0x40 SHL DUP2 LT ISZERO PUSH2 0xDA2 JUMPI PUSH2 0x2887 SWAP1 PUSH1 0x1 SWAP3 DUP4 DUP3 ADD DUP2 SSTORE PUSH2 0x26CF JUMP JUMPDEST PUSH2 0x1825 JUMPI DUP3 MLOAD SWAP1 DUP2 MLOAD SWAP2 PUSH1 0x1 PUSH1 0x1 PUSH1 0x40 SHL SUB SWAP3 DUP4 DUP2 GT PUSH2 0xDA2 JUMPI DUP1 PUSH2 0x28AC DUP5 SLOAD PUSH2 0x252A JUMP JUMPDEST SWAP3 PUSH1 0x1F SWAP4 DUP5 DUP2 GT PUSH2 0x2ECD JUMPI JUMPDEST POP PUSH1 0x20 SWAP1 DUP5 DUP4 GT PUSH1 0x1 EQ PUSH2 0x2E6A JUMPI PUSH1 0x0 SWAP3 PUSH2 0x2E5F JUMPI JUMPDEST POP POP PUSH1 0x0 NOT PUSH1 0x3 DUP4 SWAP1 SHL SHR NOT AND SWAP1 DUP6 SHL OR DUP3 SSTORE JUMPDEST DUP4 DUP3 ADD PUSH1 0x20 DUP7 ADD MLOAD DUP1 MLOAD SWAP1 DUP6 DUP3 GT PUSH2 0xDA2 JUMPI DUP2 SWAP1 PUSH2 0x2900 DUP5 SLOAD PUSH2 0x252A JUMP JUMPDEST DUP6 DUP2 GT PUSH2 0x2E0C JUMPI JUMPDEST POP PUSH1 0x20 SWAP1 DUP6 DUP4 GT PUSH1 0x1 EQ PUSH2 0x2DA9 JUMPI PUSH1 0x0 SWAP3 PUSH2 0x2D9E JUMPI JUMPDEST POP POP PUSH1 0x0 NOT PUSH1 0x3 DUP4 SWAP1 SHL SHR NOT AND SWAP1 DUP7 SHL OR SWAP1 SSTORE JUMPDEST PUSH1 0x2 DUP3 ADD PUSH1 0x40 DUP7 ADD MLOAD DUP1 MLOAD SWAP1 DUP6 DUP3 GT PUSH2 0xDA2 JUMPI DUP2 SWAP1 PUSH2 0x2951 DUP5 SLOAD PUSH2 0x252A JUMP JUMPDEST DUP6 DUP2 GT PUSH2 0x2D4B JUMPI JUMPDEST POP PUSH1 0x20 SWAP1 DUP6 DUP4 GT PUSH1 0x1 EQ PUSH2 0x2CE8 JUMPI PUSH1 0x0 SWAP3 PUSH2 0x2CDD JUMPI JUMPDEST POP POP PUSH1 0x0 NOT PUSH1 0x3 DUP4 SWAP1 SHL SHR NOT AND SWAP1 DUP7 SHL OR SWAP1 SSTORE JUMPDEST PUSH1 0x3 SWAP2 DUP3 DUP2 ADD PUSH1 0x60 DUP8 ADD MLOAD DUP1 MLOAD SWAP1 DUP7 DUP3 GT PUSH2 0xDA2 JUMPI DUP2 SWAP1 PUSH2 0x29A4 DUP5 SLOAD PUSH2 0x252A JUMP JUMPDEST DUP7 DUP2 GT PUSH2 0x2C8A JUMPI JUMPDEST POP PUSH1 0x20 SWAP1 DUP7 DUP4 GT PUSH1 0x1 EQ PUSH2 0x2C28 JUMPI PUSH1 0x0 SWAP3 PUSH2 0x2C1D JUMPI JUMPDEST POP POP PUSH1 0x0 NOT DUP3 DUP8 SHL SHR NOT AND SWAP1 DUP8 SHL OR SWAP1 SSTORE JUMPDEST PUSH1 0x80 DUP7 ADD MLOAD PUSH1 0x4 DUP3 ADD SSTORE PUSH1 0x5 DUP2 ADD PUSH1 0xA0 DUP8 ADD MLOAD DUP1 MLOAD SWAP1 DUP7 DUP3 GT PUSH2 0xDA2 JUMPI PUSH2 0x29FB DUP4 SLOAD PUSH2 0x252A JUMP JUMPDEST DUP6 DUP2 GT PUSH2 0x2BD5 JUMPI JUMPDEST POP PUSH1 0x20 SWAP1 DUP6 DUP4 GT PUSH1 0x1 EQ PUSH2 0x2B68 JUMPI SWAP2 DUP1 PUSH1 0x7 SWAP5 SWAP3 PUSH1 0xE0 SWAP7 SWAP5 PUSH1 0x0 SWAP3 PUSH2 0x2B5D JUMPI JUMPDEST POP POP PUSH1 0x0 NOT DUP3 DUP10 SHL SHR NOT AND SWAP1 DUP10 SHL OR SWAP1 SSTORE JUMPDEST PUSH1 0x6 DUP2 ADD PUSH1 0x1 DUP1 PUSH1 0xA0 SHL SUB PUSH1 0xC0 DUP11 ADD MLOAD AND PUSH12 0xFFFFFFFFFFFFFFFFFFFFFFFF PUSH1 0xA0 SHL DUP3 SLOAD AND OR SWAP1 SSTORE ADD SWAP6 ADD MLOAD DUP1 MLOAD SWAP4 DUP5 GT PUSH2 0xDA2 JUMPI PUSH2 0x2A73 DUP7 SLOAD PUSH2 0x252A JUMP JUMPDEST DUP3 DUP2 GT PUSH2 0x2B15 JUMPI JUMPDEST POP PUSH1 0x20 SWAP2 DUP5 GT PUSH1 0x1 EQ PUSH2 0x2AB2 JUMPI SWAP4 DUP4 SWAP5 SWAP2 DUP5 SWAP3 PUSH1 0x0 SWAP6 PUSH2 0x2AA7 JUMPI JUMPDEST POP POP SHL SWAP3 PUSH1 0x0 NOT SWAP2 SHL SHR NOT AND OR SWAP1 SSTORE JUMP JUMPDEST ADD MLOAD SWAP4 POP CODESIZE DUP1 PUSH2 0x2A96 JUMP JUMPDEST SWAP2 SWAP1 PUSH1 0x1F NOT DUP5 AND SWAP3 DUP7 PUSH1 0x0 MSTORE DUP5 DUP3 PUSH1 0x0 KECCAK256 SWAP5 PUSH1 0x0 JUMPDEST DUP9 DUP3 DUP3 LT PUSH2 0x2AFC JUMPI POP POP LT PUSH2 0x2AE2 JUMPI JUMPDEST POP POP POP POP DUP2 SHL ADD SWAP1 SSTORE JUMP JUMPDEST ADD MLOAD SWAP1 PUSH1 0xF8 DUP5 PUSH1 0x0 NOT SWAP3 SHL AND SHR NOT AND SWAP1 SSTORE CODESIZE DUP1 DUP1 DUP1 PUSH2 0x2AD7 JUMP JUMPDEST DUP5 DUP7 ADD MLOAD DUP9 SSTORE SWAP1 SWAP7 ADD SWAP6 PUSH1 0x20 SWAP5 DUP6 ADD SWAP5 DUP9 SWAP4 POP ADD PUSH2 0x2AC7 JUMP JUMPDEST DUP7 PUSH1 0x0 MSTORE PUSH1 0x20 PUSH1 0x0 KECCAK256 DUP4 DUP1 DUP8 ADD PUSH1 0x5 SHR DUP3 ADD SWAP3 PUSH1 0x20 DUP9 LT PUSH2 0x2B54 JUMPI JUMPDEST ADD PUSH1 0x5 SHR ADD SWAP1 DUP7 SWAP1 JUMPDEST DUP3 DUP2 LT PUSH2 0x2B48 JUMPI POP POP PUSH2 0x2A7B JUMP JUMPDEST PUSH1 0x0 DUP2 SSTORE ADD DUP7 SWAP1 PUSH2 0x2B3A JUMP JUMPDEST SWAP3 POP DUP2 SWAP3 PUSH2 0x2B31 JUMP JUMPDEST ADD MLOAD SWAP1 POP CODESIZE DUP1 PUSH2 0x2A23 JUMP JUMPDEST DUP9 SWAP3 SWAP2 PUSH1 0x1F NOT DUP4 AND SWAP2 DUP6 PUSH1 0x0 MSTORE DUP2 PUSH1 0x0 KECCAK256 SWAP3 PUSH1 0x0 JUMPDEST DUP2 DUP2 LT PUSH2 0x2BBD JUMPI POP SWAP2 PUSH1 0xE0 SWAP8 SWAP6 SWAP4 SWAP2 DUP6 PUSH1 0x7 SWAP9 SWAP7 SWAP5 LT PUSH2 0x2BA5 JUMPI JUMPDEST POP POP POP DUP2 SHL ADD SWAP1 SSTORE PUSH2 0x2A35 JUMP JUMPDEST ADD MLOAD PUSH1 0x0 NOT DUP4 DUP12 SHL PUSH1 0xF8 AND SHR NOT AND SWAP1 SSTORE CODESIZE DUP1 DUP1 PUSH2 0x2B98 JUMP JUMPDEST DUP3 DUP5 ADD MLOAD DUP6 SSTORE DUP13 SWAP7 SWAP1 SWAP5 ADD SWAP4 PUSH1 0x20 SWAP4 DUP5 ADD SWAP4 ADD PUSH2 0x2B7D JUMP JUMPDEST DUP4 PUSH1 0x0 MSTORE PUSH1 0x20 PUSH1 0x0 KECCAK256 DUP7 DUP1 DUP6 ADD PUSH1 0x5 SHR DUP3 ADD SWAP3 PUSH1 0x20 DUP7 LT PUSH2 0x2C14 JUMPI JUMPDEST ADD PUSH1 0x5 SHR ADD SWAP1 DUP10 SWAP1 JUMPDEST DUP3 DUP2 LT PUSH2 0x2C08 JUMPI POP POP PUSH2 0x2A03 JUMP JUMPDEST PUSH1 0x0 DUP2 SSTORE ADD DUP10 SWAP1 PUSH2 0x2BFA JUMP JUMPDEST SWAP3 POP DUP2 SWAP3 PUSH2 0x2BF1 JUMP JUMPDEST ADD MLOAD SWAP1 POP CODESIZE DUP1 PUSH2 0x29C2 JUMP JUMPDEST SWAP1 DUP10 SWAP4 POP PUSH1 0x1F NOT DUP4 AND SWAP2 DUP6 PUSH1 0x0 MSTORE DUP2 PUSH1 0x0 KECCAK256 SWAP3 PUSH1 0x0 JUMPDEST DUP2 DUP2 LT PUSH2 0x2C72 JUMPI POP DUP5 GT PUSH2 0x2C5A JUMPI JUMPDEST POP POP POP DUP2 SHL ADD SWAP1 SSTORE PUSH2 0x29D4 JUMP JUMPDEST ADD MLOAD PUSH1 0x0 NOT DUP4 DUP10 SHL PUSH1 0xF8 AND SHR NOT AND SWAP1 SSTORE CODESIZE DUP1 DUP1 PUSH2 0x2C4D JUMP JUMPDEST DUP3 DUP5 ADD MLOAD DUP6 SSTORE DUP13 SWAP7 SWAP1 SWAP5 ADD SWAP4 PUSH1 0x20 SWAP4 DUP5 ADD SWAP4 ADD PUSH2 0x2C3E JUMP JUMPDEST SWAP1 SWAP2 POP DUP4 PUSH1 0x0 MSTORE PUSH1 0x20 PUSH1 0x0 KECCAK256 DUP7 DUP1 DUP6 ADD PUSH1 0x5 SHR DUP3 ADD SWAP3 PUSH1 0x20 DUP7 LT PUSH2 0x2CD4 JUMPI JUMPDEST SWAP2 DUP12 SWAP2 DUP7 SWAP6 SWAP5 SWAP4 ADD PUSH1 0x5 SHR ADD SWAP2 JUMPDEST DUP3 DUP2 LT PUSH2 0x2CC5 JUMPI POP POP PUSH2 0x29AC JUMP JUMPDEST PUSH1 0x0 DUP2 SSTORE DUP6 SWAP5 POP DUP12 SWAP2 ADD PUSH2 0x2CB7 JUMP JUMPDEST SWAP3 POP DUP2 SWAP3 PUSH2 0x2CA9 JUMP JUMPDEST ADD MLOAD SWAP1 POP CODESIZE DUP1 PUSH2 0x296F JUMP JUMPDEST SWAP1 DUP9 SWAP4 POP PUSH1 0x1F NOT DUP4 AND SWAP2 DUP6 PUSH1 0x0 MSTORE DUP2 PUSH1 0x0 KECCAK256 SWAP3 PUSH1 0x0 JUMPDEST DUP2 DUP2 LT PUSH2 0x2D33 JUMPI POP DUP5 GT PUSH2 0x2D1A JUMPI JUMPDEST POP POP POP DUP2 SHL ADD SWAP1 SSTORE PUSH2 0x2983 JUMP JUMPDEST ADD MLOAD PUSH1 0x0 NOT PUSH1 0xF8 DUP5 PUSH1 0x3 SHL AND SHR NOT AND SWAP1 SSTORE CODESIZE DUP1 DUP1 PUSH2 0x2D0D JUMP JUMPDEST DUP3 DUP5 ADD MLOAD DUP6 SSTORE DUP12 SWAP7 SWAP1 SWAP5 ADD SWAP4 PUSH1 0x20 SWAP4 DUP5 ADD SWAP4 ADD PUSH2 0x2CFE JUMP JUMPDEST SWAP1 SWAP2 POP DUP4 PUSH1 0x0 MSTORE PUSH1 0x20 PUSH1 0x0 KECCAK256 DUP6 DUP1 DUP6 ADD PUSH1 0x5 SHR DUP3 ADD SWAP3 PUSH1 0x20 DUP7 LT PUSH2 0x2D95 JUMPI JUMPDEST SWAP2 DUP11 SWAP2 DUP7 SWAP6 SWAP5 SWAP4 ADD PUSH1 0x5 SHR ADD SWAP2 JUMPDEST DUP3 DUP2 LT PUSH2 0x2D86 JUMPI POP POP PUSH2 0x2959 JUMP JUMPDEST PUSH1 0x0 DUP2 SSTORE DUP6 SWAP5 POP DUP11 SWAP2 ADD PUSH2 0x2D78 JUMP JUMPDEST SWAP3 POP DUP2 SWAP3 PUSH2 0x2D6A JUMP JUMPDEST ADD MLOAD SWAP1 POP CODESIZE DUP1 PUSH2 0x291E JUMP JUMPDEST SWAP1 DUP9 SWAP4 POP PUSH1 0x1F NOT DUP4 AND SWAP2 DUP6 PUSH1 0x0 MSTORE DUP2 PUSH1 0x0 KECCAK256 SWAP3 PUSH1 0x0 JUMPDEST DUP2 DUP2 LT PUSH2 0x2DF4 JUMPI POP DUP5 GT PUSH2 0x2DDB JUMPI JUMPDEST POP POP POP DUP2 SHL ADD SWAP1 SSTORE PUSH2 0x2932 JUMP JUMPDEST ADD MLOAD PUSH1 0x0 NOT PUSH1 0xF8 DUP5 PUSH1 0x3 SHL AND SHR NOT AND SWAP1 SSTORE CODESIZE DUP1 DUP1 PUSH2 0x2DCE JUMP JUMPDEST DUP3 DUP5 ADD MLOAD DUP6 SSTORE DUP12 SWAP7 SWAP1 SWAP5 ADD SWAP4 PUSH1 0x20 SWAP4 DUP5 ADD SWAP4 ADD PUSH2 0x2DBF JUMP JUMPDEST SWAP1 SWAP2 POP DUP4 PUSH1 0x0 MSTORE PUSH1 0x20 PUSH1 0x0 KECCAK256 DUP6 DUP1 DUP6 ADD PUSH1 0x5 SHR DUP3 ADD SWAP3 PUSH1 0x20 DUP7 LT PUSH2 0x2E56 JUMPI JUMPDEST SWAP2 DUP11 SWAP2 DUP7 SWAP6 SWAP5 SWAP4 ADD PUSH1 0x5 SHR ADD SWAP2 JUMPDEST DUP3 DUP2 LT PUSH2 0x2E47 JUMPI POP POP PUSH2 0x2908 JUMP JUMPDEST PUSH1 0x0 DUP2 SSTORE DUP6 SWAP5 POP DUP11 SWAP2 ADD PUSH2 0x2E39 JUMP JUMPDEST SWAP3 POP DUP2 SWAP3 PUSH2 0x2E2B JUMP JUMPDEST ADD MLOAD SWAP1 POP CODESIZE DUP1 PUSH2 0x28CE JUMP JUMPDEST SWAP1 DUP8 SWAP4 POP PUSH1 0x1F NOT DUP4 AND SWAP2 DUP7 PUSH1 0x0 MSTORE DUP2 PUSH1 0x0 KECCAK256 SWAP3 PUSH1 0x0 JUMPDEST DUP2 DUP2 LT PUSH2 0x2EB5 JUMPI POP DUP5 GT PUSH2 0x2E9C JUMPI JUMPDEST POP POP POP DUP2 SHL ADD DUP3 SSTORE PUSH2 0x28E2 JUMP JUMPDEST ADD MLOAD PUSH1 0x0 NOT PUSH1 0xF8 DUP5 PUSH1 0x3 SHL AND SHR NOT AND SWAP1 SSTORE CODESIZE DUP1 DUP1 PUSH2 0x2E8F JUMP JUMPDEST DUP3 DUP5 ADD MLOAD DUP6 SSTORE DUP11 SWAP7 SWAP1 SWAP5 ADD SWAP4 PUSH1 0x20 SWAP4 DUP5 ADD SWAP4 ADD PUSH2 0x2E80 JUMP JUMPDEST SWAP1 SWAP2 POP PUSH1 0x0 DUP6 DUP2 MSTORE PUSH1 0x20 DUP2 KECCAK256 DUP6 DUP1 DUP7 ADD PUSH1 0x5 SHR DUP3 ADD SWAP4 PUSH1 0x20 DUP8 LT PUSH2 0x2F18 JUMPI JUMPDEST SWAP2 DUP11 SWAP2 DUP8 SWAP7 SWAP6 SWAP5 SWAP4 ADD PUSH1 0x5 SHR ADD SWAP3 JUMPDEST DUP4 DUP2 LT PUSH2 0x2F0A JUMPI POP POP POP PUSH2 0x28B8 JUMP JUMPDEST DUP3 DUP2 SSTORE DUP7 SWAP6 POP DUP11 SWAP2 ADD PUSH2 0x2EFB JUMP JUMPDEST SWAP4 POP DUP2 SWAP4 PUSH2 0x2EEC JUMP JUMPDEST SWAP8 SWAP7 SWAP6 SWAP2 SWAP3 PUSH2 0x2F5F SWAP5 PUSH2 0x2F43 PUSH2 0x2F51 SWAP4 PUSH1 0x60 SWAP9 SWAP7 PUSH1 0x80 DUP14 MSTORE PUSH1 0x80 DUP14 ADD SWAP2 PUSH2 0x2847 JUMP JUMPDEST SWAP2 DUP11 DUP4 SUB PUSH1 0x20 DUP13 ADD MSTORE PUSH2 0x2847 JUMP JUMPDEST SWAP2 DUP8 DUP4 SUB PUSH1 0x40 DUP10 ADD MSTORE PUSH2 0x2847 JUMP JUMPDEST SWAP4 ADD MSTORE JUMP JUMPDEST ISZERO PUSH2 0x2F6B JUMPI JUMP JUMPDEST PUSH1 0x40 MLOAD PUSH3 0x461BCD PUSH1 0xE5 SHL DUP2 MSTORE PUSH1 0x20 PUSH1 0x4 DUP3 ADD MSTORE PUSH1 0x23 PUSH1 0x24 DUP3 ADD MSTORE PUSH32 0x536E61636B536869656C643A2070726F6475637420646F6573206E6F74206578 PUSH1 0x44 DUP3 ADD MSTORE PUSH3 0x1A5CDD PUSH1 0xEA SHL PUSH1 0x64 DUP3 ADD MSTORE PUSH1 0x84 SWAP1 REVERT JUMPDEST PUSH1 0x40 MLOAD SWAP1 PUSH2 0x2FC9 DUP3 PUSH2 0x259B JUMP JUMPDEST PUSH1 0xA DUP3 MSTORE PUSH10 0x537573706963696F7573 PUSH1 0xB0 SHL PUSH1 0x20 DUP4 ADD MSTORE JUMP JUMPDEST PUSH1 0x40 MLOAD SWAP1 PUSH2 0x2FEF DUP3 PUSH2 0x259B JUMP JUMPDEST PUSH1 0x4 DUP3 MSTORE PUSH4 0x46616B65 PUSH1 0xE0 SHL PUSH1 0x20 DUP4 ADD MSTORE JUMP JUMPDEST PUSH1 0x40 MLOAD SWAP3 SWAP2 PUSH1 0x20 DUP5 ADD SWAP2 DUP2 SWAP1 DUP4 CALLDATACOPY DUP4 ADD SWAP3 PUSH2 0x302C PUSH1 0x20 DUP3 PUSH1 0x0 SWAP7 DUP8 DUP4 DUP3 ADD MSTORE SUB DUP1 DUP5 MSTORE ADD DUP3 PUSH2 0x25D1 JUMP JUMPDEST MLOAD SWAP1 KECCAK256 DUP3 MSTORE PUSH1 0x4 PUSH1 0x20 MSTORE PUSH1 0x40 DUP3 KECCAK256 PUSH1 0x6 DUP2 ADD SLOAD PUSH1 0xFF DUP2 PUSH1 0xA0 SHR AND SWAP1 DUP2 PUSH2 0x309A JUMPI JUMPDEST POP PUSH2 0x3077 JUMPI POP DUP2 PUSH1 0x40 MLOAD PUSH2 0x3060 DUP2 PUSH2 0x25B6 JUMP JUMPDEST DUP2 DUP2 MSTORE SWAP2 PUSH1 0x40 MLOAD PUSH2 0x3070 DUP2 PUSH2 0x25B6 JUMP JUMPDEST DUP3 DUP2 MSTORE SWAP2 SWAP1 JUMP JUMPDEST SWAP1 SWAP2 POP PUSH1 0x7 DUP2 ADD SLOAD PUSH1 0x1 SWAP3 PUSH2 0x3096 DUP5 PUSH2 0x308F DUP6 PUSH2 0x25F2 JUMP JUMPDEST SWAP5 ADD PUSH2 0x25F2 JUMP JUMPDEST SWAP2 SWAP1 JUMP JUMPDEST PUSH1 0xFF SWAP2 POP PUSH1 0xA8 SHR AND ISZERO CODESIZE PUSH2 0x304D JUMP JUMPDEST PUSH1 0x1 PUSH1 0x1 PUSH1 0x40 SHL SUB DUP2 GT PUSH2 0xDA2 JUMPI PUSH1 0x5 SHL PUSH1 0x20 ADD SWAP1 JUMP JUMPDEST PUSH1 0x0 SWAP1 DUP2 MSTORE PUSH1 0x4 PUSH1 0x20 MSTORE PUSH1 0x40 DUP2 KECCAK256 SWAP1 PUSH1 0x7 DUP3 ADD SLOAD SWAP2 DUP3 ISZERO PUSH2 0x312B JUMPI PUSH1 0x8 ADD SLOAD SWAP1 DUP2 DUP4 SUB SWAP2 DUP4 DUP4 GT PUSH2 0x3117 JUMPI PUSH1 0x64 DUP4 MUL SWAP3 DUP4 DIV PUSH1 0x64 EQ SWAP1 DUP5 EQ OR ISZERO PUSH2 0x3103 JUMPI POP DIV SWAP1 JUMP JUMPDEST PUSH4 0x4E487B71 PUSH1 0xE0 SHL DUP2 MSTORE PUSH1 0x11 PUSH1 0x4 MSTORE PUSH1 0x24 SWAP1 REVERT JUMPDEST PUSH4 0x4E487B71 PUSH1 0xE0 SHL DUP3 MSTORE PUSH1 0x11 PUSH1 0x4 MSTORE PUSH1 0x24 DUP3 REVERT JUMPDEST POP POP POP PUSH1 0x64 SWAP1 JUMP INVALID LOG2 PUSH5 0x6970667358 0x22 SLT KECCAK256 0x2D 0xC6 MUL DUP14 0xFB 0xAA 0xDF 0xBA SWAP13 SELFDESTRUCT 0xD4 DUP15 PUSH17 0xBBCD538CEC2D945E31445610B42C2A24E0 0x5C PUSH27 0x64736F6C6343000814003300000000000000000000000000000000 "},"methodIdentifiers":{"addJourneyStep(bytes32,string,string,string,string,string,string)":"c03afffc","authorizePartner(address)":"a9f1a1bd","authorizedPartners(address)":"9288cce3","batchCount()":"06f13056","batches(bytes32)":"c81e25ab","getGlobalStats()":"6b4169c3","getJourneyHistory(bytes32)":"8375f83f","getProduct(bytes32)":"3a20e9df","getScanHistory(bytes32)":"ca59eace","getTrustIndex(bytes32)":"3501fa21","journeyHistory(bytes32,uint256)":"eefb824b","owner()":"8da5cb5b","productCount()":"e0f6ef87","productIds(uint256)":"cb51bba9","products(bytes32)":"79054391","registerBatch(string,string,uint256,uint256,uint256)":"a3746d43","registerProduct(string,string,string,string,uint256,uint256)":"46940ded","revokePartner(address)":"e85d538b","revokeProduct(bytes32)":"046e54ae","scanHistory(bytes32,uint256)":"5ac048cf","scanProduct(bytes32,string,string)":"65d351b9","totalScans()":"0c23792b","transferOwnership(address)":"f2fde38b","verifyProduct(string)":"92efc453"}}}}}